{
  "_format": "hh3-artifact-1",
  "contractName": "KahootGame",
  "sourceName": "contracts/KahootGame.sol",
  "abi": [
    {
      "inputs": [
        {
          "internalType": "address",
          "name": "_factory",
          "type": "address"
        },
        {
          "internalType": "address",
          "name": "_professor",
          "type": "address"
        },
        {
          "internalType": "string",
          "name": "_gameName",
          "type": "string"
        },
        {
          "internalType": "uint256",
          "name": "_passingScore",
          "type": "uint256"
        },
        {
          "internalType": "uint256",
          "name": "_totalQuestions",
          "type": "uint256"
        },
        {
          "internalType": "string",
          "name": "_diplomaTokenURI",
          "type": "string"
        },
        {
          "internalType": "bytes32",
          "name": "_questionsMerkleRoot",
          "type": "bytes32"
        },
        {
          "internalType": "uint256",
          "name": "_entryFee",
          "type": "uint256"
        }
      ],
      "stateMutability": "nonpayable",
      "type": "constructor"
    },
    {
      "inputs": [],
      "name": "ReentrancyGuardReentrantCall",
      "type": "error"
    },
    {
      "anonymous": false,
      "inputs": [
        {
          "indexed": true,
          "internalType": "address",
          "name": "student",
          "type": "address"
        }
      ],
      "name": "DiplomaClaimed",
      "type": "event"
    },
    {
      "anonymous": false,
      "inputs": [
        {
          "indexed": false,
          "internalType": "uint256",
          "name": "triggeredAt",
          "type": "uint256"
        }
      ],
      "name": "GameCancelledByInactivity",
      "type": "event"
    },
    {
      "anonymous": false,
      "inputs": [
        {
          "indexed": true,
          "internalType": "address",
          "name": "player",
          "type": "address"
        },
        {
          "indexed": false,
          "internalType": "uint256",
          "name": "feePaid",
          "type": "uint256"
        }
      ],
      "name": "PlayerJoined",
      "type": "event"
    },
    {
      "anonymous": false,
      "inputs": [
        {
          "indexed": true,
          "internalType": "address",
          "name": "recipient",
          "type": "address"
        },
        {
          "indexed": false,
          "internalType": "uint256",
          "name": "amount",
          "type": "uint256"
        }
      ],
      "name": "PrizeClaimed",
      "type": "event"
    },
    {
      "anonymous": false,
      "inputs": [
        {
          "indexed": false,
          "internalType": "uint256",
          "name": "rank1Score",
          "type": "uint256"
        },
        {
          "indexed": false,
          "internalType": "uint256",
          "name": "rank2Score",
          "type": "uint256"
        },
        {
          "indexed": false,
          "internalType": "uint256",
          "name": "rank3Score",
          "type": "uint256"
        }
      ],
      "name": "PrizesCalculated",
      "type": "event"
    },
    {
      "anonymous": false,
      "inputs": [
        {
          "indexed": true,
          "internalType": "uint256",
          "name": "questionId",
          "type": "uint256"
        }
      ],
      "name": "QuestionOpened",
      "type": "event"
    },
    {
      "anonymous": false,
      "inputs": [
        {
          "indexed": true,
          "internalType": "uint256",
          "name": "questionId",
          "type": "uint256"
        },
        {
          "indexed": false,
          "internalType": "string",
          "name": "enunciado",
          "type": "string"
        },
        {
          "indexed": false,
          "internalType": "string[4]",
          "name": "opciones",
          "type": "string[4]"
        }
      ],
      "name": "QuestionRevealed",
      "type": "event"
    },
    {
      "anonymous": false,
      "inputs": [
        {
          "indexed": true,
          "internalType": "address",
          "name": "player",
          "type": "address"
        },
        {
          "indexed": false,
          "internalType": "uint256",
          "name": "amount",
          "type": "uint256"
        }
      ],
      "name": "RefundClaimed",
      "type": "event"
    },
    {
      "anonymous": false,
      "inputs": [
        {
          "indexed": true,
          "internalType": "uint256",
          "name": "questionId",
          "type": "uint256"
        }
      ],
      "name": "RevealPhaseStarted",
      "type": "event"
    },
    {
      "inputs": [],
      "name": "INACTIVITY_TIMEOUT",
      "outputs": [
        {
          "internalType": "uint256",
          "name": "",
          "type": "uint256"
        }
      ],
      "stateMutability": "view",
      "type": "function"
    },
    {
      "inputs": [],
      "name": "advanceToNextQuestion",
      "outputs": [],
      "stateMutability": "nonpayable",
      "type": "function"
    },
    {
      "inputs": [
        {
          "internalType": "uint256[]",
          "name": "_questionIds",
          "type": "uint256[]"
        },
        {
          "internalType": "uint8[]",
          "name": "_options",
          "type": "uint8[]"
        },
        {
          "internalType": "string[]",
          "name": "_salts",
          "type": "string[]"
        }
      ],
      "name": "batchRevealAnswers",
      "outputs": [],
      "stateMutability": "nonpayable",
      "type": "function"
    },
    {
      "inputs": [],
      "name": "calculatePrizes",
      "outputs": [],
      "stateMutability": "nonpayable",
      "type": "function"
    },
    {
      "inputs": [],
      "name": "claimDiploma",
      "outputs": [],
      "stateMutability": "nonpayable",
      "type": "function"
    },
    {
      "inputs": [],
      "name": "claimPrize",
      "outputs": [],
      "stateMutability": "nonpayable",
      "type": "function"
    },
    {
      "inputs": [],
      "name": "claimRefund",
      "outputs": [],
      "stateMutability": "nonpayable",
      "type": "function"
    },
    {
      "inputs": [
        {
          "internalType": "uint8",
          "name": "_correctOption",
          "type": "uint8"
        },
        {
          "internalType": "string",
          "name": "_saltRespuesta",
          "type": "string"
        },
        {
          "internalType": "bytes32",
          "name": "_nextQuestionHash",
          "type": "bytes32"
        },
        {
          "internalType": "bytes32",
          "name": "_nextCorrectAnswerHash",
          "type": "bytes32"
        },
        {
          "internalType": "bytes32[]",
          "name": "_nextMerkleProof",
          "type": "bytes32[]"
        },
        {
          "internalType": "string",
          "name": "_enunciado",
          "type": "string"
        },
        {
          "internalType": "string[4]",
          "name": "_opciones",
          "type": "string[4]"
        },
        {
          "internalType": "string",
          "name": "_saltPregunta",
          "type": "string"
        }
      ],
      "name": "closeCurrentAndOpenNext",
      "outputs": [],
      "stateMutability": "nonpayable",
      "type": "function"
    },
    {
      "inputs": [
        {
          "internalType": "uint8",
          "name": "_correctOption",
          "type": "uint8"
        },
        {
          "internalType": "string",
          "name": "_saltRespuesta",
          "type": "string"
        }
      ],
      "name": "closeQuestionAndStartReveal",
      "outputs": [],
      "stateMutability": "nonpayable",
      "type": "function"
    },
    {
      "inputs": [
        {
          "internalType": "bytes32",
          "name": "_commitHash",
          "type": "bytes32"
        }
      ],
      "name": "commitAnswer",
      "outputs": [],
      "stateMutability": "nonpayable",
      "type": "function"
    },
    {
      "inputs": [
        {
          "internalType": "uint256",
          "name": "",
          "type": "uint256"
        },
        {
          "internalType": "address",
          "name": "",
          "type": "address"
        }
      ],
      "name": "commits",
      "outputs": [
        {
          "internalType": "bytes32",
          "name": "",
          "type": "bytes32"
        }
      ],
      "stateMutability": "view",
      "type": "function"
    },
    {
      "inputs": [],
      "name": "currentQuestionId",
      "outputs": [
        {
          "internalType": "uint256",
          "name": "",
          "type": "uint256"
        }
      ],
      "stateMutability": "view",
      "type": "function"
    },
    {
      "inputs": [],
      "name": "diplomaContract",
      "outputs": [
        {
          "internalType": "contract DiplomaNFT",
          "name": "",
          "type": "address"
        }
      ],
      "stateMutability": "view",
      "type": "function"
    },
    {
      "inputs": [],
      "name": "entryFee",
      "outputs": [
        {
          "internalType": "uint256",
          "name": "",
          "type": "uint256"
        }
      ],
      "stateMutability": "view",
      "type": "function"
    },
    {
      "inputs": [],
      "name": "factory",
      "outputs": [
        {
          "internalType": "address",
          "name": "",
          "type": "address"
        }
      ],
      "stateMutability": "view",
      "type": "function"
    },
    {
      "inputs": [],
      "name": "gameName",
      "outputs": [
        {
          "internalType": "string",
          "name": "",
          "type": "string"
        }
      ],
      "stateMutability": "view",
      "type": "function"
    },
    {
      "inputs": [
        {
          "internalType": "address",
          "name": "",
          "type": "address"
        }
      ],
      "name": "hasClaimed",
      "outputs": [
        {
          "internalType": "bool",
          "name": "",
          "type": "bool"
        }
      ],
      "stateMutability": "view",
      "type": "function"
    },
    {
      "inputs": [
        {
          "internalType": "address",
          "name": "",
          "type": "address"
        }
      ],
      "name": "hasJoined",
      "outputs": [
        {
          "internalType": "bool",
          "name": "",
          "type": "bool"
        }
      ],
      "stateMutability": "view",
      "type": "function"
    },
    {
      "inputs": [
        {
          "internalType": "address",
          "name": "",
          "type": "address"
        }
      ],
      "name": "hasPrizeClaimed",
      "outputs": [
        {
          "internalType": "bool",
          "name": "",
          "type": "bool"
        }
      ],
      "stateMutability": "view",
      "type": "function"
    },
    {
      "inputs": [],
      "name": "isCancelled",
      "outputs": [
        {
          "internalType": "bool",
          "name": "",
          "type": "bool"
        }
      ],
      "stateMutability": "view",
      "type": "function"
    },
    {
      "inputs": [],
      "name": "isFinished",
      "outputs": [
        {
          "internalType": "bool",
          "name": "",
          "type": "bool"
        }
      ],
      "stateMutability": "view",
      "type": "function"
    },
    {
      "inputs": [],
      "name": "joinGame",
      "outputs": [],
      "stateMutability": "payable",
      "type": "function"
    },
    {
      "inputs": [],
      "name": "lastActionTime",
      "outputs": [
        {
          "internalType": "uint256",
          "name": "",
          "type": "uint256"
        }
      ],
      "stateMutability": "view",
      "type": "function"
    },
    {
      "inputs": [],
      "name": "passingScore",
      "outputs": [
        {
          "internalType": "uint256",
          "name": "",
          "type": "uint256"
        }
      ],
      "stateMutability": "view",
      "type": "function"
    },
    {
      "inputs": [
        {
          "internalType": "uint256",
          "name": "",
          "type": "uint256"
        }
      ],
      "name": "prizePerPlayerAtRank",
      "outputs": [
        {
          "internalType": "uint256",
          "name": "",
          "type": "uint256"
        }
      ],
      "stateMutability": "view",
      "type": "function"
    },
    {
      "inputs": [],
      "name": "prizePool",
      "outputs": [
        {
          "internalType": "uint256",
          "name": "",
          "type": "uint256"
        }
      ],
      "stateMutability": "view",
      "type": "function"
    },
    {
      "inputs": [],
      "name": "prizesCalculated",
      "outputs": [
        {
          "internalType": "bool",
          "name": "",
          "type": "bool"
        }
      ],
      "stateMutability": "view",
      "type": "function"
    },
    {
      "inputs": [],
      "name": "professor",
      "outputs": [
        {
          "internalType": "address",
          "name": "",
          "type": "address"
        }
      ],
      "stateMutability": "view",
      "type": "function"
    },
    {
      "inputs": [],
      "name": "professorPrize",
      "outputs": [
        {
          "internalType": "uint256",
          "name": "",
          "type": "uint256"
        }
      ],
      "stateMutability": "view",
      "type": "function"
    },
    {
      "inputs": [],
      "name": "professorPrizeClaimed",
      "outputs": [
        {
          "internalType": "bool",
          "name": "",
          "type": "bool"
        }
      ],
      "stateMutability": "view",
      "type": "function"
    },
    {
      "inputs": [],
      "name": "questionsMerkleRoot",
      "outputs": [
        {
          "internalType": "bytes32",
          "name": "",
          "type": "bytes32"
        }
      ],
      "stateMutability": "view",
      "type": "function"
    },
    {
      "inputs": [
        {
          "internalType": "uint256",
          "name": "_questionId",
          "type": "uint256"
        },
        {
          "internalType": "uint8",
          "name": "_option",
          "type": "uint8"
        },
        {
          "internalType": "string",
          "name": "_salt",
          "type": "string"
        }
      ],
      "name": "revealAnswer",
      "outputs": [],
      "stateMutability": "nonpayable",
      "type": "function"
    },
    {
      "inputs": [
        {
          "internalType": "uint256",
          "name": "",
          "type": "uint256"
        }
      ],
      "name": "revealedAnswers",
      "outputs": [
        {
          "internalType": "uint8",
          "name": "",
          "type": "uint8"
        }
      ],
      "stateMutability": "view",
      "type": "function"
    },
    {
      "inputs": [
        {
          "internalType": "uint256",
          "name": "",
          "type": "uint256"
        }
      ],
      "name": "rondas",
      "outputs": [
        {
          "internalType": "bytes32",
          "name": "hashRespuestaCorrecta",
          "type": "bytes32"
        },
        {
          "internalType": "bool",
          "name": "commitPhaseOpen",
          "type": "bool"
        },
        {
          "internalType": "bool",
          "name": "revealPhaseOpen",
          "type": "bool"
        }
      ],
      "stateMutability": "view",
      "type": "function"
    },
    {
      "inputs": [
        {
          "internalType": "uint256",
          "name": "",
          "type": "uint256"
        }
      ],
      "name": "scoreFrequency",
      "outputs": [
        {
          "internalType": "uint256",
          "name": "",
          "type": "uint256"
        }
      ],
      "stateMutability": "view",
      "type": "function"
    },
    {
      "inputs": [
        {
          "internalType": "address",
          "name": "",
          "type": "address"
        }
      ],
      "name": "scores",
      "outputs": [
        {
          "internalType": "uint256",
          "name": "",
          "type": "uint256"
        }
      ],
      "stateMutability": "view",
      "type": "function"
    },
    {
      "inputs": [
        {
          "internalType": "bytes32",
          "name": "_questionHash",
          "type": "bytes32"
        },
        {
          "internalType": "bytes32",
          "name": "_correctAnswerHash",
          "type": "bytes32"
        },
        {
          "internalType": "bytes32[]",
          "name": "_merkleProof",
          "type": "bytes32[]"
        },
        {
          "internalType": "string",
          "name": "_enunciado",
          "type": "string"
        },
        {
          "internalType": "string[4]",
          "name": "_opciones",
          "type": "string[4]"
        },
        {
          "internalType": "string",
          "name": "_saltPregunta",
          "type": "string"
        }
      ],
      "name": "startNextQuestion",
      "outputs": [],
      "stateMutability": "nonpayable",
      "type": "function"
    },
    {
      "inputs": [
        {
          "internalType": "uint256",
          "name": "",
          "type": "uint256"
        }
      ],
      "name": "topScoreCounts",
      "outputs": [
        {
          "internalType": "uint256",
          "name": "",
          "type": "uint256"
        }
      ],
      "stateMutability": "view",
      "type": "function"
    },
    {
      "inputs": [
        {
          "internalType": "uint256",
          "name": "",
          "type": "uint256"
        }
      ],
      "name": "topScoreValues",
      "outputs": [
        {
          "internalType": "uint256",
          "name": "",
          "type": "uint256"
        }
      ],
      "stateMutability": "view",
      "type": "function"
    },
    {
      "inputs": [],
      "name": "totalQuestions",
      "outputs": [
        {
          "internalType": "uint256",
          "name": "",
          "type": "uint256"
        }
      ],
      "stateMutability": "view",
      "type": "function"
    }
  ],
  "bytecode": "0x608060405234801561000f575f5ffd5b5060405161480338038061480383398101604081905261002e916102b2565b60017f9b779b17422d0df92223018b32b4d1fa46e071723d6817e2486d003becc55f0055836100a45760405162461bcd60e51b815260206004820152601460248201527f446562652074656e65722070726567756e74617300000000000000000000000060448201526064015b60405180910390fd5b5f85116100e65760405162461bcd60e51b815260206004820152601060248201526f50756e74616a6520696e76616c69646f60801b604482015260640161009b565b838511156101365760405162461bcd60e51b815260206004820152601660248201527f50756e74616a65206d61796f7220616c20746f74616c00000000000000000000604482015260640161009b565b5f80546001600160a01b03808b166001600160a01b03199283161790925560018054928a1692909116919091179055600261017187826103e1565b5060048590556005849055600e819055600982905560405130908490610196906101ed565b6101a192919061049b565b604051809103905ff0801580156101ba573d5f5f3e3d5ffd5b50600380546001600160a01b0319166001600160a01b0392909216919091179055505042601f55506104df945050505050565b6112848061357f83390190565b80516001600160a01b0381168114610210575f5ffd5b919050565b634e487b7160e01b5f52604160045260245ffd5b5f82601f830112610238575f5ffd5b81516001600160401b0381111561025157610251610215565b604051601f8201601f19908116603f011681016001600160401b038111828210171561027f5761027f610215565b604052818152838201602001851015610296575f5ffd5b8160208501602083015e5f918101602001919091529392505050565b5f5f5f5f5f5f5f5f610100898b0312156102ca575f5ffd5b6102d3896101fa565b97506102e160208a016101fa565b60408a01519097506001600160401b038111156102fc575f5ffd5b6103088b828c01610229565b60608b015160808c015160a08d0151929950909750955090506001600160401b03811115610334575f5ffd5b6103408b828c01610229565b60c08b015160e0909b0151999c989b509699959894979350505050565b600181811c9082168061037157607f821691505b60208210810361038f57634e487b7160e01b5f52602260045260245ffd5b50919050565b601f8211156103dc57805f5260205f20601f840160051c810160208510156103ba5750805b601f840160051c820191505b818110156103d9575f81556001016103c6565b50505b505050565b81516001600160401b038111156103fa576103fa610215565b61040e81610408845461035d565b84610395565b6020601f821160018114610440575f83156104295750848201515b5f19600385901b1c1916600184901b1784556103d9565b5f84815260208120601f198516915b8281101561046f578785015182556020948501946001909201910161044f565b508482101561048c57868401515f19600387901b60f8161c191681555b50505050600190811b01905550565b60018060a01b0383168152604060208201525f82518060408401528060208501606085015e5f606082850101526060601f19601f8301168401019150509392505050565b613093806104ec5f395ff3fe608060405260043610610233575f3560e01c806370740ac91161012957806395ee1221116100a8578063c45a01551161006d578063c45a0155146106ce578063d4f77b1c146106ec578063e3ccbd13146106f4578063e91ac3bf14610713578063ef6eedc114610727575f5ffd5b806395ee122114610637578063b5545a3c14610650578063bdf22ab414610664578063bea5b91414610679578063c1661db11461068e575f5ffd5b80637b352962116100ee5780637b352962146105915780637c7dd8ba146105aa578063877f4e12146105bf578063885d68a8146105ed5780638e7e9a3c14610623575f5ffd5b806370740ac9146104f0578063719ce73e1461050457806373b2e80e1461051957806376dd110f146105475780637a82513a14610572575f5ffd5b806333881c8a116101b55780635113940d1161017a5780635113940d14610430578063565b79951461044f5780635d132b91146104685780635e2ac28d1461047c57806366eb597a146104d7575f5ffd5b806333881c8a1461039157806333a3b9e2146103a6578063381e47cd146103c5578063473bc223146103e45780634f26323314610405575f5ffd5b806313801538116101fb57806313801538146102e157806315da65a51461031f57806316ce16a9146103345780631a5e0f371461035357806324f1ce4e14610372575f5ffd5b806301fcd6ed14610237578063072ea61c14610258578063085f0316146102805780630e3c5ccb14610295578063116380e3146102aa575b5f5ffd5b348015610242575f5ffd5b506102566102513660046127c6565b610746565b005b348015610263575f5ffd5b5061026d600e5481565b6040519081526020015b60405180910390f35b34801561028b575f5ffd5b5061026d601f5481565b3480156102a0575f5ffd5b5061026d601c5481565b3480156102b5575f5ffd5b506003546102c9906001600160a01b031681565b6040516001600160a01b039091168152602001610277565b3480156102ec575f5ffd5b5061030f6102fb3660046128ba565b601d6020525f908152604090205460ff1681565b6040519015158152602001610277565b34801561032a575f5ffd5b5061026d60065481565b34801561033f575f5ffd5b5061025661034e3660046128e3565b610ad7565b34801561035e575f5ffd5b5061025661036d366004612a04565b610f2b565b34801561037d575f5ffd5b5061025661038c366004612a1b565b61106f565b34801561039c575f5ffd5b5061026d60095481565b3480156103b1575f5ffd5b506102566103c0366004612a7d565b611210565b3480156103d0575f5ffd5b5061026d6103df366004612a04565b611417565b3480156103ef575f5ffd5b506103f861142d565b6040516102779190612b46565b348015610410575f5ffd5b5061026d61041f366004612a04565b60116020525f908152604090205481565b34801561043b575f5ffd5b506001546102c9906001600160a01b031681565b34801561045a575f5ffd5b5060125461030f9060ff1681565b348015610473575f5ffd5b506102566114b9565b348015610487575f5ffd5b506104ba610496366004612a04565b600a6020525f90815260409020805460019091015460ff8082169161010090041683565b604080519384529115156020840152151590820152606001610277565b3480156104e2575f5ffd5b50601e5461030f9060ff1681565b3480156104fb575f5ffd5b506102566115cb565b34801561050f575f5ffd5b5061026d600f5481565b348015610524575f5ffd5b5061030f6105333660046128ba565b600d6020525f908152604090205460ff1681565b348015610552575f5ffd5b5061026d6105613660046128ba565b600c6020525f908152604090205481565b34801561057d575f5ffd5b5061025661058c366004612b7b565b611990565b34801561059c575f5ffd5b5060085461030f9060ff1681565b3480156105b5575f5ffd5b5061026d61a8c081565b3480156105ca575f5ffd5b5061030f6105d93660046128ba565b60106020525f908152604090205460ff1681565b3480156105f8575f5ffd5b5061026d610607366004612c17565b600b60209081525f928352604080842090915290825290205481565b34801561062e575f5ffd5b50610256611c78565b348015610642575f5ffd5b5060205461030f9060ff1681565b34801561065b575f5ffd5b50610256611f92565b34801561066f575f5ffd5b5061026d60045481565b348015610684575f5ffd5b5061026d60055481565b348015610699575f5ffd5b506106bc6106a8366004612a04565b60076020525f908152604090205460ff1681565b60405160ff9091168152602001610277565b3480156106d9575f5ffd5b505f546102c9906001600160a01b031681565b610256612294565b3480156106ff575f5ffd5b5061026d61070e366004612a04565b612498565b34801561071e575f5ffd5b506102566124a7565b348015610732575f5ffd5b5061026d610741366004612a04565b612651565b6001546001600160a01b031633146107795760405162461bcd60e51b815260040161077090612c41565b60405180910390fd5b60205460ff161561079c5760405162461bcd60e51b815260040161077090612c82565b60085460ff16156107e25760405162461bcd60e51b815260206004820152601060248201526f456c206a7565676f207465726d696e6f60801b6044820152606401610770565b600654801561088e57600a5f6107f9600184612cdc565b815260208101919091526040015f206001015460ff161580156108425750600a5f610825600184612cdc565b815260208101919091526040015f2060010154610100900460ff16155b61088e5760405162461bcd60e51b815260206004820152601760248201527f48617920756e612070726567756e7461206163746976610000000000000000006044820152606401610770565b60055481106108d65760405162461bcd60e51b81526020600482015260146024820152734e6f20686179206d61732070726567756e74617360601b6044820152606401610770565b8986866108e38780612d03565b6108f060208a018a612d03565b6108fd60408c018c612d03565b61090a60608e018e612d03565b8d8d6040516020016109279c9b9a99989796959493929190612d45565b604051602081830303815290604052805190602001201461098a5760405162461bcd60e51b815260206004820152601e60248201527f456c20746578746f206d6f646966696361646f206f20696e76616c69646f00006044820152606401610770565b60408051602081018390529081018b9052606081018a90525f906080016040516020818303038152906040528051906020012090506109ff8989808060200260200160405190810160405280939291908181526020018383602002808284375f92019190915250506009549150849050612660565b610a435760405162461bcd60e51b81526020600482015260156024820152744d65726b6c652070726f6f6620696e76616c69646f60581b6044820152606401610770565b5f828152600a60205260408082208c81556001908101805460ff1916909117905542601f555183917fe1925ed1b18a09ca8c0798ae918409f2db5036dfd27b61f1f433d17fc68b9ab491a2817f396da80a66a431ebe4395ffecf7669105c6f1c07c69a99c25835e1b77d840dad888888604051610ac293929190612dc0565b60405180910390a25050505050505050505050565b6001546001600160a01b03163314610b015760405162461bcd60e51b815260040161077090612c41565b60205460ff1615610b245760405162461bcd60e51b815260040161077090612c82565b6006545f818152600a602052604090206001015460ff16610b835760405162461bcd60e51b8152602060048201526019602482015278139bc8195cdd1848195b8819985cd94819194818dbdb5b5a5d603a1b6044820152606401610770565b5f8d8d8d33604051602001610b9b9493929190612e64565b60408051601f1981840301815291815281516020928301205f858152600a9093529120549091508114610c105760405162461bcd60e51b815260206004820152601c60248201527f486173682064652072657370756573746120696e636f72726563746f000000006044820152606401610770565b8d60075f8481526020019081526020015f205f6101000a81548160ff021916908360ff1602179055505f600a5f8481526020019081526020015f206001015f6101000a81548160ff0219169083151502179055505f600a5f8481526020019081526020015f2060010160016101000a81548160ff021916908315150217905550817f9f48cac694ad868cba9c30d5ff1dfdeb034062b2d87eb6d32e5318392faeb08f60405160405180910390a2600160065f828254610ccf9190612ea7565b90915550506006546005548110610d1f5760405162461bcd60e51b81526020600482015260146024820152734e6f20686179206d61732070726567756e74617360601b6044820152606401610770565b8b8888610d2c8980612d03565b610d3960208c018c612d03565b610d4660408e018e612d03565b8e6003602002810190610d599190612d03565b8f8f604051602001610d769c9b9a99989796959493929190612d45565b6040516020818303038152906040528051906020012014610dd95760405162461bcd60e51b815260206004820152601e60248201527f456c20746578746f206d6f646966696361646f206f20696e76616c69646f00006044820152606401610770565b60408051602081018390529081018d9052606081018c90525f90608001604051602081830303815290604052805190602001209050610e4e8b8b808060200260200160405190810160405280939291908181526020018383602002808284375f92019190915250506009549150849050612660565b610e925760405162461bcd60e51b81526020600482015260156024820152744d65726b6c652070726f6f6620696e76616c69646f60581b6044820152606401610770565b5f828152600a60205260408082208e81556001908101805460ff1916909117905542601f555183917fe1925ed1b18a09ca8c0798ae918409f2db5036dfd27b61f1f433d17fc68b9ab491a2817f396da80a66a431ebe4395ffecf7669105c6f1c07c69a99c25835e1b77d840dad8a8a8a604051610f1193929190612dc0565b60405180910390a250505050505050505050505050505050565b335f9081526010602052604090205460ff16610f595760405162461bcd60e51b815260040161077090612eba565b6006545f818152600a602052604090206001015460ff16610fb55760405162461bcd60e51b81526020600482015260166024820152754661736520646520636f6d6d6974206365727261646160501b6044820152606401610770565b81610fee5760405162461bcd60e51b815260206004820152600960248201526848617368206e756c6f60b81b6044820152606401610770565b5f818152600b60209081526040808320338452909152902054156110545760405162461bcd60e51b815260206004820152601c60248201527f596120726573706f6e646973746520657374612070726567756e7461000000006044820152606401610770565b5f908152600b60209081526040808320338452909152902055565b6001546001600160a01b031633146110995760405162461bcd60e51b815260040161077090612c41565b60205460ff16156110bc5760405162461bcd60e51b815260040161077090612c82565b6006545f818152600a602052604090206001015460ff1661111b5760405162461bcd60e51b8152602060048201526019602482015278139bc8195cdd1848195b8819985cd94819194818dbdb5b5a5d603a1b6044820152606401610770565b5f848484336040516020016111339493929190612e64565b60408051601f1981840301815291815281516020928301205f858152600a90935291205490915081146111a85760405162461bcd60e51b815260206004820152601c60248201527f486173682064652072657370756573746120696e636f72726563746f000000006044820152606401610770565b5f828152600760209081526040808320805460ff8a1660ff19909116179055600a909152808220600101805461ffff191661010017905542601f555183917f9f48cac694ad868cba9c30d5ff1dfdeb034062b2d87eb6d32e5318392faeb08f91a25050505050565b335f9081526010602052604090205460ff1661123e5760405162461bcd60e51b815260040161077090612eba565b5f838152600a6020526040902060010154610100900460ff1661129c5760405162461bcd60e51b8152602060048201526016602482015275466173652064652072657665616c206365727261646160501b6044820152606401610770565b5f838152600b602090815260408083203384529091529020548061130d5760405162461bcd60e51b815260206004820152602260248201527f4e6f206869636973746520636f6d6d697420656e20657374612070726567756e604482015261746160f01b6064820152608401610770565b5f83833360405160200161132393929190612efd565b60405160208183030381529060405280519060200120905081811461135a5760405162461bcd60e51b815260040161077090612f42565b5f858152600b602090815260408083203384528252808320839055878352600790915290205460ff9081169085160361141057335f908152600c602090815260408083205480845260119092528220805491926001926113bb908490612cdc565b909155506113cc9050816001612ea7565b335f908152600c60205260408120919091556001906011906113ee8484612ea7565b81526020019081526020015f205f8282546114099190612ea7565b9091555050505b5050505050565b60198160038110611426575f80fd5b0154905081565b6002805461143a90612f83565b80601f016020809104026020016040519081016040528092919081815260200182805461146690612f83565b80156114b15780601f10611488576101008083540402835291602001916114b1565b820191905f5260205f20905b81548152906001019060200180831161149457829003601f168201915b505050505081565b6001546001600160a01b031633146114e35760405162461bcd60e51b815260040161077090612c41565b60205460ff16156115065760405162461bcd60e51b815260040161077090612c82565b6006545f818152600a6020526040902060010154610100900460ff166115785760405162461bcd60e51b815260206004820152602160248201527f5072696d65726f2068617920717565206162726972206c6f732072657665616c6044820152607360f81b6064820152608401610770565b5f818152600a602052604081206001908101805461ff001916905560068054919290916115a6908490612ea7565b909155505042601f55600554600654036115c8576008805460ff191660011790555b50565b6115d3612675565b60125460ff166116385760405162461bcd60e51b815260206004820152602a60248201527f5072696d65726f2073652064656265206c6c616d617220612063616c63756c6160448201526974655072697a6573282960b01b6064820152608401610770565b6001545f906001600160a01b0316330361170657601e5460ff161561169f5760405162461bcd60e51b815260206004820152601f60248201527f456c2070726f6665736f722079612072657469726f207375207072656d696f006044820152606401610770565b5f601c54116116f05760405162461bcd60e51b815260206004820152601e60248201527f4e6f20686179207072656d696f207061726120656c2070726f6665736f7200006044820152606401610770565b50601e805460ff19166001179055601c546118ac565b335f9081526010602052604090205460ff166117645760405162461bcd60e51b815260206004820152601d60248201527f4e6f2070617274696369706173746520656e2065737465206a7565676f0000006044820152606401610770565b335f908152601d602052604090205460ff16156117bc5760405162461bcd60e51b8152602060048201526016602482015275596120726574697261737465207475207072656d696f60501b6044820152606401610770565b335f908152600c6020526040812054905b60038160ff161015611841575f60168260ff16600381106117f0576117f0612cef565b0154118015611815575060138160ff166003811061181057611810612cef565b015482145b156118395760198160ff166003811061183057611830612cef565b01549250611841565b6001016117cd565b505f82116118915760405162461bcd60e51b815260206004820152601e60248201527f54752070756e74616a65206e6f206573746120656e20656c20746f70203300006044820152606401610770565b50335f908152601d60205260409020805460ff191660011790555b6040515f90339083908381818185875af1925050503d805f81146118eb576040519150601f19603f3d011682016040523d82523d5f602084013e6118f0565b606091505b50509050806119415760405162461bcd60e51b815260206004820152601d60248201527f4c61207472616e73666572656e636961206465204554482066616c6c6f0000006044820152606401610770565b60405182815233907f95681e512bc0fe659e195e06c283eada494316f3d801213e48e7101af92bf7709060200160405180910390a2505061198e60015f51602061303e5f395f51905f5255565b565b335f9081526010602052604090205460ff166119be5760405162461bcd60e51b815260040161077090612eba565b84831480156119cc57508281145b611a0d5760405162461bcd60e51b81526020600482015260126024820152714d69736d617463686564206c656e6774687360701b6044820152606401610770565b5f5b85811015611c6f575f878783818110611a2a57611a2a612cef565b905060200201359050600a5f8281526020019081526020015f2060010160019054906101000a900460ff1680611a61575060065481105b80611a6e575060085460ff165b611acc5760405162461bcd60e51b815260206004820152602960248201527f466173652064652072657665616c2063657272616461206f206e6f20657320656044820152686c206d6f6d656e746f60b81b6064820152608401610770565b5f818152600b6020908152604080832033845290915290205480611af1575050611c67565b5f878785818110611b0457611b04612cef565b9050602002016020810190611b199190612fbb565b868686818110611b2b57611b2b612cef565b9050602002810190611b3d9190612d03565b33604051602001611b519493929190612e64565b604051602081830303815290604052805190602001209050818114611b885760405162461bcd60e51b815260040161077090612f42565b5f838152600b602090815260408083203384528252808320839055858352600790915290205460ff16888886818110611bc357611bc3612cef565b9050602002016020810190611bd89190612fbb565b60ff1603611c6357335f908152600c60209081526040808320548084526011909252822080549192600192611c0e908490612cdc565b90915550611c1f9050816001612ea7565b335f908152600c6020526040812091909155600190601190611c418484612ea7565b81526020019081526020015f205f828254611c5c9190612ea7565b9091555050505b5050505b600101611a0f565b50505050505050565b60085460ff16611cc55760405162461bcd60e51b8152602060048201526018602482015277456c206a7565676f206e6f206861207465726d696e61646f60401b6044820152606401610770565b60125460ff1615611d185760405162461bcd60e51b815260206004820181905260248201527f4c6f73207072656d696f7320796120667565726f6e2063616c63756c61646f736044820152606401610770565b6012805460ff19166001179055600f545f90606490611d3890603c612fd4565b611d429190612feb565b90505f6064600f546014611d569190612fd4565b611d609190612feb565b90505f6064600f54600a611d749190612fd4565b611d7e9190612feb565b6005549091505f90819081905b6003841015611ef7575f818152601160205260409020548015611ed7575f611db4866001612ea7565b90505f611dc18388612ea7565b90505f60018311801590611dd6575060018210155b15611de857611de58b82612ea7565b90505b60028311158015611dfa575060028210155b15611e0c57611e098a82612ea7565b90505b60038311158015611e1e575060038210155b15611e3057611e2d8982612ea7565b90505b8015611ec7578460138860ff1660038110611e4d57611e4d612cef565b015583601660ff891660038110611e6657611e66612cef565b0155611e728482612feb565b60198860ff1660038110611e8857611e88612cef565b015583601960ff891660038110611ea157611ea1612cef565b0154611ead9190612fd4565b611eb79087612ea7565b955086611ec38161300a565b9750505b611ed18489612ea7565b97505050505b815f03611ee45750611ef7565b81611eee81613028565b92505050611d8b565b5080600f54611f069190612cdc565b601c557f3a15c38dc3a696664486bb89549cadff81d8efcdfd8baa3151f55f445d4ac46e600160ff84161015611f3c575f611f40565b6013545b60028460ff161015611f52575f611f56565b6014545b60038560ff161015611f68575f611f6c565b6015545b6040805193845260208401929092529082015260600160405180910390a1505050505050565b611f9a612675565b335f9081526010602052604090205460ff16611ff85760405162461bcd60e51b815260206004820152601d60248201527f4e6f2070617274696369706173746520656e2065737465206a7565676f0000006044820152606401610770565b335f908152601d602052604090205460ff16156120625760405162461bcd60e51b815260206004820152602260248201527f59612072657469726173746520756e207072656d696f206f207265656d626f6c604482015261736f60f01b6064820152608401610770565b61a8c0601f546120729190612ea7565b4210156120d15760405162461bcd60e51b815260206004820152602760248201527f456c2074696d656f757420646520696e6163746976696461642061756e206e6f6044820152662076656e63696f60c81b6064820152608401610770565b60085460ff16156121325760405162461bcd60e51b815260206004820152602560248201527f456c206a7565676f207961207465726d696e6f3b2075736120636c61696d5072604482015264697a65282960d81b6064820152608401610770565b335f908152601d60205260408120805460ff19166001179055600e54600f805491929091612161908490612cdc565b909155505060205460ff166121af576020805460ff191660011781556040514281527f0eba9245670e53c48b16c055d88729ddb0dd01afe009fbcad1d4de13a0b9777a910160405180910390a15b600e546040515f9133918381818185875af1925050503d805f81146121ef576040519150601f19603f3d011682016040523d82523d5f602084013e6121f4565b606091505b50509050806122455760405162461bcd60e51b815260206004820152601d60248201527f4c61207472616e73666572656e636961206465204554482066616c6c6f0000006044820152606401610770565b600e5460405190815233907f358fe4192934d3bf28ae181feda1f4bd08ca67f5e2fad55582cce5eb67304ae99060200160405180910390a25061198e60015f51602061303e5f395f51905f5255565b60205460ff16156122b75760405162461bcd60e51b815260040161077090612c82565b6006541580156122f157505f8052600a6020527f13da86008ba1c6922daee3e07db95305ef49ebced9f5467a0b8613fcc6b343e45460ff16155b61233d5760405162461bcd60e51b815260206004820181905260248201527f456c206a7565676f20796120636f6d656e7a6f206f207961207465726d696e6f6044820152606401610770565b335f9081526010602052604090205460ff16156123945760405162461bcd60e51b8152602060048201526015602482015274596120746520756e6973746520616c206a7565676f60581b6044820152606401610770565b600e5434146123f15760405162461bcd60e51b8152602060048201526024808201527f446562657320656e76696172206578616374616d656e746520656c20656e74726044820152637946656560e01b6064820152608401610770565b335f908152601060205260408120805460ff19166001179055600f805434929061241c908490612ea7565b90915550505f80805260116020527f4ad3b33220dddc71b994a52d72c06b10862965f7d926534c05c00fb7e819e7b780546001929061245c908490612ea7565b909155505060405134815233907f3330a6773675f31f62070870f40379f8c6d42e3761410011a4dfc42b18043d2f9060200160405180910390a2565b60138160038110611426575f80fd5b60085460ff166124f45760405162461bcd60e51b8152602060048201526018602482015277456c206a7565676f206e6f206861207465726d696e61646f60401b6044820152606401610770565b335f908152600d602052604090205460ff16156125535760405162461bcd60e51b815260206004820152601860248201527f5961207265636c616d61737465207475206469706c6f6d6100000000000000006044820152606401610770565b600454335f908152600c602052604090205410156125b35760405162461bcd60e51b815260206004820152601d60248201527f4e6f20616c63616e7a617320656c2070756e74616a65206d696e696d6f0000006044820152606401610770565b335f818152600d602052604090819020805460ff19166001179055600354905163af05ad1160e01b815260048101929092526001600160a01b03169063af05ad11906024015f604051808303815f87803b15801561260f575f5ffd5b505af1158015612621573d5f5f3e3d5ffd5b50506040513392507f7eb95b23bdc14656738c72aeadbb1777cdb36ea43c622ddeb9b2c871935fb36e91505f90a2565b60168160038110611426575f80fd5b5f8261266c8584612690565b14949350505050565b61267d6126d4565b60025f51602061303e5f395f51905f5255565b5f81815b84518110156126ca576126c0828683815181106126b3576126b3612cef565b6020026020010151612703565b9150600101612694565b5090505b92915050565b5f51602061303e5f395f51905f525460020361198e57604051633ee5aeb560e01b815260040160405180910390fd5b5f81831061271d575f82815260208490526040902061272b565b5f8381526020839052604090205b9392505050565b5f5f83601f840112612742575f5ffd5b5081356001600160401b03811115612758575f5ffd5b6020830191508360208260051b8501011115612772575f5ffd5b9250929050565b5f5f83601f840112612789575f5ffd5b5081356001600160401b0381111561279f575f5ffd5b602083019150836020828501011115612772575f5ffd5b80608081018310156126ce575f5ffd5b5f5f5f5f5f5f5f5f5f60c08a8c0312156127de575f5ffd5b8935985060208a0135975060408a01356001600160401b03811115612801575f5ffd5b61280d8c828d01612732565b90985096505060608a01356001600160401b0381111561282b575f5ffd5b6128378c828d01612779565b90965094505060808a01356001600160401b03811115612855575f5ffd5b6128618c828d016127b6565b93505060a08a01356001600160401b0381111561287c575f5ffd5b6128888c828d01612779565b915080935050809150509295985092959850929598565b80356001600160a01b03811681146128b5575f5ffd5b919050565b5f602082840312156128ca575f5ffd5b61272b8261289f565b803560ff811681146128b5575f5ffd5b5f5f5f5f5f5f5f5f5f5f5f5f6101008d8f0312156128ff575f5ffd5b6129088d6128d3565b9b506001600160401b0360208e01351115612921575f5ffd5b6129318e60208f01358f01612779565b909b50995060408d0135985060608d013597506001600160401b0360808e0135111561295b575f5ffd5b61296b8e60808f01358f01612732565b90975095506001600160401b0360a08e01351115612987575f5ffd5b6129978e60a08f01358f01612779565b90955093506001600160401b0360c08e013511156129b3575f5ffd5b6129c38e60c08f01358f016127b6565b92506001600160401b0360e08e013511156129dc575f5ffd5b6129ec8e60e08f01358f01612779565b81935080925050509295989b509295989b509295989b565b5f60208284031215612a14575f5ffd5b5035919050565b5f5f5f60408486031215612a2d575f5ffd5b612a36846128d3565b925060208401356001600160401b03811115612a50575f5ffd5b612a5c86828701612779565b9497909650939450505050565b634e487b7160e01b5f52604160045260245ffd5b5f5f5f60608486031215612a8f575f5ffd5b83359250612a9f602085016128d3565b915060408401356001600160401b03811115612ab9575f5ffd5b8401601f81018613612ac9575f5ffd5b80356001600160401b03811115612ae257612ae2612a69565b604051601f8201601f19908116603f011681016001600160401b0381118282101715612b1057612b10612a69565b604052818152828201602001881015612b27575f5ffd5b816020840160208301375f602083830101528093505050509250925092565b602081525f82518060208401528060208501604085015e5f604082850101526040601f19601f83011684010191505092915050565b5f5f5f5f5f5f60608789031215612b90575f5ffd5b86356001600160401b03811115612ba5575f5ffd5b612bb189828a01612732565b90975095505060208701356001600160401b03811115612bcf575f5ffd5b612bdb89828a01612732565b90955093505060408701356001600160401b03811115612bf9575f5ffd5b612c0589828a01612732565b979a9699509497509295939492505050565b5f5f60408385031215612c28575f5ffd5b82359150612c386020840161289f565b90509250929050565b60208082526021908201527f536f6c6f20656c2070726f666520707565646520656a656375746172206573746040820152606f60f81b606082015260800190565b60208082526026908201527f456c206a7565676f206675652063616e63656c61646f20706f7220696e6163746040820152651a5d9a59185960d21b606082015260800190565b634e487b7160e01b5f52601160045260245ffd5b818103818111156126ce576126ce612cc8565b634e487b7160e01b5f52603260045260245ffd5b5f5f8335601e19843603018112612d18575f5ffd5b8301803591506001600160401b03821115612d31575f5ffd5b602001915036819003821315612772575f5ffd5b8b8d82375f8c82015f81528b8d82375f908c01908152898b82375f908a01908152878982375f908801908152858782375f908601908152838582375f930192835250909c9b505050505050505050505050565b81835281816020850137505f828201602090810191909152601f909101601f19169091010190565b604081525f612dd3604083018587612d98565b82810360208401528060808101855f36829003601e19015b6004821015612e555785840385528235818112612e06575f5ffd5b89016020810190356001600160401b03811115612e21575f5ffd5b803603821315612e2f575f5ffd5b612e3a868284612d98565b95505050602083019250602085019450600182019150612deb565b50919998505050505050505050565b60f885901b6001600160f81b03191681528284600183013760609190911b6bffffffffffffffffffffffff19166001919092019081019190915260150192915050565b808201808211156126ce576126ce612cc8565b60208082526023908201527f446562657320756e69727465207072696d65726f20636f6e206a6f696e47616d60408201526265282960e81b606082015260800190565b60ff60f81b8460f81b1681525f83518060208601600185015e60609390931b6bffffffffffffffffffffffff1916600192909301918201929092526015019392505050565b60208082526021908201527f456c2068617368206e6f20636f696e6369646520636f6e20747520636f6d6d696040820152601d60fa1b606082015260800190565b600181811c90821680612f9757607f821691505b602082108103612fb557634e487b7160e01b5f52602260045260245ffd5b50919050565b5f60208284031215612fcb575f5ffd5b61272b826128d3565b80820281158282048414176126ce576126ce612cc8565b5f8261300557634e487b7160e01b5f52601260045260245ffd5b500490565b5f60ff821660ff810361301f5761301f612cc8565b60010192915050565b5f8161303657613036612cc8565b505f19019056fe9b779b17422d0df92223018b32b4d1fa46e071723d6817e2486d003becc55f00a26469706673582212208a34d3e3f9c16f2ab692dbba3600cc37ad7b61d9b3ece844500507116487fd5964736f6c634300081c003360a060405234801561000f575f5ffd5b5060405161128438038061128483398101604081905261002e916100fa565b6040518060400160405280601381526020017f4b61686f6f742057656233204469706c6f6d61000000000000000000000000008152506040518060400160405280600381526020016212d5d160ea1b815250815f908161008e919061024d565b50600161009b828261024d565b5050506001600160a01b0382166100c55760405163e6c4247b60e01b815260040160405180910390fd5b6001600160a01b03821660805260076100de828261024d565b505050610307565b634e487b7160e01b5f52604160045260245ffd5b5f5f6040838503121561010b575f5ffd5b82516001600160a01b0381168114610121575f5ffd5b60208401519092506001600160401b0381111561013c575f5ffd5b8301601f8101851361014c575f5ffd5b80516001600160401b03811115610165576101656100e6565b604051601f8201601f19908116603f011681016001600160401b0381118282101715610193576101936100e6565b6040528181528282016020018710156101aa575f5ffd5b8160208401602083015e5f602083830101528093505050509250929050565b600181811c908216806101dd57607f821691505b6020821081036101fb57634e487b7160e01b5f52602260045260245ffd5b50919050565b601f82111561024857805f5260205f20601f840160051c810160208510156102265750805b601f840160051c820191505b81811015610245575f8155600101610232565b50505b505050565b81516001600160401b03811115610266576102666100e6565b61027a8161027484546101c9565b84610201565b6020601f8211600181146102ac575f83156102955750848201515b5f19600385901b1c1916600184901b178455610245565b5f84815260208120601f198516915b828110156102db57878501518255602094850194600190920191016102bb565b50848210156102f857868401515f19600387901b60f8161c191681555b50505050600190811b01905550565b608051610f5e6103265f395f818161019401526104a30152610f5e5ff3fe608060405234801561000f575f5ffd5b50600436106100fb575f3560e01c806370a0823111610093578063b88d4fde11610063578063b88d4fde1461022b578063c87b56dd1461023e578063e985e9c514610251578063fc154ff214610264575f5ffd5b806370a08231146101dc57806395d89b41146101fd578063a22cb46514610205578063af05ad1114610218575f5ffd5b806323b872dd116100ce57806323b872dd1461017c5780632438fe321461018f57806342842e0e146101b65780636352211e146101c9575f5ffd5b806301ffc9a7146100ff57806306fdde0314610127578063081812fc1461013c578063095ea7b314610167575b5f5ffd5b61011261010d366004610c0b565b61026c565b60405190151581526020015b60405180910390f35b61012f6102bd565b60405161011e9190610c5b565b61014f61014a366004610c6d565b61034c565b6040516001600160a01b03909116815260200161011e565b61017a610175366004610c9f565b610373565b005b61017a61018a366004610cc7565b610382565b61014f7f000000000000000000000000000000000000000000000000000000000000000081565b61017a6101c4366004610cc7565b610410565b61014f6101d7366004610c6d565b61042f565b6101ef6101ea366004610d01565b610439565b60405190815260200161011e565b61012f61047e565b61017a610213366004610d1a565b61048d565b61017a610226366004610d01565b610498565b61017a610239366004610d67565b610503565b61012f61024c366004610c6d565b61051b565b61011261025f366004610e44565b6105b7565b61012f6105e4565b5f6001600160e01b031982166380ac58cd60e01b148061029c57506001600160e01b03198216635b5e139f60e01b145b806102b757506301ffc9a760e01b6001600160e01b03198316145b92915050565b60605f80546102cb90610e75565b80601f01602080910402602001604051908101604052809291908181526020018280546102f790610e75565b80156103425780601f1061031957610100808354040283529160200191610342565b820191905f5260205f20905b81548152906001019060200180831161032557829003601f168201915b5050505050905090565b5f61035682610670565b505f828152600460205260409020546001600160a01b03166102b7565b61037e8282336106a8565b5050565b6001600160a01b0382166103b057604051633250574960e11b81525f60048201526024015b60405180910390fd5b5f6103bc8383336106b5565b9050836001600160a01b0316816001600160a01b03161461040a576040516364283d7b60e01b81526001600160a01b03808616600483015260248201849052821660448201526064016103a7565b50505050565b61042a83838360405180602001604052805f815250610503565b505050565b5f6102b782610670565b5f6001600160a01b038216610463576040516322718ad960e21b81525f60048201526024016103a7565b506001600160a01b03165f9081526003602052604090205490565b6060600180546102cb90610e75565b61037e3383836107a7565b336001600160a01b037f000000000000000000000000000000000000000000000000000000000000000016146104e35760405163a91baf8160e01b81523360048201526024016103a7565b600680545f91826104f383610ead565b91905055905061037e828261086e565b61050e848484610382565b61040a3385858585610887565b606061052682610670565b506007805461053490610e75565b80601f016020809104026020016040519081016040528092919081815260200182805461056090610e75565b80156105ab5780601f10610582576101008083540402835291602001916105ab565b820191905f5260205f20905b81548152906001019060200180831161058e57829003601f168201915b50505050509050919050565b6001600160a01b039182165f90815260056020908152604080832093909416825291909152205460ff1690565b600780546105f190610e75565b80601f016020809104026020016040519081016040528092919081815260200182805461061d90610e75565b80156106685780601f1061063f57610100808354040283529160200191610668565b820191905f5260205f20905b81548152906001019060200180831161064b57829003601f168201915b505050505081565b5f818152600260205260408120546001600160a01b0316806102b757604051637e27328960e01b8152600481018490526024016103a7565b61042a83838360016109af565b5f828152600260205260408120546001600160a01b03908116908316156106e1576106e1818486610ab3565b6001600160a01b0381161561071b576106fc5f855f5f6109af565b6001600160a01b0381165f90815260036020526040902080545f190190555b6001600160a01b03851615610749576001600160a01b0385165f908152600360205260409020805460010190555b5f8481526002602052604080822080546001600160a01b0319166001600160a01b0389811691821790925591518793918516917fddf252ad1be2c89b69c2b068fc378daa952ba7f163c4a11628f55a4df523b3ef91a4949350505050565b6001600160a01b0383166107d05760405163a9fbf51f60e01b81525f60048201526024016103a7565b6001600160a01b03821661080257604051630b61174360e31b81526001600160a01b03831660048201526024016103a7565b6001600160a01b038381165f81815260056020908152604080832094871680845294825291829020805460ff191686151590811790915591519182527f17307eab39ab6107e8899845ad3d59bd9653f200f220920489ca2b5937696c31910160405180910390a3505050565b61037e828260405180602001604052805f815250610b17565b6001600160a01b0383163b156109a857604051630a85bd0160e11b81526001600160a01b0384169063150b7a02906108c9908890889087908790600401610ed1565b6020604051808303815f875af1925050508015610903575060408051601f3d908101601f1916820190925261090091810190610f0d565b60015b61096a573d808015610930576040519150601f19603f3d011682016040523d82523d5f602084013e610935565b606091505b5080515f0361096257604051633250574960e11b81526001600160a01b03851660048201526024016103a7565b805160208201fd5b6001600160e01b03198116630a85bd0160e11b146109a657604051633250574960e11b81526001600160a01b03851660048201526024016103a7565b505b5050505050565b80806109c357506001600160a01b03821615155b15610a84575f6109d284610670565b90506001600160a01b038316158015906109fe5750826001600160a01b0316816001600160a01b031614155b8015610a115750610a0f81846105b7565b155b15610a3a5760405163a9fbf51f60e01b81526001600160a01b03841660048201526024016103a7565b8115610a825783856001600160a01b0316826001600160a01b03167f8c5be1e5ebec7d5bd14f71427d1e84f3dd0314c0f7b2291e5b200ac8c7c3b92560405160405180910390a45b505b50505f90815260046020526040902080546001600160a01b0319166001600160a01b0392909216919091179055565b610abe838383610b2e565b61042a576001600160a01b038316610aec57604051637e27328960e01b8152600481018290526024016103a7565b60405163177e802f60e01b81526001600160a01b0383166004820152602481018290526044016103a7565b610b218383610b92565b61042a335f858585610887565b5f6001600160a01b03831615801590610b8a5750826001600160a01b0316846001600160a01b03161480610b675750610b6784846105b7565b80610b8a57505f828152600460205260409020546001600160a01b038481169116145b949350505050565b6001600160a01b038216610bbb57604051633250574960e11b81525f60048201526024016103a7565b5f610bc783835f6106b5565b90506001600160a01b0381161561042a576040516339e3563760e11b81525f60048201526024016103a7565b6001600160e01b031981168114610c08575f5ffd5b50565b5f60208284031215610c1b575f5ffd5b8135610c2681610bf3565b9392505050565b5f81518084528060208401602086015e5f602082860101526020601f19601f83011685010191505092915050565b602081525f610c266020830184610c2d565b5f60208284031215610c7d575f5ffd5b5035919050565b80356001600160a01b0381168114610c9a575f5ffd5b919050565b5f5f60408385031215610cb0575f5ffd5b610cb983610c84565b946020939093013593505050565b5f5f5f60608486031215610cd9575f5ffd5b610ce284610c84565b9250610cf060208501610c84565b929592945050506040919091013590565b5f60208284031215610d11575f5ffd5b610c2682610c84565b5f5f60408385031215610d2b575f5ffd5b610d3483610c84565b915060208301358015158114610d48575f5ffd5b809150509250929050565b634e487b7160e01b5f52604160045260245ffd5b5f5f5f5f60808587031215610d7a575f5ffd5b610d8385610c84565b9350610d9160208601610c84565b925060408501359150606085013567ffffffffffffffff811115610db3575f5ffd5b8501601f81018713610dc3575f5ffd5b803567ffffffffffffffff811115610ddd57610ddd610d53565b604051601f8201601f19908116603f0116810167ffffffffffffffff81118282101715610e0c57610e0c610d53565b604052818152828201602001891015610e23575f5ffd5b816020840160208301375f6020838301015280935050505092959194509250565b5f5f60408385031215610e55575f5ffd5b610e5e83610c84565b9150610e6c60208401610c84565b90509250929050565b600181811c90821680610e8957607f821691505b602082108103610ea757634e487b7160e01b5f52602260045260245ffd5b50919050565b5f60018201610eca57634e487b7160e01b5f52601160045260245ffd5b5060010190565b6001600160a01b03858116825284166020820152604081018390526080606082018190525f90610f0390830184610c2d565b9695505050505050565b5f60208284031215610f1d575f5ffd5b8151610c2681610bf356fea264697066735822122036c14970a98d955b265b2017ce986119b3028344c31449f810f3b6d8c237d07564736f6c634300081c0033",
  "linkReferences": {},
  "deployedLinkReferences": {},
  "immutableReferences": {},
  "inputSourceName": "project/contracts/KahootGame.sol",
  "buildInfoId": "solc-0_8_28-c9ff8abbbbfb90d81b3e5532d98d94e0a5a4561e"
}