{
  "_format": "hh3-artifact-1",
  "contractName": "ENKIProfiles",
  "sourceName": "contracts/ENKIProfiles.sol",
  "abi": [
    {
      "inputs": [],
      "name": "NicknameCannotBeEmpty",
      "type": "error"
    },
    {
      "inputs": [
        {
          "internalType": "uint256",
          "name": "length",
          "type": "uint256"
        }
      ],
      "name": "NicknameTooLong",
      "type": "error"
    },
    {
      "anonymous": false,
      "inputs": [
        {
          "indexed": true,
          "internalType": "address",
          "name": "user",
          "type": "address"
        },
        {
          "indexed": false,
          "internalType": "string",
          "name": "newNickname",
          "type": "string"
        }
      ],
      "name": "NicknameUpdated",
      "type": "event"
    },
    {
      "inputs": [
        {
          "internalType": "address",
          "name": "",
          "type": "address"
        }
      ],
      "name": "nicknames",
      "outputs": [
        {
          "internalType": "string",
          "name": "",
          "type": "string"
        }
      ],
      "stateMutability": "view",
      "type": "function"
    },
    {
      "inputs": [
        {
          "internalType": "string",
          "name": "_nickname",
          "type": "string"
        }
      ],
      "name": "setNickname",
      "outputs": [],
      "stateMutability": "nonpayable",
      "type": "function"
    }
  ],
  "bytecode": "0x6080604052348015600e575f5ffd5b5061047b8061001c5f395ff3fe608060405234801561000f575f5ffd5b5060043610610034575f3560e01c80631c5d9faa14610038578063909151b51461004d575b5f5ffd5b61004b6100463660046101f5565b610076565b005b61006061005b366004610263565b61015e565b60405161006d9190610290565b60405180910390f35b5f82828080601f0160208091040260200160405190810160405280939291908181526020018383808284375f920182905250845194955084900392506100d29150505760405163352badd360e21b815260040160405180910390fd5b601e8111156100fb5760405163ac59e25b60e01b81526004810182905260240160405180910390fd5b335f90815260208190526040902061011484868361035d565b50336001600160a01b03167fd42e9a140a7424dbbcb68e5845e9b508a354584bbbcad50fa15aafcef37e50de8585604051610150929190610417565b60405180910390a250505050565b5f6020819052908152604090208054610176906102d9565b80601f01602080910402602001604051908101604052809291908181526020018280546101a2906102d9565b80156101ed5780601f106101c4576101008083540402835291602001916101ed565b820191905f5260205f20905b8154815290600101906020018083116101d057829003601f168201915b505050505081565b5f5f60208385031215610206575f5ffd5b823567ffffffffffffffff81111561021c575f5ffd5b8301601f8101851361022c575f5ffd5b803567ffffffffffffffff811115610242575f5ffd5b856020828401011115610253575f5ffd5b6020919091019590945092505050565b5f60208284031215610273575f5ffd5b81356001600160a01b0381168114610289575f5ffd5b9392505050565b602081525f82518060208401528060208501604085015e5f604082850101526040601f19601f83011684010191505092915050565b634e487b7160e01b5f52604160045260245ffd5b600181811c908216806102ed57607f821691505b60208210810361030b57634e487b7160e01b5f52602260045260245ffd5b50919050565b601f82111561035857805f5260205f20601f840160051c810160208510156103365750805b601f840160051c820191505b81811015610355575f8155600101610342565b50505b505050565b67ffffffffffffffff831115610375576103756102c5565b6103898361038383546102d9565b83610311565b5f601f8411600181146103ba575f85156103a35750838201355b5f19600387901b1c1916600186901b178355610355565b5f83815260208120601f198716915b828110156103e957868501358255602094850194600190920191016103c9565b5086821015610405575f1960f88860031b161c19848701351681555b505060018560011b0183555050505050565b60208152816020820152818360408301375f818301604090810191909152601f909201601f1916010191905056fea26469706673582212203e494552a8dde543f1c07a7a3e990e0537d1a4e6a80e0db1b382997850224ecb64736f6c634300081c0033",
  "linkReferences": {},
  "deployedLinkReferences": {},
  "immutableReferences": {},
  "inputSourceName": "project/contracts/ENKIProfiles.sol",
  "buildInfoId": "solc-0_8_28-775fdbe9ecf2799210e4b736ed1bd3774a9f5aa9"
}