{
  "_format": "hh3-artifact-1",
  "contractName": "KahootFactory",
  "sourceName": "contracts/KahootFactory.sol",
  "abi": [
    {
      "inputs": [
        {
          "internalType": "uint256",
          "name": "_creationFee",
          "type": "uint256"
        }
      ],
      "stateMutability": "nonpayable",
      "type": "constructor"
    },
    {
      "anonymous": false,
      "inputs": [
        {
          "indexed": false,
          "internalType": "uint256",
          "name": "oldFee",
          "type": "uint256"
        },
        {
          "indexed": false,
          "internalType": "uint256",
          "name": "newFee",
          "type": "uint256"
        }
      ],
      "name": "CreationFeeUpdated",
      "type": "event"
    },
    {
      "anonymous": false,
      "inputs": [
        {
          "indexed": true,
          "internalType": "uint256",
          "name": "gameId",
          "type": "uint256"
        },
        {
          "indexed": true,
          "internalType": "address",
          "name": "gameAddress",
          "type": "address"
        },
        {
          "indexed": true,
          "internalType": "address",
          "name": "professor",
          "type": "address"
        }
      ],
      "name": "GameCreated",
      "type": "event"
    },
    {
      "inputs": [
        {
          "internalType": "string",
          "name": "_gameName",
          "type": "string"
        },
        {
          "internalType": "uint256",
          "name": "_passingScore",
          "type": "uint256"
        },
        {
          "internalType": "uint256",
          "name": "_totalQuestions",
          "type": "uint256"
        },
        {
          "internalType": "string",
          "name": "_diplomaTokenURI",
          "type": "string"
        },
        {
          "internalType": "bytes32",
          "name": "_questionsMerkleRoot",
          "type": "bytes32"
        },
        {
          "internalType": "uint256",
          "name": "_entryFee",
          "type": "uint256"
        }
      ],
      "name": "createGame",
      "outputs": [
        {
          "internalType": "address",
          "name": "",
          "type": "address"
        }
      ],
      "stateMutability": "payable",
      "type": "function"
    },
    {
      "inputs": [],
      "name": "creationFee",
      "outputs": [
        {
          "internalType": "uint256",
          "name": "",
          "type": "uint256"
        }
      ],
      "stateMutability": "view",
      "type": "function"
    },
    {
      "inputs": [
        {
          "internalType": "uint256",
          "name": "",
          "type": "uint256"
        }
      ],
      "name": "games",
      "outputs": [
        {
          "internalType": "contract KahootGame",
          "name": "",
          "type": "address"
        }
      ],
      "stateMutability": "view",
      "type": "function"
    },
    {
      "inputs": [
        {
          "internalType": "uint256",
          "name": "",
          "type": "uint256"
        }
      ],
      "name": "gamesById",
      "outputs": [
        {
          "internalType": "address",
          "name": "",
          "type": "address"
        }
      ],
      "stateMutability": "view",
      "type": "function"
    },
    {
      "inputs": [
        {
          "internalType": "uint256",
          "name": "_gameId",
          "type": "uint256"
        }
      ],
      "name": "getGameAddress",
      "outputs": [
        {
          "internalType": "address",
          "name": "",
          "type": "address"
        }
      ],
      "stateMutability": "view",
      "type": "function"
    },
    {
      "inputs": [],
      "name": "getGamesCount",
      "outputs": [
        {
          "internalType": "uint256",
          "name": "",
          "type": "uint256"
        }
      ],
      "stateMutability": "view",
      "type": "function"
    },
    {
      "inputs": [
        {
          "internalType": "address",
          "name": "_profesor",
          "type": "address"
        }
      ],
      "name": "getKahootsDeProfesor",
      "outputs": [
        {
          "internalType": "contract KahootGame[]",
          "name": "",
          "type": "address[]"
        }
      ],
      "stateMutability": "view",
      "type": "function"
    },
    {
      "inputs": [
        {
          "internalType": "address",
          "name": "",
          "type": "address"
        },
        {
          "internalType": "uint256",
          "name": "",
          "type": "uint256"
        }
      ],
      "name": "kahootsDeProfesor",
      "outputs": [
        {
          "internalType": "contract KahootGame",
          "name": "",
          "type": "address"
        }
      ],
      "stateMutability": "view",
      "type": "function"
    },
    {
      "inputs": [],
      "name": "nextGameId",
      "outputs": [
        {
          "internalType": "uint256",
          "name": "",
          "type": "uint256"
        }
      ],
      "stateMutability": "view",
      "type": "function"
    },
    {
      "inputs": [],
      "name": "owner",
      "outputs": [
        {
          "internalType": "address",
          "name": "",
          "type": "address"
        }
      ],
      "stateMutability": "view",
      "type": "function"
    },
    {
      "inputs": [
        {
          "internalType": "uint256",
          "name": "_newFee",
          "type": "uint256"
        }
      ],
      "name": "setCreationFee",
      "outputs": [],
      "stateMutability": "nonpayable",
      "type": "function"
    },
    {
      "inputs": [],
      "name": "withdrawFees",
      "outputs": [],
      "stateMutability": "nonpayable",
      "type": "function"
    }
  ],
  "bytecode": "0x608060405260016003553480156013575f5ffd5b506040516150563803806150568339810160408190526030916049565b600180546001600160a01b03191633179055600255605f565b5f602082840312156058575f5ffd5b5051919050565b614fea8061006c5f395ff3fe6080604052600436106100a5575f3560e01c8063955cf94a11610062578063955cf94a1461018a57806398b4454d146101b6578063b135bbb0146101c9578063b7d86225146101de578063dcaa7948146101fd578063dce0b4e41461021c575f5ffd5b80630ea92f35146100a9578063117a5b90146100fa57806317b7a47614610119578063476343ee146101365780637356a5001461014c5780638da5cb5b1461016b575b5f5ffd5b3480156100b4575f5ffd5b506100dd6100c33660046106ae565b60046020525f90815260409020546001600160a01b031681565b6040516001600160a01b0390911681526020015b60405180910390f35b348015610105575f5ffd5b506100dd6101143660046106ae565b610231565b348015610124575f5ffd5b505f545b6040519081526020016100f1565b348015610141575f5ffd5b5061014a610258565b005b348015610157575f5ffd5b506100dd6101663660046106e0565b61037e565b348015610176575f5ffd5b506001546100dd906001600160a01b031681565b348015610195575f5ffd5b506101a96101a4366004610708565b6103b2565b6040516100f19190610728565b6100dd6101c43660046107b8565b610425565b3480156101d4575f5ffd5b5061012860035481565b3480156101e9575f5ffd5b5061014a6101f83660046106ae565b6105aa565b348015610208575f5ffd5b506100dd6102173660046106ae565b610635565b348015610227575f5ffd5b5061012860025481565b5f818154811061023f575f80fd5b5f918252602090912001546001600160a01b0316905081565b6001546001600160a01b031633146102a75760405162461bcd60e51b815260206004820152600d60248201526c29b7b6379032b61037bbb732b960991b60448201526064015b60405180910390fd5b47806102e25760405162461bcd60e51b815260206004820152600a60248201526953696e20666f6e646f7360b01b604482015260640161029e565b6001546040515f916001600160a01b03169083908381818185875af1925050503d805f811461032c576040519150601f19603f3d011682016040523d82523d5f602084013e610331565b606091505b505090508061037a5760405162461bcd60e51b81526020600482015260156024820152745472616e73666572656e6369612066616c6c69646160581b604482015260640161029e565b5050565b6005602052815f5260405f208181548110610397575f80fd5b5f918252602090912001546001600160a01b03169150829050565b6001600160a01b0381165f9081526005602090815260409182902080548351818402810184019094528084526060939283018282801561041957602002820191905f5260205f20905b81546001600160a01b031681526001909101906020018083116103fb575b50505050509050919050565b5f6002543410156104785760405162461bcd60e51b815260206004820152601f60248201527f546172696661206465206372656163696f6e20696e737566696369656e746500604482015260640161029e565b5f30338b8b8b8b8b8b8b8b60405161048f906106a1565b6104a29a99989796959493929190610870565b604051809103905ff0801580156104bb573d5f5f3e3d5ffd5b50600380545f81815260046020526040812080546001600160a01b0319166001600160a01b0386161790558254939450909291906104f8836108d6565b90915550505f8054600181810183557f290decd9548b62a8d60345a988386fc84ba6bc95484008f6362f93160ef3e56390910180546001600160a01b0386166001600160a01b03199182168117909255338085526005602090815260408087208054968701815587529086209094018054909216831790915591519192909184917f8946648bc1dbc670d3f07e2c4de91731227b6d4ccc53b8ab1e951e84d960577e91a4509998505050505050505050565b6001546001600160a01b031633146105f45760405162461bcd60e51b815260206004820152600d60248201526c29b7b6379032b61037bbb732b960991b604482015260640161029e565b60025460408051918252602082018390527f5de302eeb1c80d4fb0c0953b692353f09ddf431411b8eb2034d5e85769561912910160405180910390a1600255565b5f5f82118015610646575060035482105b6106865760405162461bcd60e51b815260206004820152601160248201527047616d65204944206e6f2065786973746560781b604482015260640161029e565b505f908152600460205260409020546001600160a01b031690565b6146ba806108fb83390190565b5f602082840312156106be575f5ffd5b5035919050565b80356001600160a01b03811681146106db575f5ffd5b919050565b5f5f604083850312156106f1575f5ffd5b6106fa836106c5565b946020939093013593505050565b5f60208284031215610718575f5ffd5b610721826106c5565b9392505050565b602080825282518282018190525f918401906040840190835b818110156107685783516001600160a01b0316835260209384019390920191600101610741565b509095945050505050565b5f5f83601f840112610783575f5ffd5b50813567ffffffffffffffff81111561079a575f5ffd5b6020830191508360208285010111156107b1575f5ffd5b9250929050565b5f5f5f5f5f5f5f5f60c0898b0312156107cf575f5ffd5b883567ffffffffffffffff8111156107e5575f5ffd5b6107f18b828c01610773565b9099509750506020890135955060408901359450606089013567ffffffffffffffff81111561081e575f5ffd5b61082a8b828c01610773565b999c989b5096999598969760808701359660a0013595509350505050565b81835281816020850137505f828201602090810191909152601f909101601f19169091010190565b6001600160a01b038b811682528a166020820152610100604082018190525f9061089d9083018a8c610848565b88606084015287608084015282810360a08401526108bc818789610848565b60c0840195909552505060e0015298975050505050505050565b5f600182016108f357634e487b7160e01b5f52601160045260245ffd5b506001019056fe608060405234801561000f575f5ffd5b506040516146ba3803806146ba83398101604081905261002e916102b2565b60017f9b779b17422d0df92223018b32b4d1fa46e071723d6817e2486d003becc55f0055836100a45760405162461bcd60e51b815260206004820152601460248201527f446562652074656e65722070726567756e74617300000000000000000000000060448201526064015b60405180910390fd5b5f85116100e65760405162461bcd60e51b815260206004820152601060248201526f50756e74616a6520696e76616c69646f60801b604482015260640161009b565b838511156101365760405162461bcd60e51b815260206004820152601660248201527f50756e74616a65206d61796f7220616c20746f74616c00000000000000000000604482015260640161009b565b5f80546001600160a01b03808b166001600160a01b03199283161790925560018054928a1692909116919091179055600261017187826103e1565b5060048590556005849055600e819055600982905560405130908490610196906101ed565b6101a192919061049b565b604051809103905ff0801580156101ba573d5f5f3e3d5ffd5b50600380546001600160a01b0319166001600160a01b0392909216919091179055505042601f55506104df945050505050565b6112848061343683390190565b80516001600160a01b0381168114610210575f5ffd5b919050565b634e487b7160e01b5f52604160045260245ffd5b5f82601f830112610238575f5ffd5b81516001600160401b0381111561025157610251610215565b604051601f8201601f19908116603f011681016001600160401b038111828210171561027f5761027f610215565b604052818152838201602001851015610296575f5ffd5b8160208501602083015e5f918101602001919091529392505050565b5f5f5f5f5f5f5f5f610100898b0312156102ca575f5ffd5b6102d3896101fa565b97506102e160208a016101fa565b60408a01519097506001600160401b038111156102fc575f5ffd5b6103088b828c01610229565b60608b015160808c015160a08d0151929950909750955090506001600160401b03811115610334575f5ffd5b6103408b828c01610229565b60c08b015160e0909b0151999c989b509699959894979350505050565b600181811c9082168061037157607f821691505b60208210810361038f57634e487b7160e01b5f52602260045260245ffd5b50919050565b601f8211156103dc57805f5260205f20601f840160051c810160208510156103ba5750805b601f840160051c820191505b818110156103d9575f81556001016103c6565b50505b505050565b81516001600160401b038111156103fa576103fa610215565b61040e81610408845461035d565b84610395565b6020601f821160018114610440575f83156104295750848201515b5f19600385901b1c1916600184901b1784556103d9565b5f84815260208120601f198516915b8281101561046f578785015182556020948501946001909201910161044f565b508482101561048c57868401515f19600387901b60f8161c191681555b50505050600190811b01905550565b60018060a01b0383168152604060208201525f82518060408401528060208501606085015e5f606082850101526060601f19601f8301168401019150509392505050565b612f4a806104ec5f395ff3fe608060405260043610610233575f3560e01c806373b2e80e11610129578063b5545a3c116100a8578063c45a01551161006d578063c45a0155146106ce578063d4f77b1c146106ec578063e3ccbd13146106f4578063e91ac3bf14610713578063ef6eedc114610727575f5ffd5b8063b5545a3c14610631578063b8ebf2f214610645578063bdf22ab414610664578063bea5b91414610679578063c1661db11461068e575f5ffd5b8063885d68a8116100ee578063885d68a8146105905780638e7e9a3c146105c657806395ee1221146105da5780639af31a66146105f3578063b081aaef14610612575f5ffd5b806373b2e80e146104db57806376dd110f146105095780637b352962146105345780637c7dd8ba1461054d578063877f4e1214610562575f5ffd5b8063473bc223116101b55780635e2ac28d1161017a5780635e2ac28d1461041f57806366eb597a1461047a5780636f5d398f1461049357806370740ac9146104b2578063719ce73e146104c6575f5ffd5b8063473bc223146103875780634f263233146103a85780635113940d146103d3578063565b7995146103f25780635d132b911461040b575f5ffd5b806315da65a5116101fb57806315da65a5146102fe5780631a5e0f37146103135780631d7ce12b1461033457806333881c8a14610353578063381e47cd14610368575f5ffd5b8063072ea61c14610237578063085f03161461025f5780630e3c5ccb14610274578063116380e31461028957806313801538146102c0575b5f5ffd5b348015610242575f5ffd5b5061024c600e5481565b6040519081526020015b60405180910390f35b34801561026a575f5ffd5b5061024c601f5481565b34801561027f575f5ffd5b5061024c601c5481565b348015610294575f5ffd5b506003546102a8906001600160a01b031681565b6040516001600160a01b039091168152602001610256565b3480156102cb575f5ffd5b506102ee6102da366004612759565b601d6020525f908152604090205460ff1681565b6040519015158152602001610256565b348015610309575f5ffd5b5061024c60065481565b34801561031e575f5ffd5b5061033261032d366004612772565b610746565b005b34801561033f575f5ffd5b5061033261034e36600461282d565b610893565b34801561035e575f5ffd5b5061024c60095481565b348015610373575f5ffd5b5061024c610382366004612772565b610cdb565b348015610392575f5ffd5b5061039b610cf1565b60405161025691906128fd565b3480156103b3575f5ffd5b5061024c6103c2366004612772565b60116020525f908152604090205481565b3480156103de575f5ffd5b506001546102a8906001600160a01b031681565b3480156103fd575f5ffd5b506012546102ee9060ff1681565b348015610416575f5ffd5b50610332610d7d565b34801561042a575f5ffd5b5061045d610439366004612772565b600a6020525f90815260409020805460019091015460ff8082169161010090041683565b604080519384529115156020840152151590820152606001610256565b348015610485575f5ffd5b50601e546102ee9060ff1681565b34801561049e575f5ffd5b506103326104ad366004612932565b610e8f565b3480156104bd575f5ffd5b5061033261102d565b3480156104d1575f5ffd5b5061024c600f5481565b3480156104e6575f5ffd5b506102ee6104f5366004612759565b600d6020525f908152604090205460ff1681565b348015610514575f5ffd5b5061024c610523366004612759565b600c6020525f908152604090205481565b34801561053f575f5ffd5b506008546102ee9060ff1681565b348015610558575f5ffd5b5061024c61a8c081565b34801561056d575f5ffd5b506102ee61057c366004612759565b60106020525f908152604090205460ff1681565b34801561059b575f5ffd5b5061024c6105aa36600461295a565b600b60209081525f928352604080842090915290825290205481565b3480156105d1575f5ffd5b506103326113f2565b3480156105e5575f5ffd5b506020546102ee9060ff1681565b3480156105fe575f5ffd5b5061033261060d366004612984565b611736565b34801561061d575f5ffd5b5061033261062c3660046129b7565b61193d565b34801561063c575f5ffd5b50610332611c19565b348015610650575f5ffd5b5061033261065f366004612a53565b611f1b565b34801561066f575f5ffd5b5061024c60045481565b348015610684575f5ffd5b5061024c60055481565b348015610699575f5ffd5b506106bc6106a8366004612772565b60076020525f908152604090205460ff1681565b60405160ff9091168152602001610256565b3480156106d9575f5ffd5b505f546102a8906001600160a01b031681565b6103326122a0565b3480156106ff575f5ffd5b5061024c61070e366004612772565b6124a4565b34801561071e575f5ffd5b506103326124b3565b348015610732575f5ffd5b5061024c610741366004612772565b61265d565b335f9081526010602052604090205460ff1661077d5760405162461bcd60e51b815260040161077490612b06565b60405180910390fd5b6006545f818152600a602052604090206001015460ff166107d95760405162461bcd60e51b81526020600482015260166024820152754661736520646520636f6d6d6974206365727261646160501b6044820152606401610774565b816108125760405162461bcd60e51b815260206004820152600960248201526848617368206e756c6f60b81b6044820152606401610774565b5f818152600b60209081526040808320338452909152902054156108785760405162461bcd60e51b815260206004820152601c60248201527f596120726573706f6e646973746520657374612070726567756e7461000000006044820152606401610774565b5f908152600b60209081526040808320338452909152902055565b6001546001600160a01b031633146108bd5760405162461bcd60e51b815260040161077490612b49565b60205460ff16156108e05760405162461bcd60e51b815260040161077490612b8a565b6006545f818152600a602052604090206001015460ff1661093f5760405162461bcd60e51b8152602060048201526019602482015278139bc8195cdd1848195b8819985cd94819194818dbdb5b5a5d603a1b6044820152606401610774565b5f8b8b3360405160200161095593929190612bd0565b60408051601f1981840301815291815281516020928301205f858152600a90935291205490915081146109ca5760405162461bcd60e51b815260206004820152601c60248201527f486173682064652072657370756573746120696e636f72726563746f000000006044820152606401610774565b8b60075f8481526020019081526020015f205f6101000a81548160ff021916908360ff1602179055505f600a5f8481526020019081526020015f206001015f6101000a81548160ff0219169083151502179055505f600a5f8481526020019081526020015f2060010160016101000a81548160ff021916908315150217905550817f9f48cac694ad868cba9c30d5ff1dfdeb034062b2d87eb6d32e5318392faeb08f60405160405180910390a2600160065f828254610a899190612c1b565b90915550506006546005548110610ad95760405162461bcd60e51b81526020600482015260146024820152734e6f20686179206d61732070726567756e74617360601b6044820152606401610774565b8a8787610ae68880612c42565b610af360208b018b612c42565b610b0060408d018d612c42565b610b0d60608f018f612c42565b8e604051602001610b289b9a99989796959493929190612cac565b6040516020818303038152906040528051906020012014610b8b5760405162461bcd60e51b815260206004820152601e60248201527f456c20746578746f206d6f646966696361646f206f20696e76616c69646f00006044820152606401610774565b60408051602081018390529081018c9052606081018b90525f90608001604051602081830303815290604052805190602001209050610c008a8a808060200260200160405190810160405280939291908181526020018383602002808284375f9201919091525050600954915084905061266c565b610c445760405162461bcd60e51b81526020600482015260156024820152744d65726b6c652070726f6f6620696e76616c69646f60581b6044820152606401610774565b5f828152600a60205260408082208d81556001908101805460ff1916909117905542601f555183917fe1925ed1b18a09ca8c0798ae918409f2db5036dfd27b61f1f433d17fc68b9ab491a2817f396da80a66a431ebe4395ffecf7669105c6f1c07c69a99c25835e1b77d840dad898989604051610cc393929190612d2a565b60405180910390a25050505050505050505050505050565b60198160038110610cea575f80fd5b0154905081565b60028054610cfe90612dce565b80601f0160208091040260200160405190810160405280929190818152602001828054610d2a90612dce565b8015610d755780601f10610d4c57610100808354040283529160200191610d75565b820191905f5260205f20905b815481529060010190602001808311610d5857829003601f168201915b505050505081565b6001546001600160a01b03163314610da75760405162461bcd60e51b815260040161077490612b49565b60205460ff1615610dca5760405162461bcd60e51b815260040161077490612b8a565b6006545f818152600a6020526040902060010154610100900460ff16610e3c5760405162461bcd60e51b815260206004820152602160248201527f5072696d65726f2068617920717565206162726972206c6f732072657665616c6044820152607360f81b6064820152608401610774565b5f818152600a602052604081206001908101805461ff00191690556006805491929091610e6a908490612c1b565b909155505042601f5560055460065403610e8c576008805460ff191660011790555b50565b6001546001600160a01b03163314610eb95760405162461bcd60e51b815260040161077490612b49565b60205460ff1615610edc5760405162461bcd60e51b815260040161077490612b8a565b6006545f818152600a602052604090206001015460ff16610f3b5760405162461bcd60e51b8152602060048201526019602482015278139bc8195cdd1848195b8819985cd94819194818dbdb5b5a5d603a1b6044820152606401610774565b5f838333604051602001610f5193929190612bd0565b60408051601f1981840301815291815281516020928301205f858152600a9093529120549091508114610fc65760405162461bcd60e51b815260206004820152601c60248201527f486173682064652072657370756573746120696e636f72726563746f000000006044820152606401610774565b5f828152600760209081526040808320805460ff891660ff19909116179055600a909152808220600101805461ffff191661010017905542601f555183917f9f48cac694ad868cba9c30d5ff1dfdeb034062b2d87eb6d32e5318392faeb08f91a250505050565b611035612681565b60125460ff1661109a5760405162461bcd60e51b815260206004820152602a60248201527f5072696d65726f2073652064656265206c6c616d617220612063616c63756c6160448201526974655072697a6573282960b01b6064820152608401610774565b6001545f906001600160a01b0316330361116857601e5460ff16156111015760405162461bcd60e51b815260206004820152601f60248201527f456c2070726f6665736f722079612072657469726f207375207072656d696f006044820152606401610774565b5f601c54116111525760405162461bcd60e51b815260206004820152601e60248201527f4e6f20686179207072656d696f207061726120656c2070726f6665736f7200006044820152606401610774565b50601e805460ff19166001179055601c5461130e565b335f9081526010602052604090205460ff166111c65760405162461bcd60e51b815260206004820152601d60248201527f4e6f2070617274696369706173746520656e2065737465206a7565676f0000006044820152606401610774565b335f908152601d602052604090205460ff161561121e5760405162461bcd60e51b8152602060048201526016602482015275596120726574697261737465207475207072656d696f60501b6044820152606401610774565b335f908152600c6020526040812054905b60038160ff1610156112a3575f60168260ff166003811061125257611252612c2e565b0154118015611277575060138160ff166003811061127257611272612c2e565b015482145b1561129b5760198160ff166003811061129257611292612c2e565b015492506112a3565b60010161122f565b505f82116112f35760405162461bcd60e51b815260206004820152601e60248201527f54752070756e74616a65206e6f206573746120656e20656c20746f70203300006044820152606401610774565b50335f908152601d60205260409020805460ff191660011790555b6040515f90339083908381818185875af1925050503d805f811461134d576040519150601f19603f3d011682016040523d82523d5f602084013e611352565b606091505b50509050806113a35760405162461bcd60e51b815260206004820152601d60248201527f4c61207472616e73666572656e636961206465204554482066616c6c6f0000006044820152606401610774565b60405182815233907f95681e512bc0fe659e195e06c283eada494316f3d801213e48e7101af92bf7709060200160405180910390a250506113f060015f516020612ef55f395f51905f5255565b565b60085460ff1661143f5760405162461bcd60e51b8152602060048201526018602482015277456c206a7565676f206e6f206861207465726d696e61646f60401b6044820152606401610774565b60125460ff16156114925760405162461bcd60e51b815260206004820181905260248201527f4c6f73207072656d696f7320796120667565726f6e2063616c63756c61646f736044820152606401610774565b6012805460ff1916600117905560408051606081018252603c815260146020820152600a918101919091526005545f91829182905b5f811180156114d65750600385105b156115ca575f8181526011602052604090205480156115b7575f805b82811080156115015750600388105b156115495785886003811061151857611518612c2e565b60200201516115279083612c1b565b91508761153381612e06565b985050808061154190612e06565b9150506114f2565b5080156115b5578260138760ff166003811061156757611567612c2e565b015581601660ff88166003811061158057611580612c2e565b015580601960ff88166003811061159957611599612c2e565b01556115a58185612c1b565b9350856115b181612e1e565b9650505b505b50806115c281612e3c565b9150506114c7565b505f6064600f54605a6115dd9190612e51565b6115e79190612e68565b90505f821561169c575f5b8560ff168160ff16101561169a575f60198260ff166003811061161757611617612c2e565b015490505f856116278387612e51565b6116319190612e68565b90505f60168460ff166003811061164a5761164a612c2e565b015490505f6116598284612e68565b90508060198660ff166003811061167257611672612c2e565b015561167e8282612e51565b6116889087612c1b565b955050600190930192506115f2915050565b505b80600f546116aa9190612e87565b601c557f3a15c38dc3a696664486bb89549cadff81d8efcdfd8baa3151f55f445d4ac46e600160ff871610156116e0575f6116e4565b6013545b60028760ff1610156116f6575f6116fa565b6014545b60038860ff16101561170c575f611710565b6015545b6040805193845260208401929092529082015260600160405180910390a1505050505050565b335f9081526010602052604090205460ff166117645760405162461bcd60e51b815260040161077490612b06565b5f838152600a6020526040902060010154610100900460ff166117c25760405162461bcd60e51b8152602060048201526016602482015275466173652064652072657665616c206365727261646160501b6044820152606401610774565b5f838152600b60209081526040808320338452909152902054806118335760405162461bcd60e51b815260206004820152602260248201527f4e6f206869636973746520636f6d6d697420656e20657374612070726567756e604482015261746160f01b6064820152608401610774565b5f83833360405160200161184993929190612bd0565b6040516020818303038152906040528051906020012090508181146118805760405162461bcd60e51b815260040161077490612e9a565b5f858152600b602090815260408083203384528252808320839055878352600790915290205460ff9081169085160361193657335f908152600c602090815260408083205480845260119092528220805491926001926118e1908490612e87565b909155506118f29050816001612c1b565b335f908152600c60205260408120919091556001906011906119148484612c1b565b81526020019081526020015f205f82825461192f9190612c1b565b9091555050505b5050505050565b335f9081526010602052604090205460ff1661196b5760405162461bcd60e51b815260040161077490612b06565b848314801561197957508281145b6119ba5760405162461bcd60e51b81526020600482015260126024820152714d69736d617463686564206c656e6774687360701b6044820152606401610774565b5f5b85811015611c10575f8787838181106119d7576119d7612c2e565b905060200201359050600a5f8281526020019081526020015f2060010160019054906101000a900460ff1680611a0e575060065481105b80611a1b575060085460ff165b611a795760405162461bcd60e51b815260206004820152602960248201527f466173652064652072657665616c2063657272616461206f206e6f20657320656044820152686c206d6f6d656e746f60b81b6064820152608401610774565b5f818152600b6020908152604080832033845290915290205480611a9e575050611c08565b5f878785818110611ab157611ab1612c2e565b9050602002016020810190611ac69190612edb565b868686818110611ad857611ad8612c2e565b9050602002013533604051602001611af293929190612bd0565b604051602081830303815290604052805190602001209050818114611b295760405162461bcd60e51b815260040161077490612e9a565b5f838152600b602090815260408083203384528252808320839055858352600790915290205460ff16888886818110611b6457611b64612c2e565b9050602002016020810190611b799190612edb565b60ff1603611c0457335f908152600c60209081526040808320548084526011909252822080549192600192611baf908490612e87565b90915550611bc09050816001612c1b565b335f908152600c6020526040812091909155600190601190611be28484612c1b565b81526020019081526020015f205f828254611bfd9190612c1b565b9091555050505b5050505b6001016119bc565b50505050505050565b611c21612681565b335f9081526010602052604090205460ff16611c7f5760405162461bcd60e51b815260206004820152601d60248201527f4e6f2070617274696369706173746520656e2065737465206a7565676f0000006044820152606401610774565b335f908152601d602052604090205460ff1615611ce95760405162461bcd60e51b815260206004820152602260248201527f59612072657469726173746520756e207072656d696f206f207265656d626f6c604482015261736f60f01b6064820152608401610774565b61a8c0601f54611cf99190612c1b565b421015611d585760405162461bcd60e51b815260206004820152602760248201527f456c2074696d656f757420646520696e6163746976696461642061756e206e6f6044820152662076656e63696f60c81b6064820152608401610774565b60085460ff1615611db95760405162461bcd60e51b815260206004820152602560248201527f456c206a7565676f207961207465726d696e6f3b2075736120636c61696d5072604482015264697a65282960d81b6064820152608401610774565b335f908152601d60205260408120805460ff19166001179055600e54600f805491929091611de8908490612e87565b909155505060205460ff16611e36576020805460ff191660011781556040514281527f0eba9245670e53c48b16c055d88729ddb0dd01afe009fbcad1d4de13a0b9777a910160405180910390a15b600e546040515f9133918381818185875af1925050503d805f8114611e76576040519150601f19603f3d011682016040523d82523d5f602084013e611e7b565b606091505b5050905080611ecc5760405162461bcd60e51b815260206004820152601d60248201527f4c61207472616e73666572656e636961206465204554482066616c6c6f0000006044820152606401610774565b600e5460405190815233907f358fe4192934d3bf28ae181feda1f4bd08ca67f5e2fad55582cce5eb67304ae99060200160405180910390a2506113f060015f516020612ef55f395f51905f5255565b6001546001600160a01b03163314611f455760405162461bcd60e51b815260040161077490612b49565b60205460ff1615611f685760405162461bcd60e51b815260040161077490612b8a565b60085460ff1615611fae5760405162461bcd60e51b815260206004820152601060248201526f456c206a7565676f207465726d696e6f60801b6044820152606401610774565b600654801561205a57600a5f611fc5600184612e87565b815260208101919091526040015f206001015460ff1615801561200e5750600a5f611ff1600184612e87565b815260208101919091526040015f2060010154610100900460ff16155b61205a5760405162461bcd60e51b815260206004820152601760248201527f48617920756e612070726567756e7461206163746976610000000000000000006044820152606401610774565b60055481106120a25760405162461bcd60e51b81526020600482015260146024820152734e6f20686179206d61732070726567756e74617360601b6044820152606401610774565b8885856120af8680612c42565b6120bc6020890189612c42565b6120c960408b018b612c42565b6120d660608d018d612c42565b8c6040516020016120f19b9a99989796959493929190612cac565b60405160208183030381529060405280519060200120146121545760405162461bcd60e51b815260206004820152601e60248201527f456c20746578746f206d6f646966696361646f206f20696e76616c69646f00006044820152606401610774565b60408051602081018390529081018a9052606081018990525f906080016040516020818303038152906040528051906020012090506121c98888808060200260200160405190810160405280939291908181526020018383602002808284375f9201919091525050600954915084905061266c565b61220d5760405162461bcd60e51b81526020600482015260156024820152744d65726b6c652070726f6f6620696e76616c69646f60581b6044820152606401610774565b5f828152600a60205260408082208b81556001908101805460ff1916909117905542601f555183917fe1925ed1b18a09ca8c0798ae918409f2db5036dfd27b61f1f433d17fc68b9ab491a2817f396da80a66a431ebe4395ffecf7669105c6f1c07c69a99c25835e1b77d840dad87878760405161228c93929190612d2a565b60405180910390a250505050505050505050565b60205460ff16156122c35760405162461bcd60e51b815260040161077490612b8a565b6006541580156122fd57505f8052600a6020527f13da86008ba1c6922daee3e07db95305ef49ebced9f5467a0b8613fcc6b343e45460ff16155b6123495760405162461bcd60e51b815260206004820181905260248201527f456c206a7565676f20796120636f6d656e7a6f206f207961207465726d696e6f6044820152606401610774565b335f9081526010602052604090205460ff16156123a05760405162461bcd60e51b8152602060048201526015602482015274596120746520756e6973746520616c206a7565676f60581b6044820152606401610774565b600e5434146123fd5760405162461bcd60e51b8152602060048201526024808201527f446562657320656e76696172206578616374616d656e746520656c20656e74726044820152637946656560e01b6064820152608401610774565b335f908152601060205260408120805460ff19166001179055600f8054349290612428908490612c1b565b90915550505f80805260116020527f4ad3b33220dddc71b994a52d72c06b10862965f7d926534c05c00fb7e819e7b7805460019290612468908490612c1b565b909155505060405134815233907f3330a6773675f31f62070870f40379f8c6d42e3761410011a4dfc42b18043d2f9060200160405180910390a2565b60138160038110610cea575f80fd5b60085460ff166125005760405162461bcd60e51b8152602060048201526018602482015277456c206a7565676f206e6f206861207465726d696e61646f60401b6044820152606401610774565b335f908152600d602052604090205460ff161561255f5760405162461bcd60e51b815260206004820152601860248201527f5961207265636c616d61737465207475206469706c6f6d6100000000000000006044820152606401610774565b600454335f908152600c602052604090205410156125bf5760405162461bcd60e51b815260206004820152601d60248201527f4e6f20616c63616e7a617320656c2070756e74616a65206d696e696d6f0000006044820152606401610774565b335f818152600d602052604090819020805460ff19166001179055600354905163af05ad1160e01b815260048101929092526001600160a01b03169063af05ad11906024015f604051808303815f87803b15801561261b575f5ffd5b505af115801561262d573d5f5f3e3d5ffd5b50506040513392507f7eb95b23bdc14656738c72aeadbb1777cdb36ea43c622ddeb9b2c871935fb36e91505f90a2565b60168160038110610cea575f80fd5b5f82612678858461269c565b14949350505050565b6126896126e0565b60025f516020612ef55f395f51905f5255565b5f81815b84518110156126d6576126cc828683815181106126bf576126bf612c2e565b602002602001015161270f565b91506001016126a0565b5090505b92915050565b5f516020612ef55f395f51905f52546002036113f057604051633ee5aeb560e01b815260040160405180910390fd5b5f818310612729575f828152602084905260409020612737565b5f8381526020839052604090205b9392505050565b80356001600160a01b0381168114612754575f5ffd5b919050565b5f60208284031215612769575f5ffd5b6127378261273e565b5f60208284031215612782575f5ffd5b5035919050565b803560ff81168114612754575f5ffd5b5f5f83601f8401126127a9575f5ffd5b5081356001600160401b038111156127bf575f5ffd5b6020830191508360208260051b85010111156127d9575f5ffd5b9250929050565b5f5f83601f8401126127f0575f5ffd5b5081356001600160401b03811115612806575f5ffd5b6020830191508360208285010111156127d9575f5ffd5b80608081018310156126da575f5ffd5b5f5f5f5f5f5f5f5f5f5f6101008b8d031215612847575f5ffd5b6128508b612789565b995060208b0135985060408b0135975060608b0135965060808b01356001600160401b0381111561287f575f5ffd5b61288b8d828e01612799565b90975095505060a08b01356001600160401b038111156128a9575f5ffd5b6128b58d828e016127e0565b90955093505060c08b01356001600160401b038111156128d3575f5ffd5b6128df8d828e0161281d565b9250505f60e08c01359050809150509295989b9194979a5092959850565b602081525f82518060208401528060208501604085015e5f604082850101526040601f19601f83011684010191505092915050565b5f5f60408385031215612943575f5ffd5b61294c83612789565b946020939093013593505050565b5f5f6040838503121561296b575f5ffd5b8235915061297b6020840161273e565b90509250929050565b5f5f5f60608486031215612996575f5ffd5b833592506129a660208501612789565b929592945050506040919091013590565b5f5f5f5f5f5f606087890312156129cc575f5ffd5b86356001600160401b038111156129e1575f5ffd5b6129ed89828a01612799565b90975095505060208701356001600160401b03811115612a0b575f5ffd5b612a1789828a01612799565b90955093505060408701356001600160401b03811115612a35575f5ffd5b612a4189828a01612799565b979a9699509497509295939492505050565b5f5f5f5f5f5f5f5f60c0898b031215612a6a575f5ffd5b883597506020890135965060408901356001600160401b03811115612a8d575f5ffd5b612a998b828c01612799565b90975095505060608901356001600160401b03811115612ab7575f5ffd5b612ac38b828c016127e0565b90955093505060808901356001600160401b03811115612ae1575f5ffd5b612aed8b828c0161281d565b989b979a50959894979396929550929360a00135925050565b60208082526023908201527f446562657320756e69727465207072696d65726f20636f6e206a6f696e47616d60408201526265282960e81b606082015260800190565b60208082526021908201527f536f6c6f20656c2070726f666520707565646520656a656375746172206573746040820152606f60f81b606082015260800190565b60208082526026908201527f456c206a7565676f206675652063616e63656c61646f20706f7220696e6163746040820152651a5d9a59185960d21b606082015260800190565b60f89390931b6001600160f81b0319168352600183019190915260601b6bffffffffffffffffffffffff1916602182015260350190565b634e487b7160e01b5f52601160045260245ffd5b808201808211156126da576126da612c07565b634e487b7160e01b5f52603260045260245ffd5b5f5f8335601e19843603018112612c57575f5ffd5b8301803591506001600160401b03821115612c70575f5ffd5b6020019150368190038213156127d9575f5ffd5b81835281816020850137505f828201602090810191909152601f909101601f19169091010190565b60c081525f612cbf60c083018d8f612c84565b8281036020840152612cd2818c8e612c84565b90508281036040840152612ce7818a8c612c84565b90508281036060840152612cfc81888a612c84565b90508281036080840152612d11818688612c84565b9150508260a08301529c9b505050505050505050505050565b604081525f612d3d604083018587612c84565b82810360208401528060808101855f36829003601e19015b6004821015612dbf5785840385528235818112612d70575f5ffd5b89016020810190356001600160401b03811115612d8b575f5ffd5b803603821315612d99575f5ffd5b612da4868284612c84565b95505050602083019250602085019450600182019150612d55565b50919998505050505050505050565b600181811c90821680612de257607f821691505b602082108103612e0057634e487b7160e01b5f52602260045260245ffd5b50919050565b5f60018201612e1757612e17612c07565b5060010190565b5f60ff821660ff8103612e3357612e33612c07565b60010192915050565b5f81612e4a57612e4a612c07565b505f190190565b80820281158282048414176126da576126da612c07565b5f82612e8257634e487b7160e01b5f52601260045260245ffd5b500490565b818103818111156126da576126da612c07565b60208082526021908201527f456c2068617368206e6f20636f696e6369646520636f6e20747520636f6d6d696040820152601d60fa1b606082015260800190565b5f60208284031215612eeb575f5ffd5b6127378261278956fe9b779b17422d0df92223018b32b4d1fa46e071723d6817e2486d003becc55f00a26469706673582212200b1d92df7d49ea5930619948701237b72f9607ffc0c631f7af438ab7653ba94f64736f6c634300081c003360a060405234801561000f575f5ffd5b5060405161128438038061128483398101604081905261002e916100fa565b6040518060400160405280601381526020017f4b61686f6f742057656233204469706c6f6d61000000000000000000000000008152506040518060400160405280600381526020016212d5d160ea1b815250815f908161008e919061024d565b50600161009b828261024d565b5050506001600160a01b0382166100c55760405163e6c4247b60e01b815260040160405180910390fd5b6001600160a01b03821660805260076100de828261024d565b505050610307565b634e487b7160e01b5f52604160045260245ffd5b5f5f6040838503121561010b575f5ffd5b82516001600160a01b0381168114610121575f5ffd5b60208401519092506001600160401b0381111561013c575f5ffd5b8301601f8101851361014c575f5ffd5b80516001600160401b03811115610165576101656100e6565b604051601f8201601f19908116603f011681016001600160401b0381118282101715610193576101936100e6565b6040528181528282016020018710156101aa575f5ffd5b8160208401602083015e5f602083830101528093505050509250929050565b600181811c908216806101dd57607f821691505b6020821081036101fb57634e487b7160e01b5f52602260045260245ffd5b50919050565b601f82111561024857805f5260205f20601f840160051c810160208510156102265750805b601f840160051c820191505b81811015610245575f8155600101610232565b50505b505050565b81516001600160401b03811115610266576102666100e6565b61027a8161027484546101c9565b84610201565b6020601f8211600181146102ac575f83156102955750848201515b5f19600385901b1c1916600184901b178455610245565b5f84815260208120601f198516915b828110156102db57878501518255602094850194600190920191016102bb565b50848210156102f857868401515f19600387901b60f8161c191681555b50505050600190811b01905550565b608051610f5e6103265f395f818161019401526104a30152610f5e5ff3fe608060405234801561000f575f5ffd5b50600436106100fb575f3560e01c806370a0823111610093578063b88d4fde11610063578063b88d4fde1461022b578063c87b56dd1461023e578063e985e9c514610251578063fc154ff214610264575f5ffd5b806370a08231146101dc57806395d89b41146101fd578063a22cb46514610205578063af05ad1114610218575f5ffd5b806323b872dd116100ce57806323b872dd1461017c5780632438fe321461018f57806342842e0e146101b65780636352211e146101c9575f5ffd5b806301ffc9a7146100ff57806306fdde0314610127578063081812fc1461013c578063095ea7b314610167575b5f5ffd5b61011261010d366004610c0b565b61026c565b60405190151581526020015b60405180910390f35b61012f6102bd565b60405161011e9190610c5b565b61014f61014a366004610c6d565b61034c565b6040516001600160a01b03909116815260200161011e565b61017a610175366004610c9f565b610373565b005b61017a61018a366004610cc7565b610382565b61014f7f000000000000000000000000000000000000000000000000000000000000000081565b61017a6101c4366004610cc7565b610410565b61014f6101d7366004610c6d565b61042f565b6101ef6101ea366004610d01565b610439565b60405190815260200161011e565b61012f61047e565b61017a610213366004610d1a565b61048d565b61017a610226366004610d01565b610498565b61017a610239366004610d67565b610503565b61012f61024c366004610c6d565b61051b565b61011261025f366004610e44565b6105b7565b61012f6105e4565b5f6001600160e01b031982166380ac58cd60e01b148061029c57506001600160e01b03198216635b5e139f60e01b145b806102b757506301ffc9a760e01b6001600160e01b03198316145b92915050565b60605f80546102cb90610e75565b80601f01602080910402602001604051908101604052809291908181526020018280546102f790610e75565b80156103425780601f1061031957610100808354040283529160200191610342565b820191905f5260205f20905b81548152906001019060200180831161032557829003601f168201915b5050505050905090565b5f61035682610670565b505f828152600460205260409020546001600160a01b03166102b7565b61037e8282336106a8565b5050565b6001600160a01b0382166103b057604051633250574960e11b81525f60048201526024015b60405180910390fd5b5f6103bc8383336106b5565b9050836001600160a01b0316816001600160a01b03161461040a576040516364283d7b60e01b81526001600160a01b03808616600483015260248201849052821660448201526064016103a7565b50505050565b61042a83838360405180602001604052805f815250610503565b505050565b5f6102b782610670565b5f6001600160a01b038216610463576040516322718ad960e21b81525f60048201526024016103a7565b506001600160a01b03165f9081526003602052604090205490565b6060600180546102cb90610e75565b61037e3383836107a7565b336001600160a01b037f000000000000000000000000000000000000000000000000000000000000000016146104e35760405163a91baf8160e01b81523360048201526024016103a7565b600680545f91826104f383610ead565b91905055905061037e828261086e565b61050e848484610382565b61040a3385858585610887565b606061052682610670565b506007805461053490610e75565b80601f016020809104026020016040519081016040528092919081815260200182805461056090610e75565b80156105ab5780601f10610582576101008083540402835291602001916105ab565b820191905f5260205f20905b81548152906001019060200180831161058e57829003601f168201915b50505050509050919050565b6001600160a01b039182165f90815260056020908152604080832093909416825291909152205460ff1690565b600780546105f190610e75565b80601f016020809104026020016040519081016040528092919081815260200182805461061d90610e75565b80156106685780601f1061063f57610100808354040283529160200191610668565b820191905f5260205f20905b81548152906001019060200180831161064b57829003601f168201915b505050505081565b5f818152600260205260408120546001600160a01b0316806102b757604051637e27328960e01b8152600481018490526024016103a7565b61042a83838360016109af565b5f828152600260205260408120546001600160a01b03908116908316156106e1576106e1818486610ab3565b6001600160a01b0381161561071b576106fc5f855f5f6109af565b6001600160a01b0381165f90815260036020526040902080545f190190555b6001600160a01b03851615610749576001600160a01b0385165f908152600360205260409020805460010190555b5f8481526002602052604080822080546001600160a01b0319166001600160a01b0389811691821790925591518793918516917fddf252ad1be2c89b69c2b068fc378daa952ba7f163c4a11628f55a4df523b3ef91a4949350505050565b6001600160a01b0383166107d05760405163a9fbf51f60e01b81525f60048201526024016103a7565b6001600160a01b03821661080257604051630b61174360e31b81526001600160a01b03831660048201526024016103a7565b6001600160a01b038381165f81815260056020908152604080832094871680845294825291829020805460ff191686151590811790915591519182527f17307eab39ab6107e8899845ad3d59bd9653f200f220920489ca2b5937696c31910160405180910390a3505050565b61037e828260405180602001604052805f815250610b17565b6001600160a01b0383163b156109a857604051630a85bd0160e11b81526001600160a01b0384169063150b7a02906108c9908890889087908790600401610ed1565b6020604051808303815f875af1925050508015610903575060408051601f3d908101601f1916820190925261090091810190610f0d565b60015b61096a573d808015610930576040519150601f19603f3d011682016040523d82523d5f602084013e610935565b606091505b5080515f0361096257604051633250574960e11b81526001600160a01b03851660048201526024016103a7565b805160208201fd5b6001600160e01b03198116630a85bd0160e11b146109a657604051633250574960e11b81526001600160a01b03851660048201526024016103a7565b505b5050505050565b80806109c357506001600160a01b03821615155b15610a84575f6109d284610670565b90506001600160a01b038316158015906109fe5750826001600160a01b0316816001600160a01b031614155b8015610a115750610a0f81846105b7565b155b15610a3a5760405163a9fbf51f60e01b81526001600160a01b03841660048201526024016103a7565b8115610a825783856001600160a01b0316826001600160a01b03167f8c5be1e5ebec7d5bd14f71427d1e84f3dd0314c0f7b2291e5b200ac8c7c3b92560405160405180910390a45b505b50505f90815260046020526040902080546001600160a01b0319166001600160a01b0392909216919091179055565b610abe838383610b2e565b61042a576001600160a01b038316610aec57604051637e27328960e01b8152600481018290526024016103a7565b60405163177e802f60e01b81526001600160a01b0383166004820152602481018290526044016103a7565b610b218383610b92565b61042a335f858585610887565b5f6001600160a01b03831615801590610b8a5750826001600160a01b0316846001600160a01b03161480610b675750610b6784846105b7565b80610b8a57505f828152600460205260409020546001600160a01b038481169116145b949350505050565b6001600160a01b038216610bbb57604051633250574960e11b81525f60048201526024016103a7565b5f610bc783835f6106b5565b90506001600160a01b0381161561042a576040516339e3563760e11b81525f60048201526024016103a7565b6001600160e01b031981168114610c08575f5ffd5b50565b5f60208284031215610c1b575f5ffd5b8135610c2681610bf3565b9392505050565b5f81518084528060208401602086015e5f602082860101526020601f19601f83011685010191505092915050565b602081525f610c266020830184610c2d565b5f60208284031215610c7d575f5ffd5b5035919050565b80356001600160a01b0381168114610c9a575f5ffd5b919050565b5f5f60408385031215610cb0575f5ffd5b610cb983610c84565b946020939093013593505050565b5f5f5f60608486031215610cd9575f5ffd5b610ce284610c84565b9250610cf060208501610c84565b929592945050506040919091013590565b5f60208284031215610d11575f5ffd5b610c2682610c84565b5f5f60408385031215610d2b575f5ffd5b610d3483610c84565b915060208301358015158114610d48575f5ffd5b809150509250929050565b634e487b7160e01b5f52604160045260245ffd5b5f5f5f5f60808587031215610d7a575f5ffd5b610d8385610c84565b9350610d9160208601610c84565b925060408501359150606085013567ffffffffffffffff811115610db3575f5ffd5b8501601f81018713610dc3575f5ffd5b803567ffffffffffffffff811115610ddd57610ddd610d53565b604051601f8201601f19908116603f0116810167ffffffffffffffff81118282101715610e0c57610e0c610d53565b604052818152828201602001891015610e23575f5ffd5b816020840160208301375f6020838301015280935050505092959194509250565b5f5f60408385031215610e55575f5ffd5b610e5e83610c84565b9150610e6c60208401610c84565b90509250929050565b600181811c90821680610e8957607f821691505b602082108103610ea757634e487b7160e01b5f52602260045260245ffd5b50919050565b5f60018201610eca57634e487b7160e01b5f52601160045260245ffd5b5060010190565b6001600160a01b03858116825284166020820152604081018390526080606082018190525f90610f0390830184610c2d565b9695505050505050565b5f60208284031215610f1d575f5ffd5b8151610c2681610bf356fea26469706673582212208d40bf6584eff4b540bf10d4627c768999ef09b33d86e2baf3888996bcb7c27f64736f6c634300081c0033a26469706673582212201e59c8279ff5dc106ae08a964a311abbe5bcb78c71ef141b9ba48aa85f6d6aef64736f6c634300081c0033",
  "linkReferences": {},
  "deployedLinkReferences": {},
  "immutableReferences": {},
  "inputSourceName": "project/contracts/KahootFactory.sol",
  "buildInfoId": "solc-0_8_28-2303ca28f44dfada4418076afdbe2e284954f93e"
}