{
  "_format": "hh3-artifact-1",
  "contractName": "KahootFactory",
  "sourceName": "contracts/KahootFactory.sol",
  "abi": [
    {
      "inputs": [
        {
          "internalType": "uint256",
          "name": "_creationFee",
          "type": "uint256"
        }
      ],
      "stateMutability": "nonpayable",
      "type": "constructor"
    },
    {
      "anonymous": false,
      "inputs": [
        {
          "indexed": false,
          "internalType": "uint256",
          "name": "oldFee",
          "type": "uint256"
        },
        {
          "indexed": false,
          "internalType": "uint256",
          "name": "newFee",
          "type": "uint256"
        }
      ],
      "name": "CreationFeeUpdated",
      "type": "event"
    },
    {
      "anonymous": false,
      "inputs": [
        {
          "indexed": true,
          "internalType": "address",
          "name": "gameAddress",
          "type": "address"
        },
        {
          "indexed": true,
          "internalType": "address",
          "name": "professor",
          "type": "address"
        }
      ],
      "name": "GameCreated",
      "type": "event"
    },
    {
      "inputs": [
        {
          "internalType": "uint256",
          "name": "_passingScore",
          "type": "uint256"
        },
        {
          "internalType": "uint256",
          "name": "_totalQuestions",
          "type": "uint256"
        },
        {
          "internalType": "string",
          "name": "_diplomaTokenURI",
          "type": "string"
        },
        {
          "components": [
            {
              "internalType": "bytes32",
              "name": "hashVerificacionPregunta",
              "type": "bytes32"
            },
            {
              "internalType": "bytes32",
              "name": "hashRespuestaCorrecta",
              "type": "bytes32"
            },
            {
              "internalType": "bool",
              "name": "commitPhaseOpen",
              "type": "bool"
            },
            {
              "internalType": "bool",
              "name": "revealPhaseOpen",
              "type": "bool"
            }
          ],
          "internalType": "struct KahootGame.RondaOculta[]",
          "name": "_rondas",
          "type": "tuple[]"
        },
        {
          "internalType": "uint256",
          "name": "_entryFee",
          "type": "uint256"
        }
      ],
      "name": "createGame",
      "outputs": [
        {
          "internalType": "address",
          "name": "",
          "type": "address"
        }
      ],
      "stateMutability": "payable",
      "type": "function"
    },
    {
      "inputs": [],
      "name": "creationFee",
      "outputs": [
        {
          "internalType": "uint256",
          "name": "",
          "type": "uint256"
        }
      ],
      "stateMutability": "view",
      "type": "function"
    },
    {
      "inputs": [
        {
          "internalType": "uint256",
          "name": "",
          "type": "uint256"
        }
      ],
      "name": "games",
      "outputs": [
        {
          "internalType": "contract KahootGame",
          "name": "",
          "type": "address"
        }
      ],
      "stateMutability": "view",
      "type": "function"
    },
    {
      "inputs": [],
      "name": "getGamesCount",
      "outputs": [
        {
          "internalType": "uint256",
          "name": "",
          "type": "uint256"
        }
      ],
      "stateMutability": "view",
      "type": "function"
    },
    {
      "inputs": [
        {
          "internalType": "address",
          "name": "_profesor",
          "type": "address"
        }
      ],
      "name": "getKahootsDeProfesor",
      "outputs": [
        {
          "internalType": "contract KahootGame[]",
          "name": "",
          "type": "address[]"
        }
      ],
      "stateMutability": "view",
      "type": "function"
    },
    {
      "inputs": [
        {
          "internalType": "address",
          "name": "",
          "type": "address"
        },
        {
          "internalType": "uint256",
          "name": "",
          "type": "uint256"
        }
      ],
      "name": "kahootsDeProfesor",
      "outputs": [
        {
          "internalType": "contract KahootGame",
          "name": "",
          "type": "address"
        }
      ],
      "stateMutability": "view",
      "type": "function"
    },
    {
      "inputs": [],
      "name": "owner",
      "outputs": [
        {
          "internalType": "address",
          "name": "",
          "type": "address"
        }
      ],
      "stateMutability": "view",
      "type": "function"
    },
    {
      "inputs": [
        {
          "internalType": "uint256",
          "name": "_newFee",
          "type": "uint256"
        }
      ],
      "name": "setCreationFee",
      "outputs": [],
      "stateMutability": "nonpayable",
      "type": "function"
    },
    {
      "inputs": [],
      "name": "withdrawFees",
      "outputs": [],
      "stateMutability": "nonpayable",
      "type": "function"
    }
  ],
  "bytecode": "0x6080604052348015600e575f5ffd5b5060405161545a38038061545a833981016040819052602b916044565b600180546001600160a01b03191633179055600255605a565b5f602082840312156053575f5ffd5b5051919050565b6153f3806100675f395ff3fe608060405260043610610084575f3560e01c80638da5cb5b116100575780638da5cb5b14610116578063955cf94a14610135578063b7d8622514610161578063dce0b4e414610180578063f720a90014610195575f5ffd5b8063117a5b901461008857806317b7a476146100c4578063476343ee146100e15780637356a500146100f7575b5f5ffd5b348015610093575f5ffd5b506100a76100a2366004610575565b6101a8565b6040516001600160a01b0390911681526020015b60405180910390f35b3480156100cf575f5ffd5b505f545b6040519081526020016100bb565b3480156100ec575f5ffd5b506100f56101cf565b005b348015610102575f5ffd5b506100a76101113660046105a7565b6102f5565b348015610121575f5ffd5b506001546100a7906001600160a01b031681565b348015610140575f5ffd5b5061015461014f3660046105cf565b610329565b6040516100bb91906105ef565b34801561016c575f5ffd5b506100f561017b366004610575565b61039c565b34801561018b575f5ffd5b506100d360025481565b6100a76101a3366004610682565b610427565b5f81815481106101b6575f80fd5b5f918252602090912001546001600160a01b0316905081565b6001546001600160a01b0316331461021e5760405162461bcd60e51b815260206004820152600d60248201526c29b7b6379032b61037bbb732b960991b60448201526064015b60405180910390fd5b47806102595760405162461bcd60e51b815260206004820152600a60248201526953696e20666f6e646f7360b01b6044820152606401610215565b6001546040515f916001600160a01b03169083908381818185875af1925050503d805f81146102a3576040519150601f19603f3d011682016040523d82523d5f602084013e6102a8565b606091505b50509050806102f15760405162461bcd60e51b81526020600482015260156024820152745472616e73666572656e6369612066616c6c69646160581b6044820152606401610215565b5050565b6003602052815f5260405f20818154811061030e575f80fd5b5f918252602090912001546001600160a01b03169150829050565b6001600160a01b0381165f9081526003602090815260409182902080548351818402810184019094528084526060939283018282801561039057602002820191905f5260205f20905b81546001600160a01b03168152600190910190602001808311610372575b50505050509050919050565b6001546001600160a01b031633146103e65760405162461bcd60e51b815260206004820152600d60248201526c29b7b6379032b61037bbb732b960991b6044820152606401610215565b60025460408051918252602082018390527f5de302eeb1c80d4fb0c0953b692353f09ddf431411b8eb2034d5e85769561912910160405180910390a1600255565b5f60025434101561047a5760405162461bcd60e51b815260206004820152601f60248201527f546172696661206465206372656163696f6e20696e737566696369656e7465006044820152606401610215565b5f30338a8a8a8a8a8a8a60405161049090610568565b6104a29998979695949392919061074a565b604051809103905ff0801580156104bb573d5f5f3e3d5ffd5b505f8054600181810183557f290decd9548b62a8d60345a988386fc84ba6bc95484008f6362f93160ef3e56390910180546001600160a01b0385166001600160a01b0319918216811790925533808552600360209081526040808720805496870181558752908620909401805490921683179091559151939450909290917fb60d84e37a6658effce28870b1d123cb86f86409df5888679310c0f276e1f5d291a398975050505050505050565b614ba38061081b83390190565b5f60208284031215610585575f5ffd5b5035919050565b80356001600160a01b03811681146105a2575f5ffd5b919050565b5f5f604083850312156105b8575f5ffd5b6105c18361058c565b946020939093013593505050565b5f602082840312156105df575f5ffd5b6105e88261058c565b9392505050565b602080825282518282018190525f918401906040840190835b8181101561062f5783516001600160a01b0316835260209384019390920191600101610608565b509095945050505050565b5f5f83601f84011261064a575f5ffd5b50813567ffffffffffffffff811115610661575f5ffd5b6020830191508360208260071b850101111561067b575f5ffd5b9250929050565b5f5f5f5f5f5f5f60a0888a031215610698575f5ffd5b8735965060208801359550604088013567ffffffffffffffff8111156106bc575f5ffd5b8801601f81018a136106cc575f5ffd5b803567ffffffffffffffff8111156106e2575f5ffd5b8a60208284010111156106f3575f5ffd5b60209190910195509350606088013567ffffffffffffffff811115610716575f5ffd5b6107228a828b0161063a565b989b979a50959894979596608090950135949350505050565b803580151581146105a2575f5ffd5b6001600160a01b038a8116825289166020820152604081018890526060810187905260e060808201819052810185905284866101008301375f6101008683018101829052601f19601f8801168301838103820160a085015290810185905285908290610120015b868210156108005782358152602080840135908201526107d36040840161073b565b151560408201526107e66060840161073b565b1515606082015260809283019260019290920191016107b1565b8093505050508260c08301529a995050505050505050505056fe608060405234801561000f575f5ffd5b50604051614ba3380380614ba383398101604081905261002e91610423565b60017f9b779b17422d0df92223018b32b4d1fa46e071723d6817e2486d003becc55f0055836100a45760405162461bcd60e51b815260206004820152601460248201527f446562652074656e65722070726567756e74617300000000000000000000000060448201526064015b60405180910390fd5b5f85116100e65760405162461bcd60e51b815260206004820152601060248201526f50756e74616a6520696e76616c69646f60801b604482015260640161009b565b838511156101365760405162461bcd60e51b815260206004820152601660248201527f50756e74616a65206d61796f7220616c20746f74616c00000000000000000000604482015260640161009b565b838251146101955760405162461bcd60e51b815260206004820152602660248201527f526f6e646173206e6f20636f696e636964656e20636f6e20746f74616c5175656044820152657374696f6e7360d01b606482015260840161009b565b5f80546001600160a01b03808a166001600160a01b031992831617835560018054918a169190921617905560038690556004859055600c8290555b82518110156102555760088382815181106101ed576101ed610523565b6020908102919091018101518254600180820185555f948552938390208251600390920201908155918101518284015560408101516002909201805460609092015161ffff1990921692151561ff0019169290921761010091151591909102179055016101d0565b503083604051610264906102ba565b61026f929190610537565b604051809103905ff080158015610288573d5f5f3e3d5ffd5b50600280546001600160a01b0319166001600160a01b0392909216919091179055505042601d555061057b9350505050565b6117098061349a83390190565b80516001600160a01b03811681146102dd575f5ffd5b919050565b634e487b7160e01b5f52604160045260245ffd5b604051608081016001600160401b0381118282101715610318576103186102e2565b60405290565b604051601f8201601f191681016001600160401b0381118282101715610346576103466102e2565b604052919050565b805180151581146102dd575f5ffd5b5f82601f83011261036c575f5ffd5b81516001600160401b03811115610385576103856102e2565b61039460208260051b0161031e565b8082825260208201915060208360071b8601019250858311156103b5575f5ffd5b602085015b8381101561041957608081880312156103d1575f5ffd5b6103d96102f6565b81518152602080830151908201526103f36040830161034e565b60408201526104046060830161034e565b606082015283526020909201916080016103ba565b5095945050505050565b5f5f5f5f5f5f5f60e0888a031215610439575f5ffd5b610442886102c7565b9650610450602089016102c7565b604089015160608a015160808b015192985090965094506001600160401b0381111561047a575f5ffd5b8801601f81018a1361048a575f5ffd5b80516001600160401b038111156104a3576104a36102e2565b6104b6601f8201601f191660200161031e565b8181528b60208385010111156104ca575f5ffd5b8160208401602083015e5f9181016020019190915260a08a015190945090506001600160401b038111156104fc575f5ffd5b6105088a828b0161035d565b9250505f60c089015190508091505092959891949750929550565b634e487b7160e01b5f52603260045260245ffd5b60018060a01b0383168152604060208201525f82518060408401528060208501606085015e5f606082850101526060601f19601f8301168401019150509392505050565b612f12806105885f395ff3fe60806040526004361061021d575f3560e01c80637a82513a1161011e578063b043b8c9116100a8578063c45a01551161006d578063c45a01551461066e578063d4f77b1c1461068c578063e3ccbd1314610694578063e91ac3bf146106b3578063ef6eedc1146106c7575f5ffd5b8063b043b8c9146105d1578063b5545a3c146105f0578063bdf22ab414610604578063bea5b91414610619578063c1661db11461062e575f5ffd5b8063877f4e12116100ee578063877f4e12146104f9578063885d68a8146105275780638e7e9a3c1461055d57806395ee1221146105715780639a297c011461058a575f5ffd5b80637a82513a1461048d5780637b352962146104ac5780637b3e3212146104c55780637c7dd8ba146104e4575f5ffd5b8063381e47cd116101aa57806366eb597a1161016f57806366eb597a146103f257806370740ac91461040b578063719ce73e1461041f57806373b2e80e1461043457806376dd110f14610462575f5ffd5b8063381e47cd1461035c5780634f2632331461037b5780635113940d146103a6578063565b7995146103c55780635d132b91146103de575f5ffd5b806313801538116101f057806313801538146102aa57806315da65a5146102e85780631a5e0f37146102fd57806324f1ce4e1461031e57806333a3b9e21461033d575f5ffd5b8063072ea61c14610221578063085f0316146102495780630e3c5ccb1461025e578063116380e314610273575b5f5ffd5b34801561022c575f5ffd5b50610236600c5481565b6040519081526020015b60405180910390f35b348015610254575f5ffd5b50610236601d5481565b348015610269575f5ffd5b50610236601a5481565b34801561027e575f5ffd5b50600254610292906001600160a01b031681565b6040516001600160a01b039091168152602001610240565b3480156102b5575f5ffd5b506102d86102c43660046126ba565b601b6020525f908152604090205460ff1681565b6040519015158152602001610240565b3480156102f3575f5ffd5b5061023660055481565b348015610308575f5ffd5b5061031c6103173660046126da565b6106e6565b005b348015610329575f5ffd5b5061031c610338366004612745565b610849565b348015610348575f5ffd5b5061031c6103573660046127a7565b610a6f565b348015610367575f5ffd5b506102366103763660046126da565b610c8d565b348015610386575f5ffd5b506102366103953660046126da565b600f6020525f908152604090205481565b3480156103b1575f5ffd5b50600154610292906001600160a01b031681565b3480156103d0575f5ffd5b506010546102d89060ff1681565b3480156103e9575f5ffd5b5061031c610ca3565b3480156103fd575f5ffd5b50601c546102d89060ff1681565b348015610416575f5ffd5b5061031c610deb565b34801561042a575f5ffd5b50610236600d5481565b34801561043f575f5ffd5b506102d861044e3660046126ba565b600b6020525f908152604090205460ff1681565b34801561046d575f5ffd5b5061023661047c3660046126ba565b600a6020525f908152604090205481565b348015610498575f5ffd5b5061031c6104a73660046128b0565b6111b0565b3480156104b7575f5ffd5b506007546102d89060ff1681565b3480156104d0575f5ffd5b5061031c6104df366004612962565b6114a6565b3480156104ef575f5ffd5b5061023661a8c081565b348015610504575f5ffd5b506102d86105133660046126ba565b600e6020525f908152604090205460ff1681565b348015610532575f5ffd5b50610236610541366004612a37565b600960209081525f928352604080842090915290825290205481565b348015610568575f5ffd5b5061031c6118a7565b34801561057c575f5ffd5b50601e546102d89060ff1681565b348015610595575f5ffd5b506105a96105a43660046126da565b611c21565b6040805194855260208501939093529015159183019190915215156060820152608001610240565b3480156105dc575f5ffd5b5061031c6105eb366004612a61565b611c5e565b3480156105fb575f5ffd5b5061031c611f82565b34801561060f575f5ffd5b5061023660035481565b348015610624575f5ffd5b5061023660045481565b348015610639575f5ffd5b5061065c6106483660046126da565b60066020525f908152604090205460ff1681565b60405160ff9091168152602001610240565b348015610679575f5ffd5b505f54610292906001600160a01b031681565b61031c61228d565b34801561069f575f5ffd5b506102366106ae3660046126da565b61248d565b3480156106be575f5ffd5b5061031c61249c565b3480156106d2575f5ffd5b506102366106e13660046126da565b612646565b335f908152600e602052604090205460ff1661071d5760405162461bcd60e51b815260040161071490612af8565b60405180910390fd5b600554600880548290811061073457610734612b3b565b5f91825260209091206002600390920201015460ff1661078f5760405162461bcd60e51b81526020600482015260166024820152754661736520646520636f6d6d6974206365727261646160501b6044820152606401610714565b816107c85760405162461bcd60e51b815260206004820152600960248201526848617368206e756c6f60b81b6044820152606401610714565b5f8181526009602090815260408083203384529091529020541561082e5760405162461bcd60e51b815260206004820152601c60248201527f596120726573706f6e646973746520657374612070726567756e7461000000006044820152606401610714565b5f908152600960209081526040808320338452909152902055565b6001546001600160a01b031633146108735760405162461bcd60e51b815260040161071490612b4f565b601e5460ff16156108965760405162461bcd60e51b815260040161071490612b90565b60055460088054829081106108ad576108ad612b3b565b5f91825260209091206002600390920201015460ff1661090b5760405162461bcd60e51b8152602060048201526019602482015278139bc8195cdd1848195b8819985cd94819194818dbdb5b5a5d603a1b6044820152606401610714565b5f848484336040516020016109239493929190612bd6565b6040516020818303038152906040528051906020012090506008828154811061094e5761094e612b3b565b905f5260205f2090600302016001015481146109ac5760405162461bcd60e51b815260206004820152601c60248201527f486173682064652072657370756573746120696e636f72726563746f000000006044820152606401610714565b5f828152600660205260408120805460ff191660ff881617905560088054849081106109da576109da612b3b565b905f5260205f2090600302016002015f6101000a81548160ff021916908315150217905550600160088381548110610a1457610a14612b3b565b5f9182526020822060026003909202010180549215156101000261ff00199093169290921790915542601d5560405183917f9f48cac694ad868cba9c30d5ff1dfdeb034062b2d87eb6d32e5318392faeb08f91a25050505050565b335f908152600e602052604090205460ff16610a9d5760405162461bcd60e51b815260040161071490612af8565b60088381548110610ab057610ab0612b3b565b905f5260205f20906003020160020160019054906101000a900460ff16610b125760405162461bcd60e51b8152602060048201526016602482015275466173652064652072657665616c206365727261646160501b6044820152606401610714565b5f83815260096020908152604080832033845290915290205480610b835760405162461bcd60e51b815260206004820152602260248201527f4e6f206869636973746520636f6d6d697420656e20657374612070726567756e604482015261746160f01b6064820152608401610714565b5f838333604051602001610b9993929190612c19565b604051602081830303815290604052805190602001209050818114610bd05760405162461bcd60e51b815260040161071490612c5e565b5f8581526009602090815260408083203384528252808320839055878352600690915290205460ff90811690851603610c8657335f908152600a6020908152604080832054808452600f909252822080549192600192610c31908490612cb3565b90915550610c429050816001612cc6565b335f908152600a6020526040812091909155600190600f90610c648484612cc6565b81526020019081526020015f205f828254610c7f9190612cc6565b9091555050505b5050505050565b60178160038110610c9c575f80fd5b0154905081565b6001546001600160a01b03163314610ccd5760405162461bcd60e51b815260040161071490612b4f565b601e5460ff1615610cf05760405162461bcd60e51b815260040161071490612b90565b6005546008805482908110610d0757610d07612b3b565b905f5260205f20906003020160020160019054906101000a900460ff16610d7a5760405162461bcd60e51b815260206004820152602160248201527f5072696d65726f2068617920717565206162726972206c6f732072657665616c6044820152607360f81b6064820152608401610714565b5f60088281548110610d8e57610d8e612b3b565b905f5260205f20906003020160020160016101000a81548160ff021916908315150217905550600160055f828254610dc69190612cc6565b909155505042601d5560045460055403610de8576007805460ff191660011790555b50565b610df3612655565b60105460ff16610e585760405162461bcd60e51b815260206004820152602a60248201527f5072696d65726f2073652064656265206c6c616d617220612063616c63756c6160448201526974655072697a6573282960b01b6064820152608401610714565b6001545f906001600160a01b03163303610f2657601c5460ff1615610ebf5760405162461bcd60e51b815260206004820152601f60248201527f456c2070726f6665736f722079612072657469726f207375207072656d696f006044820152606401610714565b5f601a5411610f105760405162461bcd60e51b815260206004820152601e60248201527f4e6f20686179207072656d696f207061726120656c2070726f6665736f7200006044820152606401610714565b50601c805460ff19166001179055601a546110cc565b335f908152600e602052604090205460ff16610f845760405162461bcd60e51b815260206004820152601d60248201527f4e6f2070617274696369706173746520656e2065737465206a7565676f0000006044820152606401610714565b335f908152601b602052604090205460ff1615610fdc5760405162461bcd60e51b8152602060048201526016602482015275596120726574697261737465207475207072656d696f60501b6044820152606401610714565b335f908152600a6020526040812054905b60038160ff161015611061575f60148260ff166003811061101057611010612b3b565b0154118015611035575060118160ff166003811061103057611030612b3b565b015482145b156110595760178160ff166003811061105057611050612b3b565b01549250611061565b600101610fed565b505f82116110b15760405162461bcd60e51b815260206004820152601e60248201527f54752070756e74616a65206e6f206573746120656e20656c20746f70203300006044820152606401610714565b50335f908152601b60205260409020805460ff191660011790555b6040515f90339083908381818185875af1925050503d805f811461110b576040519150601f19603f3d011682016040523d82523d5f602084013e611110565b606091505b50509050806111615760405162461bcd60e51b815260206004820152601d60248201527f4c61207472616e73666572656e636961206465204554482066616c6c6f0000006044820152606401610714565b60405182815233907f95681e512bc0fe659e195e06c283eada494316f3d801213e48e7101af92bf7709060200160405180910390a250506111ae60015f516020612ebd5f395f51905f5255565b565b335f908152600e602052604090205460ff166111de5760405162461bcd60e51b815260040161071490612af8565b84831480156111ec57508281145b61122d5760405162461bcd60e51b81526020600482015260126024820152714d69736d617463686564206c656e6774687360701b6044820152606401610714565b5f5b8581101561149d575f87878381811061124a5761124a612b3b565b9050602002013590506008818154811061126657611266612b3b565b905f5260205f20906003020160020160019054906101000a900460ff168061128f575060055481105b8061129c575060075460ff165b6112fa5760405162461bcd60e51b815260206004820152602960248201527f466173652064652072657665616c2063657272616461206f206e6f20657320656044820152686c206d6f6d656e746f60b81b6064820152608401610714565b5f8181526009602090815260408083203384529091529020548061131f575050611495565b5f87878581811061133257611332612b3b565b90506020020160208101906113479190612cd9565b86868681811061135957611359612b3b565b905060200281019061136b9190612cf2565b3360405160200161137f9493929190612bd6565b6040516020818303038152906040528051906020012090508181146113b65760405162461bcd60e51b815260040161071490612c5e565b5f8381526009602090815260408083203384528252808320839055858352600690915290205460ff168888868181106113f1576113f1612b3b565b90506020020160208101906114069190612cd9565b60ff160361149157335f908152600a6020908152604080832054808452600f90925282208054919260019261143c908490612cb3565b9091555061144d9050816001612cc6565b335f908152600a6020526040812091909155600190600f9061146f8484612cc6565b81526020019081526020015f205f82825461148a9190612cc6565b9091555050505b5050505b60010161122f565b50505050505050565b6001546001600160a01b031633146114d05760405162461bcd60e51b815260040161071490612b4f565b601e5460ff16156114f35760405162461bcd60e51b815260040161071490612b90565b600554600880548290811061150a5761150a612b3b565b5f91825260209091206002600390920201015460ff166115685760405162461bcd60e51b8152602060048201526019602482015278139bc8195cdd1848195b8819985cd94819194818dbdb5b5a5d603a1b6044820152606401610714565b5f898989336040516020016115809493929190612bd6565b604051602081830303815290604052805190602001209050600882815481106115ab576115ab612b3b565b905f5260205f2090600302016001015481146116095760405162461bcd60e51b815260206004820152601c60248201527f486173682064652072657370756573746120696e636f72726563746f000000006044820152606401610714565b5f828152600660205260408120805460ff191660ff8d16179055600880548490811061163757611637612b3b565b5f9182526020822060039190910201600201805460ff191692151592909217909155600880548490811061166d5761166d612b3b565b5f9182526020822060026003909202010180549215156101000261ff00199093169290921790915560405183917f9f48cac694ad868cba9c30d5ff1dfdeb034062b2d87eb6d32e5318392faeb08f91a2600160055f8282546116cf9190612cc6565b9091555050600554600454811061171f5760405162461bcd60e51b81526020600482015260146024820152734e6f20686179206d61732070726567756e74617360601b6044820152606401610714565b5f888861172c8980612cf2565b61173960208c018c612cf2565b61174660408e018e612cf2565b8e60036020028101906117599190612cf2565b8f8f6040516020016117769c9b9a99989796959493929190612d34565b604051602081830303815290604052805190602001209050600882815481106117a1576117a1612b3b565b905f5260205f2090600302015f015481146117fa5760405162461bcd60e51b8152602060048201526019602482015278486173682064652070726567756e746120696e76616c69646f60381b6044820152606401610714565b60016008838154811061180f5761180f612b3b565b5f9182526020822060039190910201600201805460ff19169215159290921790915542601d5560405183917fe1925ed1b18a09ca8c0798ae918409f2db5036dfd27b61f1f433d17fc68b9ab491a2817f396da80a66a431ebe4395ffecf7669105c6f1c07c69a99c25835e1b77d840dad8a8a8a60405161189193929190612daf565b60405180910390a2505050505050505050505050565b60075460ff166118f45760405162461bcd60e51b8152602060048201526018602482015277456c206a7565676f206e6f206861207465726d696e61646f60401b6044820152606401610714565b60105460ff16156119475760405162461bcd60e51b815260206004820181905260248201527f4c6f73207072656d696f7320796120667565726f6e2063616c63756c61646f736044820152606401610714565b5f600d54116119a75760405162461bcd60e51b815260206004820152602660248201527f4e6f2068617920706f7a6f206465207072656d696f73207061726120646973746044820152653934b13ab4b960d11b6064820152608401610714565b6010805460ff19166001179055600d545f906064906119c790603c612e53565b6119d19190612e6a565b90505f6064600d5460146119e59190612e53565b6119ef9190612e6a565b90505f6064600d54600a611a039190612e53565b611a0d9190612e6a565b6004549091505f90819081905b6003841015611b86575f818152600f60205260409020548015611b66575f611a43866001612cc6565b90505f611a508388612cc6565b90505f60018311801590611a65575060018210155b15611a7757611a748b82612cc6565b90505b60028311158015611a89575060028210155b15611a9b57611a988a82612cc6565b90505b60038311158015611aad575060038210155b15611abf57611abc8982612cc6565b90505b8015611b56578460118860ff1660038110611adc57611adc612b3b565b015583601460ff891660038110611af557611af5612b3b565b0155611b018482612e6a565b60178860ff1660038110611b1757611b17612b3b565b015583601760ff891660038110611b3057611b30612b3b565b0154611b3c9190612e53565b611b469087612cc6565b955086611b5281612e89565b9750505b611b608489612cc6565b97505050505b815f03611b735750611b86565b81611b7d81612ea7565b92505050611a1a565b5080600d54611b959190612cb3565b601a557f3a15c38dc3a696664486bb89549cadff81d8efcdfd8baa3151f55f445d4ac46e600160ff84161015611bcb575f611bcf565b6011545b60028460ff161015611be1575f611be5565b6012545b60038560ff161015611bf7575f611bfb565b6013545b6040805193845260208401929092529082015260600160405180910390a1505050505050565b60088181548110611c30575f80fd5b5f91825260209091206003909102018054600182015460029092015490925060ff8082169161010090041684565b6001546001600160a01b03163314611c885760405162461bcd60e51b815260040161071490612b4f565b601e5460ff1615611cab5760405162461bcd60e51b815260040161071490612b90565b60075460ff1615611cf15760405162461bcd60e51b815260206004820152601060248201526f456c206a7565676f207465726d696e6f60801b6044820152606401610714565b6005548015611dbd576008611d07600183612cb3565b81548110611d1757611d17612b3b565b5f91825260209091206002600390920201015460ff16158015611d7157506008611d42600183612cb3565b81548110611d5257611d52612b3b565b905f5260205f20906003020160020160019054906101000a900460ff16155b611dbd5760405162461bcd60e51b815260206004820152601760248201527f48617920756e612070726567756e7461206163746976610000000000000000006044820152606401610714565b6004548110611e055760405162461bcd60e51b81526020600482015260146024820152734e6f20686179206d61732070726567756e74617360601b6044820152606401610714565b5f8686611e128780612cf2565b611e1f60208a018a612cf2565b611e2c60408c018c612cf2565b611e3960608e018e612cf2565b8d8d604051602001611e569c9b9a99989796959493929190612d34565b60405160208183030381529060405280519060200120905060088281548110611e8157611e81612b3b565b905f5260205f2090600302015f01548114611eda5760405162461bcd60e51b8152602060048201526019602482015278486173682064652070726567756e746120696e76616c69646f60381b6044820152606401610714565b600160088381548110611eef57611eef612b3b565b5f9182526020822060039190910201600201805460ff19169215159290921790915542601d5560405183917fe1925ed1b18a09ca8c0798ae918409f2db5036dfd27b61f1f433d17fc68b9ab491a2817f396da80a66a431ebe4395ffecf7669105c6f1c07c69a99c25835e1b77d840dad888888604051611f7193929190612daf565b60405180910390a250505050505050565b611f8a612655565b335f908152600e602052604090205460ff16611fe85760405162461bcd60e51b815260206004820152601d60248201527f4e6f2070617274696369706173746520656e2065737465206a7565676f0000006044820152606401610714565b335f908152601b602052604090205460ff16156120525760405162461bcd60e51b815260206004820152602260248201527f59612072657469726173746520756e207072656d696f206f207265656d626f6c604482015261736f60f01b6064820152608401610714565b61a8c0601d546120629190612cc6565b4210156120c15760405162461bcd60e51b815260206004820152602760248201527f456c2074696d656f757420646520696e6163746976696461642061756e206e6f6044820152662076656e63696f60c81b6064820152608401610714565b60075460ff16156121225760405162461bcd60e51b815260206004820152602560248201527f456c206a7565676f207961207465726d696e6f3b2075736120636c61696d5072604482015264697a65282960d81b6064820152608401610714565b335f908152601b60205260408120805460ff19166001179055600c54600d805491929091612151908490612cb3565b9091555050601e5460ff166121a857601e805460ff191660011790556040517f0eba9245670e53c48b16c055d88729ddb0dd01afe009fbcad1d4de13a0b9777a9061219f9042815260200190565b60405180910390a15b600c546040515f9133918381818185875af1925050503d805f81146121e8576040519150601f19603f3d011682016040523d82523d5f602084013e6121ed565b606091505b505090508061223e5760405162461bcd60e51b815260206004820152601d60248201527f4c61207472616e73666572656e636961206465204554482066616c6c6f0000006044820152606401610714565b600c5460405190815233907f358fe4192934d3bf28ae181feda1f4bd08ca67f5e2fad55582cce5eb67304ae99060200160405180910390a2506111ae60015f516020612ebd5f395f51905f5255565b601e5460ff16156122b05760405162461bcd60e51b815260040161071490612b90565b6005541580156122e6575060085f815481106122ce576122ce612b3b565b5f91825260209091206002600390920201015460ff16155b6123325760405162461bcd60e51b815260206004820181905260248201527f456c206a7565676f20796120636f6d656e7a6f206f207961207465726d696e6f6044820152606401610714565b335f908152600e602052604090205460ff16156123895760405162461bcd60e51b8152602060048201526015602482015274596120746520756e6973746520616c206a7565676f60581b6044820152606401610714565b600c5434146123e65760405162461bcd60e51b8152602060048201526024808201527f446562657320656e76696172206578616374616d656e746520656c20656e74726044820152637946656560e01b6064820152608401610714565b335f908152600e60205260408120805460ff19166001179055600d8054349290612411908490612cc6565b90915550505f808052600f6020527ff4803e074bd026baaf6ed2e288c9515f68c72fb7216eebdd7cae1718a53ec375805460019290612451908490612cc6565b909155505060405134815233907f3330a6773675f31f62070870f40379f8c6d42e3761410011a4dfc42b18043d2f9060200160405180910390a2565b60118160038110610c9c575f80fd5b60075460ff166124e95760405162461bcd60e51b8152602060048201526018602482015277456c206a7565676f206e6f206861207465726d696e61646f60401b6044820152606401610714565b335f908152600b602052604090205460ff16156125485760405162461bcd60e51b815260206004820152601860248201527f5961207265636c616d61737465207475206469706c6f6d6100000000000000006044820152606401610714565b600354335f908152600a602052604090205410156125a85760405162461bcd60e51b815260206004820152601d60248201527f4e6f20616c63616e7a617320656c2070756e74616a65206d696e696d6f0000006044820152606401610714565b335f818152600b602052604090819020805460ff19166001179055600254905163af05ad1160e01b815260048101929092526001600160a01b03169063af05ad11906024015f604051808303815f87803b158015612604575f5ffd5b505af1158015612616573d5f5f3e3d5ffd5b50506040513392507f7eb95b23bdc14656738c72aeadbb1777cdb36ea43c622ddeb9b2c871935fb36e91505f90a2565b60148160038110610c9c575f80fd5b61265d612670565b60025f516020612ebd5f395f51905f5255565b5f516020612ebd5f395f51905f52546002036111ae57604051633ee5aeb560e01b815260040160405180910390fd5b80356001600160a01b03811681146126b5575f5ffd5b919050565b5f602082840312156126ca575f5ffd5b6126d38261269f565b9392505050565b5f602082840312156126ea575f5ffd5b5035919050565b803560ff811681146126b5575f5ffd5b5f5f83601f840112612711575f5ffd5b5081356001600160401b03811115612727575f5ffd5b60208301915083602082850101111561273e575f5ffd5b9250929050565b5f5f5f60408486031215612757575f5ffd5b612760846126f1565b925060208401356001600160401b0381111561277a575f5ffd5b61278686828701612701565b9497909650939450505050565b634e487b7160e01b5f52604160045260245ffd5b5f5f5f606084860312156127b9575f5ffd5b833592506127c9602085016126f1565b915060408401356001600160401b038111156127e3575f5ffd5b8401601f810186136127f3575f5ffd5b80356001600160401b0381111561280c5761280c612793565b604051601f8201601f19908116603f011681016001600160401b038111828210171561283a5761283a612793565b604052818152828201602001881015612851575f5ffd5b816020840160208301375f602083830101528093505050509250925092565b5f5f83601f840112612880575f5ffd5b5081356001600160401b03811115612896575f5ffd5b6020830191508360208260051b850101111561273e575f5ffd5b5f5f5f5f5f5f606087890312156128c5575f5ffd5b86356001600160401b038111156128da575f5ffd5b6128e689828a01612870565b90975095505060208701356001600160401b03811115612904575f5ffd5b61291089828a01612870565b90955093505060408701356001600160401b0381111561292e575f5ffd5b61293a89828a01612870565b979a9699509497509295939492505050565b806080810183101561295c575f5ffd5b92915050565b5f5f5f5f5f5f5f5f60a0898b031215612979575f5ffd5b612982896126f1565b975060208901356001600160401b0381111561299c575f5ffd5b6129a88b828c01612701565b90985096505060408901356001600160401b038111156129c6575f5ffd5b6129d28b828c01612701565b90965094505060608901356001600160401b038111156129f0575f5ffd5b6129fc8b828c0161294c565b93505060808901356001600160401b03811115612a17575f5ffd5b612a238b828c01612701565b999c989b5096995094979396929594505050565b5f5f60408385031215612a48575f5ffd5b82359150612a586020840161269f565b90509250929050565b5f5f5f5f5f60608688031215612a75575f5ffd5b85356001600160401b03811115612a8a575f5ffd5b612a9688828901612701565b90965094505060208601356001600160401b03811115612ab4575f5ffd5b612ac08882890161294c565b93505060408601356001600160401b03811115612adb575f5ffd5b612ae788828901612701565b969995985093965092949392505050565b60208082526023908201527f446562657320756e69727465207072696d65726f20636f6e206a6f696e47616d60408201526265282960e81b606082015260800190565b634e487b7160e01b5f52603260045260245ffd5b60208082526021908201527f536f6c6f20656c2070726f666520707565646520656a656375746172206573746040820152606f60f81b606082015260800190565b60208082526026908201527f456c206a7565676f206675652063616e63656c61646f20706f7220696e6163746040820152651a5d9a59185960d21b606082015260800190565b60f885901b6001600160f81b03191681528284600183013760609190911b6bffffffffffffffffffffffff19166001919092019081019190915260150192915050565b60ff60f81b8460f81b1681525f83518060208601600185015e60609390931b6bffffffffffffffffffffffff1916600192909301918201929092526015019392505050565b60208082526021908201527f456c2068617368206e6f20636f696e6369646520636f6e20747520636f6d6d696040820152601d60fa1b606082015260800190565b634e487b7160e01b5f52601160045260245ffd5b8181038181111561295c5761295c612c9f565b8082018082111561295c5761295c612c9f565b5f60208284031215612ce9575f5ffd5b6126d3826126f1565b5f5f8335601e19843603018112612d07575f5ffd5b8301803591506001600160401b03821115612d20575f5ffd5b60200191503681900382131561273e575f5ffd5b8b8d82375f8c82015f81528b8d82375f908c01908152898b82375f908a01908152878982375f908801908152858782375f908601908152838582375f930192835250909c9b505050505050505050505050565b81835281816020850137505f828201602090810191909152601f909101601f19169091010190565b604081525f612dc2604083018587612d87565b82810360208401528060808101855f36829003601e19015b6004821015612e445785840385528235818112612df5575f5ffd5b89016020810190356001600160401b03811115612e10575f5ffd5b803603821315612e1e575f5ffd5b612e29868284612d87565b95505050602083019250602085019450600182019150612dda565b50919998505050505050505050565b808202811582820484141761295c5761295c612c9f565b5f82612e8457634e487b7160e01b5f52601260045260245ffd5b500490565b5f60ff821660ff8103612e9e57612e9e612c9f565b60010192915050565b5f81612eb557612eb5612c9f565b505f19019056fe9b779b17422d0df92223018b32b4d1fa46e071723d6817e2486d003becc55f00a2646970667358221220e883669782c62778774bde6d675ca43f91f815ee928fee48c3d1633560631ac564736f6c634300081c003360a060405234801561000f575f5ffd5b5060405161170938038061170983398101604081905261002e916100fa565b6040518060400160405280601381526020017f4b61686f6f742057656233204469706c6f6d61000000000000000000000000008152506040518060400160405280600381526020016212d5d160ea1b815250815f908161008e919061024d565b50600161009b828261024d565b5050506001600160a01b0382166100c55760405163e6c4247b60e01b815260040160405180910390fd5b6001600160a01b03821660805260086100de828261024d565b505050610307565b634e487b7160e01b5f52604160045260245ffd5b5f5f6040838503121561010b575f5ffd5b82516001600160a01b0381168114610121575f5ffd5b60208401519092506001600160401b0381111561013c575f5ffd5b8301601f8101851361014c575f5ffd5b80516001600160401b03811115610165576101656100e6565b604051601f8201601f19908116603f011681016001600160401b0381118282101715610193576101936100e6565b6040528181528282016020018710156101aa575f5ffd5b8160208401602083015e5f602083830101528093505050509250929050565b600181811c908216806101dd57607f821691505b6020821081036101fb57634e487b7160e01b5f52602260045260245ffd5b50919050565b601f82111561024857805f5260205f20601f840160051c810160208510156102265750805b601f840160051c820191505b81811015610245575f8155600101610232565b50505b505050565b81516001600160401b03811115610266576102666100e6565b61027a8161027484546101c9565b84610201565b6020601f8211600181146102ac575f83156102955750848201515b5f19600385901b1c1916600184901b178455610245565b5f84815260208120601f198516915b828110156102db57878501518255602094850194600190920191016102bb565b50848210156102f857868401515f19600387901b60f8161c191681555b50505050600190811b01905550565b6080516113e36103265f395f8181610194015261047c01526113e35ff3fe608060405234801561000f575f5ffd5b50600436106100fb575f3560e01c806370a0823111610093578063b88d4fde11610063578063b88d4fde1461022b578063c87b56dd1461023e578063e985e9c514610251578063fc154ff214610264575f5ffd5b806370a08231146101dc57806395d89b41146101fd578063a22cb46514610205578063af05ad1114610218575f5ffd5b806323b872dd116100ce57806323b872dd1461017c5780632438fe321461018f57806342842e0e146101b65780636352211e146101c9575f5ffd5b806301ffc9a7146100ff57806306fdde0314610127578063081812fc1461013c578063095ea7b314610167575b5f5ffd5b61011261010d366004610f6d565b61026c565b60405190151581526020015b60405180910390f35b61012f610296565b60405161011e9190610fb6565b61014f61014a366004610fc8565b610325565b6040516001600160a01b03909116815260200161011e565b61017a610175366004610ffa565b61034c565b005b61017a61018a366004611022565b61035b565b61014f7f000000000000000000000000000000000000000000000000000000000000000081565b61017a6101c4366004611022565b6103e9565b61014f6101d7366004610fc8565b610408565b6101ef6101ea36600461105c565b610412565b60405190815260200161011e565b61012f610457565b61017a610213366004611075565b610466565b61017a61022636600461105c565b610471565b61017a6102393660046110c2565b61056e565b61012f61024c366004610fc8565b610586565b61011261025f36600461119f565b610607565b61012f610634565b5f6001600160e01b03198216632483248360e11b14806102905750610290826106c0565b92915050565b60605f80546102a4906111d0565b80601f01602080910402602001604051908101604052809291908181526020018280546102d0906111d0565b801561031b5780601f106102f25761010080835404028352916020019161031b565b820191905f5260205f20905b8154815290600101906020018083116102fe57829003601f168201915b5050505050905090565b5f61032f8261070f565b505f828152600460205260409020546001600160a01b0316610290565b610357828233610747565b5050565b6001600160a01b03821661038957604051633250574960e11b81525f60048201526024015b60405180910390fd5b5f610395838333610754565b9050836001600160a01b0316816001600160a01b0316146103e3576040516364283d7b60e01b81526001600160a01b0380861660048301526024820184905282166044820152606401610380565b50505050565b61040383838360405180602001604052805f81525061056e565b505050565b5f6102908261070f565b5f6001600160a01b03821661043c576040516322718ad960e21b81525f6004820152602401610380565b506001600160a01b03165f9081526003602052604090205490565b6060600180546102a4906111d0565b610357338383610846565b336001600160a01b037f000000000000000000000000000000000000000000000000000000000000000016146104bc5760405163a91baf8160e01b8152336004820152602401610380565b600780545f91826104cc83611208565b9190505590506104dc828261090d565b61035781600880546104ed906111d0565b80601f0160208091040260200160405190810160405280929190818152602001828054610519906111d0565b80156105645780601f1061053b57610100808354040283529160200191610564565b820191905f5260205f20905b81548152906001019060200180831161054757829003601f168201915b5050505050610926565b61057984848461035b565b6103e33385858585610975565b60606105918261070f565b505f6105a760408051602081019091525f815290565b90505f6105b384610a9d565b905081515f036105c4579392505050565b8051156105f65781816040516020016105de929190611243565b60405160208183030381529060405292505050919050565b6105ff84610b3c565b949350505050565b6001600160a01b039182165f90815260056020908152604080832093909416825291909152205460ff1690565b60088054610641906111d0565b80601f016020809104026020016040519081016040528092919081815260200182805461066d906111d0565b80156106b85780601f1061068f576101008083540402835291602001916106b8565b820191905f5260205f20905b81548152906001019060200180831161069b57829003601f168201915b505050505081565b5f6001600160e01b031982166380ac58cd60e01b14806106f057506001600160e01b03198216635b5e139f60e01b145b8061029057506301ffc9a760e01b6001600160e01b0319831614610290565b5f818152600260205260408120546001600160a01b03168061029057604051637e27328960e01b815260048101849052602401610380565b6104038383836001610bad565b5f828152600260205260408120546001600160a01b039081169083161561078057610780818486610cb1565b6001600160a01b038116156107ba5761079b5f855f5f610bad565b6001600160a01b0381165f90815260036020526040902080545f190190555b6001600160a01b038516156107e8576001600160a01b0385165f908152600360205260409020805460010190555b5f8481526002602052604080822080546001600160a01b0319166001600160a01b0389811691821790925591518793918516917fddf252ad1be2c89b69c2b068fc378daa952ba7f163c4a11628f55a4df523b3ef91a4949350505050565b6001600160a01b03831661086f5760405163a9fbf51f60e01b81525f6004820152602401610380565b6001600160a01b0382166108a157604051630b61174360e31b81526001600160a01b0383166004820152602401610380565b6001600160a01b038381165f81815260056020908152604080832094871680845294825291829020805460ff191686151590811790915591519182527f17307eab39ab6107e8899845ad3d59bd9653f200f220920489ca2b5937696c31910160405180910390a3505050565b610357828260405180602001604052805f815250610d15565b5f82815260066020526040902061093d828261129b565b506040518281527ff8e1a15aba9398e019f0b49df1a4fde98ee17ae345cb5f6b5e2c27f5033e8ce79060200160405180910390a15050565b6001600160a01b0383163b15610a9657604051630a85bd0160e11b81526001600160a01b0384169063150b7a02906109b7908890889087908790600401611356565b6020604051808303815f875af19250505080156109f1575060408051601f3d908101601f191682019092526109ee91810190611392565b60015b610a58573d808015610a1e576040519150601f19603f3d011682016040523d82523d5f602084013e610a23565b606091505b5080515f03610a5057604051633250574960e11b81526001600160a01b0385166004820152602401610380565b805160208201fd5b6001600160e01b03198116630a85bd0160e11b14610a9457604051633250574960e11b81526001600160a01b0385166004820152602401610380565b505b5050505050565b5f818152600660205260409020805460609190610ab9906111d0565b80601f0160208091040260200160405190810160405280929190818152602001828054610ae5906111d0565b8015610b305780601f10610b0757610100808354040283529160200191610b30565b820191905f5260205f20905b815481529060010190602001808311610b1357829003601f168201915b50505050509050919050565b6060610b478261070f565b505f610b5d60408051602081019091525f815290565b90505f815111610b7b5760405180602001604052805f815250610ba6565b80610b8584610d2c565b604051602001610b96929190611243565b6040516020818303038152906040525b9392505050565b8080610bc157506001600160a01b03821615155b15610c82575f610bd08461070f565b90506001600160a01b03831615801590610bfc5750826001600160a01b0316816001600160a01b031614155b8015610c0f5750610c0d8184610607565b155b15610c385760405163a9fbf51f60e01b81526001600160a01b0384166004820152602401610380565b8115610c805783856001600160a01b0316826001600160a01b03167f8c5be1e5ebec7d5bd14f71427d1e84f3dd0314c0f7b2291e5b200ac8c7c3b92560405160405180910390a45b505b50505f90815260046020526040902080546001600160a01b0319166001600160a01b0392909216919091179055565b610cbc838383610dbc565b610403576001600160a01b038316610cea57604051637e27328960e01b815260048101829052602401610380565b60405163177e802f60e01b81526001600160a01b038316600482015260248101829052604401610380565b610d1f8383610e1d565b610403335f858585610975565b60605f610d3883610e7e565b60010190505f8167ffffffffffffffff811115610d5757610d576110ae565b6040519080825280601f01601f191660200182016040528015610d81576020820181803683370190505b5090508181016020015b5f19016f181899199a1a9b1b9c1cb0b131b232b360811b600a86061a8153600a8504945084610d8b57509392505050565b5f6001600160a01b038316158015906105ff5750826001600160a01b0316846001600160a01b03161480610df55750610df58484610607565b806105ff5750505f908152600460205260409020546001600160a01b03908116911614919050565b6001600160a01b038216610e4657604051633250574960e11b81525f6004820152602401610380565b5f610e5283835f610754565b90506001600160a01b03811615610403576040516339e3563760e11b81525f6004820152602401610380565b5f8072184f03e93ff9f4daa797ed6e38ed64bf6a1f0160401b8310610ebc5772184f03e93ff9f4daa797ed6e38ed64bf6a1f0160401b830492506040015b6d04ee2d6d415b85acef81000000008310610ee8576d04ee2d6d415b85acef8100000000830492506020015b662386f26fc100008310610f0657662386f26fc10000830492506010015b6305f5e1008310610f1e576305f5e100830492506008015b6127108310610f3257612710830492506004015b60648310610f44576064830492506002015b600a83106102905760010192915050565b6001600160e01b031981168114610f6a575f5ffd5b50565b5f60208284031215610f7d575f5ffd5b8135610ba681610f55565b5f81518084528060208401602086015e5f602082860101526020601f19601f83011685010191505092915050565b602081525f610ba66020830184610f88565b5f60208284031215610fd8575f5ffd5b5035919050565b80356001600160a01b0381168114610ff5575f5ffd5b919050565b5f5f6040838503121561100b575f5ffd5b61101483610fdf565b946020939093013593505050565b5f5f5f60608486031215611034575f5ffd5b61103d84610fdf565b925061104b60208501610fdf565b929592945050506040919091013590565b5f6020828403121561106c575f5ffd5b610ba682610fdf565b5f5f60408385031215611086575f5ffd5b61108f83610fdf565b9150602083013580151581146110a3575f5ffd5b809150509250929050565b634e487b7160e01b5f52604160045260245ffd5b5f5f5f5f608085870312156110d5575f5ffd5b6110de85610fdf565b93506110ec60208601610fdf565b925060408501359150606085013567ffffffffffffffff81111561110e575f5ffd5b8501601f8101871361111e575f5ffd5b803567ffffffffffffffff811115611138576111386110ae565b604051601f8201601f19908116603f0116810167ffffffffffffffff81118282101715611167576111676110ae565b60405281815282820160200189101561117e575f5ffd5b816020840160208301375f6020838301015280935050505092959194509250565b5f5f604083850312156111b0575f5ffd5b6111b983610fdf565b91506111c760208401610fdf565b90509250929050565b600181811c908216806111e457607f821691505b60208210810361120257634e487b7160e01b5f52602260045260245ffd5b50919050565b5f6001820161122557634e487b7160e01b5f52601160045260245ffd5b5060010190565b5f81518060208401855e5f93019283525090919050565b5f6105ff611251838661122c565b8461122c565b601f82111561040357805f5260205f20601f840160051c8101602085101561127c5750805b601f840160051c820191505b81811015610a96575f8155600101611288565b815167ffffffffffffffff8111156112b5576112b56110ae565b6112c9816112c384546111d0565b84611257565b6020601f8211600181146112fb575f83156112e45750848201515b5f19600385901b1c1916600184901b178455610a96565b5f84815260208120601f198516915b8281101561132a578785015182556020948501946001909201910161130a565b508482101561134757868401515f19600387901b60f8161c191681555b50505050600190811b01905550565b6001600160a01b03858116825284166020820152604081018390526080606082018190525f9061138890830184610f88565b9695505050505050565b5f602082840312156113a2575f5ffd5b8151610ba681610f5556fea2646970667358221220c051355dfa27153ed6d1c7464868e0bd8ef47d1ec6cb9d6240c5a3c6d32c6e4464736f6c634300081c0033a26469706673582212200d80c33af862e61fc2afd199a2354573ea928e8fa5cae8a06b75dcec89c436b564736f6c634300081c0033",
  "linkReferences": {},
  "deployedLinkReferences": {},
  "immutableReferences": {},
  "inputSourceName": "project/contracts/KahootFactory.sol",
  "buildInfoId": "solc-0_8_28-43c768fbb399ca40fb3ebf378696704c530ae034"
}