{
  "_format": "hh3-artifact-1",
  "contractName": "DiplomaNFT",
  "sourceName": "contracts/DiplomaNFT.sol",
  "abi": [
    {
      "inputs": [
        {
          "internalType": "address",
          "name": "_game",
          "type": "address"
        }
      ],
      "stateMutability": "nonpayable",
      "type": "constructor"
    },
    {
      "inputs": [
        {
          "internalType": "address",
          "name": "sender",
          "type": "address"
        },
        {
          "internalType": "uint256",
          "name": "tokenId",
          "type": "uint256"
        },
        {
          "internalType": "address",
          "name": "owner",
          "type": "address"
        }
      ],
      "name": "ERC721IncorrectOwner",
      "type": "error"
    },
    {
      "inputs": [
        {
          "internalType": "address",
          "name": "operator",
          "type": "address"
        },
        {
          "internalType": "uint256",
          "name": "tokenId",
          "type": "uint256"
        }
      ],
      "name": "ERC721InsufficientApproval",
      "type": "error"
    },
    {
      "inputs": [
        {
          "internalType": "address",
          "name": "approver",
          "type": "address"
        }
      ],
      "name": "ERC721InvalidApprover",
      "type": "error"
    },
    {
      "inputs": [
        {
          "internalType": "address",
          "name": "operator",
          "type": "address"
        }
      ],
      "name": "ERC721InvalidOperator",
      "type": "error"
    },
    {
      "inputs": [
        {
          "internalType": "address",
          "name": "owner",
          "type": "address"
        }
      ],
      "name": "ERC721InvalidOwner",
      "type": "error"
    },
    {
      "inputs": [
        {
          "internalType": "address",
          "name": "receiver",
          "type": "address"
        }
      ],
      "name": "ERC721InvalidReceiver",
      "type": "error"
    },
    {
      "inputs": [
        {
          "internalType": "address",
          "name": "sender",
          "type": "address"
        }
      ],
      "name": "ERC721InvalidSender",
      "type": "error"
    },
    {
      "inputs": [
        {
          "internalType": "uint256",
          "name": "tokenId",
          "type": "uint256"
        }
      ],
      "name": "ERC721NonexistentToken",
      "type": "error"
    },
    {
      "inputs": [],
      "name": "InvalidAddress",
      "type": "error"
    },
    {
      "inputs": [
        {
          "internalType": "address",
          "name": "caller",
          "type": "address"
        }
      ],
      "name": "UnauthorizedGame",
      "type": "error"
    },
    {
      "anonymous": false,
      "inputs": [
        {
          "indexed": true,
          "internalType": "address",
          "name": "owner",
          "type": "address"
        },
        {
          "indexed": true,
          "internalType": "address",
          "name": "approved",
          "type": "address"
        },
        {
          "indexed": true,
          "internalType": "uint256",
          "name": "tokenId",
          "type": "uint256"
        }
      ],
      "name": "Approval",
      "type": "event"
    },
    {
      "anonymous": false,
      "inputs": [
        {
          "indexed": true,
          "internalType": "address",
          "name": "owner",
          "type": "address"
        },
        {
          "indexed": true,
          "internalType": "address",
          "name": "operator",
          "type": "address"
        },
        {
          "indexed": false,
          "internalType": "bool",
          "name": "approved",
          "type": "bool"
        }
      ],
      "name": "ApprovalForAll",
      "type": "event"
    },
    {
      "anonymous": false,
      "inputs": [
        {
          "indexed": false,
          "internalType": "uint256",
          "name": "_fromTokenId",
          "type": "uint256"
        },
        {
          "indexed": false,
          "internalType": "uint256",
          "name": "_toTokenId",
          "type": "uint256"
        }
      ],
      "name": "BatchMetadataUpdate",
      "type": "event"
    },
    {
      "anonymous": false,
      "inputs": [
        {
          "indexed": false,
          "internalType": "uint256",
          "name": "_tokenId",
          "type": "uint256"
        }
      ],
      "name": "MetadataUpdate",
      "type": "event"
    },
    {
      "anonymous": false,
      "inputs": [
        {
          "indexed": true,
          "internalType": "address",
          "name": "from",
          "type": "address"
        },
        {
          "indexed": true,
          "internalType": "address",
          "name": "to",
          "type": "address"
        },
        {
          "indexed": true,
          "internalType": "uint256",
          "name": "tokenId",
          "type": "uint256"
        }
      ],
      "name": "Transfer",
      "type": "event"
    },
    {
      "inputs": [
        {
          "internalType": "address",
          "name": "to",
          "type": "address"
        },
        {
          "internalType": "uint256",
          "name": "tokenId",
          "type": "uint256"
        }
      ],
      "name": "approve",
      "outputs": [],
      "stateMutability": "nonpayable",
      "type": "function"
    },
    {
      "inputs": [
        {
          "internalType": "address",
          "name": "owner",
          "type": "address"
        }
      ],
      "name": "balanceOf",
      "outputs": [
        {
          "internalType": "uint256",
          "name": "",
          "type": "uint256"
        }
      ],
      "stateMutability": "view",
      "type": "function"
    },
    {
      "inputs": [
        {
          "internalType": "uint256",
          "name": "tokenId",
          "type": "uint256"
        }
      ],
      "name": "getApproved",
      "outputs": [
        {
          "internalType": "address",
          "name": "",
          "type": "address"
        }
      ],
      "stateMutability": "view",
      "type": "function"
    },
    {
      "inputs": [
        {
          "internalType": "address",
          "name": "owner",
          "type": "address"
        },
        {
          "internalType": "address",
          "name": "operator",
          "type": "address"
        }
      ],
      "name": "isApprovedForAll",
      "outputs": [
        {
          "internalType": "bool",
          "name": "",
          "type": "bool"
        }
      ],
      "stateMutability": "view",
      "type": "function"
    },
    {
      "inputs": [],
      "name": "kahootGame",
      "outputs": [
        {
          "internalType": "address",
          "name": "",
          "type": "address"
        }
      ],
      "stateMutability": "view",
      "type": "function"
    },
    {
      "inputs": [
        {
          "internalType": "address",
          "name": "to",
          "type": "address"
        },
        {
          "internalType": "string",
          "name": "tokenURI",
          "type": "string"
        }
      ],
      "name": "mintDiploma",
      "outputs": [],
      "stateMutability": "nonpayable",
      "type": "function"
    },
    {
      "inputs": [],
      "name": "name",
      "outputs": [
        {
          "internalType": "string",
          "name": "",
          "type": "string"
        }
      ],
      "stateMutability": "view",
      "type": "function"
    },
    {
      "inputs": [
        {
          "internalType": "uint256",
          "name": "tokenId",
          "type": "uint256"
        }
      ],
      "name": "ownerOf",
      "outputs": [
        {
          "internalType": "address",
          "name": "",
          "type": "address"
        }
      ],
      "stateMutability": "view",
      "type": "function"
    },
    {
      "inputs": [
        {
          "internalType": "address",
          "name": "from",
          "type": "address"
        },
        {
          "internalType": "address",
          "name": "to",
          "type": "address"
        },
        {
          "internalType": "uint256",
          "name": "tokenId",
          "type": "uint256"
        }
      ],
      "name": "safeTransferFrom",
      "outputs": [],
      "stateMutability": "nonpayable",
      "type": "function"
    },
    {
      "inputs": [
        {
          "internalType": "address",
          "name": "from",
          "type": "address"
        },
        {
          "internalType": "address",
          "name": "to",
          "type": "address"
        },
        {
          "internalType": "uint256",
          "name": "tokenId",
          "type": "uint256"
        },
        {
          "internalType": "bytes",
          "name": "data",
          "type": "bytes"
        }
      ],
      "name": "safeTransferFrom",
      "outputs": [],
      "stateMutability": "nonpayable",
      "type": "function"
    },
    {
      "inputs": [
        {
          "internalType": "address",
          "name": "operator",
          "type": "address"
        },
        {
          "internalType": "bool",
          "name": "approved",
          "type": "bool"
        }
      ],
      "name": "setApprovalForAll",
      "outputs": [],
      "stateMutability": "nonpayable",
      "type": "function"
    },
    {
      "inputs": [
        {
          "internalType": "bytes4",
          "name": "interfaceId",
          "type": "bytes4"
        }
      ],
      "name": "supportsInterface",
      "outputs": [
        {
          "internalType": "bool",
          "name": "",
          "type": "bool"
        }
      ],
      "stateMutability": "view",
      "type": "function"
    },
    {
      "inputs": [],
      "name": "symbol",
      "outputs": [
        {
          "internalType": "string",
          "name": "",
          "type": "string"
        }
      ],
      "stateMutability": "view",
      "type": "function"
    },
    {
      "inputs": [
        {
          "internalType": "uint256",
          "name": "tokenId",
          "type": "uint256"
        }
      ],
      "name": "tokenURI",
      "outputs": [
        {
          "internalType": "string",
          "name": "",
          "type": "string"
        }
      ],
      "stateMutability": "view",
      "type": "function"
    },
    {
      "inputs": [
        {
          "internalType": "address",
          "name": "from",
          "type": "address"
        },
        {
          "internalType": "address",
          "name": "to",
          "type": "address"
        },
        {
          "internalType": "uint256",
          "name": "tokenId",
          "type": "uint256"
        }
      ],
      "name": "transferFrom",
      "outputs": [],
      "stateMutability": "nonpayable",
      "type": "function"
    }
  ],
  "bytecode": "0x60a060405234801561000f575f5ffd5b5060405161159f38038061159f83398101604081905261002e916100d6565b6040518060400160405280601381526020017f4b61686f6f742057656233204469706c6f6d61000000000000000000000000008152506040518060400160405280600381526020016212d5d160ea1b815250815f908161008e919061019b565b50600161009b828261019b565b5050506001600160a01b0381166100c55760405163e6c4247b60e01b815260040160405180910390fd5b6001600160a01b0316608052610255565b5f602082840312156100e6575f5ffd5b81516001600160a01b03811681146100fc575f5ffd5b9392505050565b634e487b7160e01b5f52604160045260245ffd5b600181811c9082168061012b57607f821691505b60208210810361014957634e487b7160e01b5f52602260045260245ffd5b50919050565b601f82111561019657805f5260205f20601f840160051c810160208510156101745750805b601f840160051c820191505b81811015610193575f8155600101610180565b50505b505050565b81516001600160401b038111156101b4576101b4610103565b6101c8816101c28454610117565b8461014f565b6020601f8211600181146101fa575f83156101e35750848201515b5f19600385901b1c1916600184901b178455610193565b5f84815260208120601f198516915b828110156102295787850151825560209485019460019092019101610209565b508482101561024657868401515f19600387901b60f8161c191681555b50505050600190811b01905550565b60805161132b6102745f395f818161018901526103e1015261132b5ff3fe608060405234801561000f575f5ffd5b50600436106100f0575f3560e01c806342842e0e11610093578063a22cb46511610063578063a22cb4651461020d578063b88d4fde14610220578063c87b56dd14610233578063e985e9c514610246575f5ffd5b806342842e0e146101be5780636352211e146101d157806370a08231146101e457806395d89b4114610205575f5ffd5b8063095ea7b3116100ce578063095ea7b31461015c57806323b872dd146101715780632438fe3214610184578063361cd6d0146101ab575f5ffd5b806301ffc9a7146100f457806306fdde031461011c578063081812fc14610131575b5f5ffd5b610107610102366004610e46565b610259565b60405190151581526020015b60405180910390f35b610124610283565b6040516101139190610e8f565b61014461013f366004610ea1565b610312565b6040516001600160a01b039091168152602001610113565b61016f61016a366004610ed3565b610339565b005b61016f61017f366004610efb565b610348565b6101447f000000000000000000000000000000000000000000000000000000000000000081565b61016f6101b9366004610fc0565b6103d6565b61016f6101cc366004610efb565b610450565b6101446101df366004610ea1565b61046a565b6101f76101f236600461101e565b610474565b604051908152602001610113565b6101246104b9565b61016f61021b366004611037565b6104c8565b61016f61022e366004611070565b6104d3565b610124610241366004610ea1565b6104eb565b6101076102543660046110e7565b61056c565b5f6001600160e01b03198216632483248360e11b148061027d575061027d82610599565b92915050565b60605f805461029190611118565b80601f01602080910402602001604051908101604052809291908181526020018280546102bd90611118565b80156103085780601f106102df57610100808354040283529160200191610308565b820191905f5260205f20905b8154815290600101906020018083116102eb57829003601f168201915b5050505050905090565b5f61031c826105e8565b505f828152600460205260409020546001600160a01b031661027d565b610344828233610620565b5050565b6001600160a01b03821661037657604051633250574960e11b81525f60048201526024015b60405180910390fd5b5f61038283833361062d565b9050836001600160a01b0316816001600160a01b0316146103d0576040516364283d7b60e01b81526001600160a01b038086166004830152602482018490528216604482015260640161036d565b50505050565b336001600160a01b037f000000000000000000000000000000000000000000000000000000000000000016146104215760405163a91baf8160e01b815233600482015260240161036d565b600780545f918261043183611150565b919050559050610441838261071f565b61044b8183610738565b505050565b61044b83838360405180602001604052805f8152506104d3565b5f61027d826105e8565b5f6001600160a01b03821661049e576040516322718ad960e21b81525f600482015260240161036d565b506001600160a01b03165f9081526003602052604090205490565b60606001805461029190611118565b610344338383610787565b6104de848484610348565b6103d0338585858561084e565b60606104f6826105e8565b505f61050c60408051602081019091525f815290565b90505f61051884610976565b905081515f03610529579392505050565b80511561055b57818160405160200161054392919061118b565b60405160208183030381529060405292505050919050565b61056484610a15565b949350505050565b6001600160a01b039182165f90815260056020908152604080832093909416825291909152205460ff1690565b5f6001600160e01b031982166380ac58cd60e01b14806105c957506001600160e01b03198216635b5e139f60e01b145b8061027d57506301ffc9a760e01b6001600160e01b031983161461027d565b5f818152600260205260408120546001600160a01b03168061027d57604051637e27328960e01b81526004810184905260240161036d565b61044b8383836001610a86565b5f828152600260205260408120546001600160a01b039081169083161561065957610659818486610b8a565b6001600160a01b03811615610693576106745f855f5f610a86565b6001600160a01b0381165f90815260036020526040902080545f190190555b6001600160a01b038516156106c1576001600160a01b0385165f908152600360205260409020805460010190555b5f8481526002602052604080822080546001600160a01b0319166001600160a01b0389811691821790925591518793918516917fddf252ad1be2c89b69c2b068fc378daa952ba7f163c4a11628f55a4df523b3ef91a4949350505050565b610344828260405180602001604052805f815250610bee565b5f82815260066020526040902061074f82826111e3565b506040518281527ff8e1a15aba9398e019f0b49df1a4fde98ee17ae345cb5f6b5e2c27f5033e8ce79060200160405180910390a15050565b6001600160a01b0383166107b05760405163a9fbf51f60e01b81525f600482015260240161036d565b6001600160a01b0382166107e257604051630b61174360e31b81526001600160a01b038316600482015260240161036d565b6001600160a01b038381165f81815260056020908152604080832094871680845294825291829020805460ff191686151590811790915591519182527f17307eab39ab6107e8899845ad3d59bd9653f200f220920489ca2b5937696c31910160405180910390a3505050565b6001600160a01b0383163b1561096f57604051630a85bd0160e11b81526001600160a01b0384169063150b7a029061089090889088908790879060040161129e565b6020604051808303815f875af19250505080156108ca575060408051601f3d908101601f191682019092526108c7918101906112da565b60015b610931573d8080156108f7576040519150601f19603f3d011682016040523d82523d5f602084013e6108fc565b606091505b5080515f0361092957604051633250574960e11b81526001600160a01b038516600482015260240161036d565b805160208201fd5b6001600160e01b03198116630a85bd0160e11b1461096d57604051633250574960e11b81526001600160a01b038516600482015260240161036d565b505b5050505050565b5f81815260066020526040902080546060919061099290611118565b80601f01602080910402602001604051908101604052809291908181526020018280546109be90611118565b8015610a095780601f106109e057610100808354040283529160200191610a09565b820191905f5260205f20905b8154815290600101906020018083116109ec57829003601f168201915b50505050509050919050565b6060610a20826105e8565b505f610a3660408051602081019091525f815290565b90505f815111610a545760405180602001604052805f815250610a7f565b80610a5e84610c05565b604051602001610a6f92919061118b565b6040516020818303038152906040525b9392505050565b8080610a9a57506001600160a01b03821615155b15610b5b575f610aa9846105e8565b90506001600160a01b03831615801590610ad55750826001600160a01b0316816001600160a01b031614155b8015610ae85750610ae6818461056c565b155b15610b115760405163a9fbf51f60e01b81526001600160a01b038416600482015260240161036d565b8115610b595783856001600160a01b0316826001600160a01b03167f8c5be1e5ebec7d5bd14f71427d1e84f3dd0314c0f7b2291e5b200ac8c7c3b92560405160405180910390a45b505b50505f90815260046020526040902080546001600160a01b0319166001600160a01b0392909216919091179055565b610b95838383610c95565b61044b576001600160a01b038316610bc357604051637e27328960e01b81526004810182905260240161036d565b60405163177e802f60e01b81526001600160a01b03831660048201526024810182905260440161036d565b610bf88383610cf6565b61044b335f85858561084e565b60605f610c1183610d57565b60010190505f8167ffffffffffffffff811115610c3057610c30610f35565b6040519080825280601f01601f191660200182016040528015610c5a576020820181803683370190505b5090508181016020015b5f19016f181899199a1a9b1b9c1cb0b131b232b360811b600a86061a8153600a8504945084610c6457509392505050565b5f6001600160a01b038316158015906105645750826001600160a01b0316846001600160a01b03161480610cce5750610cce848461056c565b806105645750505f908152600460205260409020546001600160a01b03908116911614919050565b6001600160a01b038216610d1f57604051633250574960e11b81525f600482015260240161036d565b5f610d2b83835f61062d565b90506001600160a01b0381161561044b576040516339e3563760e11b81525f600482015260240161036d565b5f8072184f03e93ff9f4daa797ed6e38ed64bf6a1f0160401b8310610d955772184f03e93ff9f4daa797ed6e38ed64bf6a1f0160401b830492506040015b6d04ee2d6d415b85acef81000000008310610dc1576d04ee2d6d415b85acef8100000000830492506020015b662386f26fc100008310610ddf57662386f26fc10000830492506010015b6305f5e1008310610df7576305f5e100830492506008015b6127108310610e0b57612710830492506004015b60648310610e1d576064830492506002015b600a831061027d5760010192915050565b6001600160e01b031981168114610e43575f5ffd5b50565b5f60208284031215610e56575f5ffd5b8135610a7f81610e2e565b5f81518084528060208401602086015e5f602082860101526020601f19601f83011685010191505092915050565b602081525f610a7f6020830184610e61565b5f60208284031215610eb1575f5ffd5b5035919050565b80356001600160a01b0381168114610ece575f5ffd5b919050565b5f5f60408385031215610ee4575f5ffd5b610eed83610eb8565b946020939093013593505050565b5f5f5f60608486031215610f0d575f5ffd5b610f1684610eb8565b9250610f2460208501610eb8565b929592945050506040919091013590565b634e487b7160e01b5f52604160045260245ffd5b5f5f67ffffffffffffffff841115610f6357610f63610f35565b50604051601f19601f85018116603f0116810181811067ffffffffffffffff82111715610f9257610f92610f35565b604052838152905080828401851015610fa9575f5ffd5b838360208301375f60208583010152509392505050565b5f5f60408385031215610fd1575f5ffd5b610fda83610eb8565b9150602083013567ffffffffffffffff811115610ff5575f5ffd5b8301601f81018513611005575f5ffd5b61101485823560208401610f49565b9150509250929050565b5f6020828403121561102e575f5ffd5b610a7f82610eb8565b5f5f60408385031215611048575f5ffd5b61105183610eb8565b915060208301358015158114611065575f5ffd5b809150509250929050565b5f5f5f5f60808587031215611083575f5ffd5b61108c85610eb8565b935061109a60208601610eb8565b925060408501359150606085013567ffffffffffffffff8111156110bc575f5ffd5b8501601f810187136110cc575f5ffd5b6110db87823560208401610f49565b91505092959194509250565b5f5f604083850312156110f8575f5ffd5b61110183610eb8565b915061110f60208401610eb8565b90509250929050565b600181811c9082168061112c57607f821691505b60208210810361114a57634e487b7160e01b5f52602260045260245ffd5b50919050565b5f6001820161116d57634e487b7160e01b5f52601160045260245ffd5b5060010190565b5f81518060208401855e5f93019283525090919050565b5f6105646111998386611174565b84611174565b601f82111561044b57805f5260205f20601f840160051c810160208510156111c45750805b601f840160051c820191505b8181101561096f575f81556001016111d0565b815167ffffffffffffffff8111156111fd576111fd610f35565b6112118161120b8454611118565b8461119f565b6020601f821160018114611243575f831561122c5750848201515b5f19600385901b1c1916600184901b17845561096f565b5f84815260208120601f198516915b828110156112725787850151825560209485019460019092019101611252565b508482101561128f57868401515f19600387901b60f8161c191681555b50505050600190811b01905550565b6001600160a01b03858116825284166020820152604081018390526080606082018190525f906112d090830184610e61565b9695505050505050565b5f602082840312156112ea575f5ffd5b8151610a7f81610e2e56fea26469706673582212209f3436f819001bd78d3edb7411fb72021170c6e27815ebc40653101dffbe8cd364736f6c634300081c0033",
  "linkReferences": {},
  "deployedLinkReferences": {},
  "immutableReferences": {
    "7757": [
      {
        "length": 32,
        "start": 393
      },
      {
        "length": 32,
        "start": 993
      }
    ]
  },
  "inputSourceName": "project/contracts/DiplomaNFT.sol",
  "buildInfoId": "solc-0_8_28-fae0f2ffa8d8ef633a75e117688992c39c0ea93c"
}