{
  "_format": "hh3-artifact-1",
  "contractName": "KahootFactory",
  "sourceName": "contracts/KahootFactory.sol",
  "abi": [
    {
      "inputs": [
        {
          "internalType": "uint256",
          "name": "_creationFee",
          "type": "uint256"
        }
      ],
      "stateMutability": "nonpayable",
      "type": "constructor"
    },
    {
      "anonymous": false,
      "inputs": [
        {
          "indexed": false,
          "internalType": "uint256",
          "name": "oldFee",
          "type": "uint256"
        },
        {
          "indexed": false,
          "internalType": "uint256",
          "name": "newFee",
          "type": "uint256"
        }
      ],
      "name": "CreationFeeUpdated",
      "type": "event"
    },
    {
      "anonymous": false,
      "inputs": [
        {
          "indexed": true,
          "internalType": "address",
          "name": "gameAddress",
          "type": "address"
        },
        {
          "indexed": true,
          "internalType": "address",
          "name": "professor",
          "type": "address"
        }
      ],
      "name": "GameCreated",
      "type": "event"
    },
    {
      "anonymous": false,
      "inputs": [
        {
          "indexed": true,
          "internalType": "address",
          "name": "student",
          "type": "address"
        },
        {
          "indexed": false,
          "internalType": "uint256",
          "name": "newTotal",
          "type": "uint256"
        }
      ],
      "name": "LeaderboardUpdated",
      "type": "event"
    },
    {
      "inputs": [
        {
          "internalType": "string",
          "name": "_gameName",
          "type": "string"
        },
        {
          "internalType": "uint256",
          "name": "_passingScore",
          "type": "uint256"
        },
        {
          "internalType": "uint256",
          "name": "_totalQuestions",
          "type": "uint256"
        },
        {
          "internalType": "string",
          "name": "_diplomaTokenURI",
          "type": "string"
        },
        {
          "components": [
            {
              "internalType": "bytes32",
              "name": "hashVerificacionPregunta",
              "type": "bytes32"
            },
            {
              "internalType": "bytes32",
              "name": "hashRespuestaCorrecta",
              "type": "bytes32"
            },
            {
              "internalType": "bool",
              "name": "commitPhaseOpen",
              "type": "bool"
            },
            {
              "internalType": "bool",
              "name": "revealPhaseOpen",
              "type": "bool"
            }
          ],
          "internalType": "struct KahootGame.RondaOculta[]",
          "name": "_rondas",
          "type": "tuple[]"
        },
        {
          "internalType": "uint256",
          "name": "_entryFee",
          "type": "uint256"
        }
      ],
      "name": "createGame",
      "outputs": [
        {
          "internalType": "address",
          "name": "",
          "type": "address"
        }
      ],
      "stateMutability": "payable",
      "type": "function"
    },
    {
      "inputs": [],
      "name": "creationFee",
      "outputs": [
        {
          "internalType": "uint256",
          "name": "",
          "type": "uint256"
        }
      ],
      "stateMutability": "view",
      "type": "function"
    },
    {
      "inputs": [
        {
          "internalType": "uint256",
          "name": "",
          "type": "uint256"
        }
      ],
      "name": "games",
      "outputs": [
        {
          "internalType": "contract KahootGame",
          "name": "",
          "type": "address"
        }
      ],
      "stateMutability": "view",
      "type": "function"
    },
    {
      "inputs": [
        {
          "internalType": "address",
          "name": "_profesor",
          "type": "address"
        }
      ],
      "name": "getCantidadKahootsDeProfesor",
      "outputs": [
        {
          "internalType": "uint256",
          "name": "",
          "type": "uint256"
        }
      ],
      "stateMutability": "view",
      "type": "function"
    },
    {
      "inputs": [],
      "name": "getGamesCount",
      "outputs": [
        {
          "internalType": "uint256",
          "name": "",
          "type": "uint256"
        }
      ],
      "stateMutability": "view",
      "type": "function"
    },
    {
      "inputs": [
        {
          "internalType": "address",
          "name": "_profesor",
          "type": "address"
        }
      ],
      "name": "getKahootsDeProfesor",
      "outputs": [
        {
          "internalType": "address[]",
          "name": "",
          "type": "address[]"
        }
      ],
      "stateMutability": "view",
      "type": "function"
    },
    {
      "inputs": [
        {
          "internalType": "address",
          "name": "",
          "type": "address"
        }
      ],
      "name": "isOfficialGame",
      "outputs": [
        {
          "internalType": "bool",
          "name": "",
          "type": "bool"
        }
      ],
      "stateMutability": "view",
      "type": "function"
    },
    {
      "inputs": [],
      "name": "owner",
      "outputs": [
        {
          "internalType": "address",
          "name": "",
          "type": "address"
        }
      ],
      "stateMutability": "view",
      "type": "function"
    },
    {
      "inputs": [
        {
          "internalType": "address",
          "name": "student",
          "type": "address"
        }
      ],
      "name": "recordDiplomaWin",
      "outputs": [],
      "stateMutability": "nonpayable",
      "type": "function"
    },
    {
      "inputs": [
        {
          "internalType": "uint256",
          "name": "_newFee",
          "type": "uint256"
        }
      ],
      "name": "setCreationFee",
      "outputs": [],
      "stateMutability": "nonpayable",
      "type": "function"
    },
    {
      "inputs": [
        {
          "internalType": "uint256",
          "name": "",
          "type": "uint256"
        }
      ],
      "name": "topBalances",
      "outputs": [
        {
          "internalType": "uint256",
          "name": "",
          "type": "uint256"
        }
      ],
      "stateMutability": "view",
      "type": "function"
    },
    {
      "inputs": [
        {
          "internalType": "uint256",
          "name": "",
          "type": "uint256"
        }
      ],
      "name": "topJugadores",
      "outputs": [
        {
          "internalType": "address",
          "name": "",
          "type": "address"
        }
      ],
      "stateMutability": "view",
      "type": "function"
    },
    {
      "inputs": [
        {
          "internalType": "address",
          "name": "",
          "type": "address"
        }
      ],
      "name": "totalDiplomasWon",
      "outputs": [
        {
          "internalType": "uint256",
          "name": "",
          "type": "uint256"
        }
      ],
      "stateMutability": "view",
      "type": "function"
    },
    {
      "inputs": [],
      "name": "withdrawFees",
      "outputs": [],
      "stateMutability": "nonpayable",
      "type": "function"
    }
  ],
  "bytecode": "0x6080604052348015600e575f5ffd5b50604051615464380380615464833981016040819052602b916044565b600180546001600160a01b03191633179055600255605a565b5f602082840312156053575f5ffd5b5051919050565b6153fd806100675f395ff3fe6080604052600436106100d9575f3560e01c8063955cf94a1161007c578063d740c48711610057578063d740c48714610251578063dce0b4e414610285578063f08a10d21461029a578063f9b027ba146102b9575f5ffd5b8063955cf94a146101db578063b7d8622514610207578063b929b90114610226575f5ffd5b8063197e8d66116100b7578063197e8d6614610174578063279b486c14610193578063476343ee146101a65780638da5cb5b146101bc575f5ffd5b80630d76705f146100dd578063117a5b901461012057806317b7a47614610157575b5f5ffd5b3480156100e8575f5ffd5b5061010b6100f7366004610b65565b60186020525f908152604090205460ff1681565b60405190151581526020015b60405180910390f35b34801561012b575f5ffd5b5061013f61013a366004610b92565b6102d8565b6040516001600160a01b039091168152602001610117565b348015610162575f5ffd5b505f545b604051908152602001610117565b34801561017f575f5ffd5b5061016661018e366004610b92565b6102ff565b61013f6101a1366004610bee565b610315565b3480156101b1575f5ffd5b506101ba610475565b005b3480156101c7575f5ffd5b5060015461013f906001600160a01b031681565b3480156101e6575f5ffd5b506101fa6101f5366004610b65565b610596565b6040516101179190610cd6565b348015610212575f5ffd5b506101ba610221366004610b92565b610609565b348015610231575f5ffd5b50610166610240366004610b65565b60036020525f908152604090205481565b34801561025c575f5ffd5b5061016661026b366004610b65565b6001600160a01b03165f9081526019602052604090205490565b348015610290575f5ffd5b5061016660025481565b3480156102a5575f5ffd5b5061013f6102b4366004610b92565b610694565b3480156102c4575f5ffd5b506101ba6102d3366004610b65565b6106b3565b5f81815481106102e6575f80fd5b5f918252602090912001546001600160a01b0316905081565b600e81600a811061030e575f80fd5b0154905081565b5f60025434101561036d5760405162461bcd60e51b815260206004820152601f60248201527f546172696661206465206372656163696f6e20696e737566696369656e74650060448201526064015b60405180910390fd5b5f30338c8c8c8c8c8c8c8c8c60405161038590610b58565b6103999b9a99989796959493929190610d5d565b604051809103905ff0801580156103b2573d5f5f3e3d5ffd5b505f8054600181810183557f290decd9548b62a8d60345a988386fc84ba6bc95484008f6362f93160ef3e56390910180546001600160a01b0385166001600160a01b03199182168117909255818452601860209081526040808620805460ff1916861790553380875260198352818720805496870181558752918620909401805490921683179091559151939450909290917fb60d84e37a6658effce28870b1d123cb86f86409df5888679310c0f276e1f5d291a39a9950505050505050505050565b6001546001600160a01b031633146104bf5760405162461bcd60e51b815260206004820152600d60248201526c29b7b6379032b61037bbb732b960991b6044820152606401610364565b47806104fa5760405162461bcd60e51b815260206004820152600a60248201526953696e20666f6e646f7360b01b6044820152606401610364565b6001546040515f916001600160a01b03169083908381818185875af1925050503d805f8114610544576040519150601f19603f3d011682016040523d82523d5f602084013e610549565b606091505b50509050806105925760405162461bcd60e51b81526020600482015260156024820152745472616e73666572656e6369612066616c6c69646160581b6044820152606401610364565b5050565b6001600160a01b0381165f908152601960209081526040918290208054835181840281018401909452808452606093928301828280156105fd57602002820191905f5260205f20905b81546001600160a01b031681526001909101906020018083116105df575b50505050509050919050565b6001546001600160a01b031633146106535760405162461bcd60e51b815260206004820152600d60248201526c29b7b6379032b61037bbb732b960991b6044820152606401610364565b60025460408051918252602082018390527f5de302eeb1c80d4fb0c0953b692353f09ddf431411b8eb2034d5e85769561912910160405180910390a1600255565b600481600a81106106a3575f80fd5b01546001600160a01b0316905081565b335f9081526018602052604090205460ff166107375760405162461bcd60e51b815260206004820152603960248201527f4861636b656f2064657465637461646f3a20536f6c6f206a7565676f73206f6660448201527f696369616c65732070756564656e206461722070756e746f73000000000000006064820152608401610364565b6001600160a01b0381165f9081526003602052604081205461075a906001610e39565b6001600160a01b0383165f9081526003602052604081208290559091505f19905b600a8110156107c157836001600160a01b0316600482600a81106107a1576107a1610e52565b01546001600160a01b0316036107b9578091506107c1565b60010161077b565b505f8112610964578082600e82600a81106107de576107de610e52565b01555b5f811180156108215750600e6107f8600183610e66565b600a811061080857610808610e52565b0154600e82600a811061081d5761081d610e52565b0154115b1561095e575f6004610834600184610e66565b600a811061084457610844610e52565b01546001600160a01b031690505f600e61085f600185610e66565b600a811061086f5761086f610e52565b01549050600483600a811061088657610886610e52565b01546001600160a01b0316600461089e600186610e66565b600a81106108ae576108ae610e52565b0180546001600160a01b0319166001600160a01b0392909216919091179055600e83600a81106108e0576108e0610e52565b0154600e6108ef600186610e66565b600a81106108ff576108ff610e52565b015581600484600a811061091557610915610e52565b0180546001600160a01b0319166001600160a01b039290921691909117905580600e84600a811061094857610948610e52565b01558261095481610e79565b93505050506107e1565b50610b10565b601754821115610b1057600d80546001600160a01b0319166001600160a01b038516179055601782905560095b5f811180156109d15750600e6109a8600183610e66565b600a81106109b8576109b8610e52565b0154600e82600a81106109cd576109cd610e52565b0154115b15610b0e575f60046109e4600184610e66565b600a81106109f4576109f4610e52565b01546001600160a01b031690505f600e610a0f600185610e66565b600a8110610a1f57610a1f610e52565b01549050600483600a8110610a3657610a36610e52565b01546001600160a01b03166004610a4e600186610e66565b600a8110610a5e57610a5e610e52565b0180546001600160a01b0319166001600160a01b0392909216919091179055600e83600a8110610a9057610a90610e52565b0154600e610a9f600186610e66565b600a8110610aaf57610aaf610e52565b015581600484600a8110610ac557610ac5610e52565b0180546001600160a01b0319166001600160a01b039290921691909117905580600e84600a8110610af857610af8610e52565b015582610b0481610e79565b9350505050610991565b505b826001600160a01b03167f24e225604268d6416871b32db1be8e49f497caf8360393b31d71a34a4ce2669383604051610b4b91815260200190565b60405180910390a2505050565b61453980610e8f83390190565b5f60208284031215610b75575f5ffd5b81356001600160a01b0381168114610b8b575f5ffd5b9392505050565b5f60208284031215610ba2575f5ffd5b5035919050565b5f5f83601f840112610bb9575f5ffd5b50813567ffffffffffffffff811115610bd0575f5ffd5b602083019150836020828501011115610be7575f5ffd5b9250929050565b5f5f5f5f5f5f5f5f5f60c08a8c031215610c06575f5ffd5b893567ffffffffffffffff811115610c1c575f5ffd5b610c288c828d01610ba9565b909a5098505060208a0135965060408a0135955060608a013567ffffffffffffffff811115610c55575f5ffd5b610c618c828d01610ba9565b90965094505060808a013567ffffffffffffffff811115610c80575f5ffd5b8a01601f81018c13610c90575f5ffd5b803567ffffffffffffffff811115610ca6575f5ffd5b8c60208260071b8401011115610cba575f5ffd5b999c989b5096999598949793966020019560a001359392505050565b602080825282518282018190525f918401906040840190835b81811015610d165783516001600160a01b0316835260209384019390920191600101610cef565b509095945050505050565b81835281816020850137505f828201602090810191909152601f909101601f19169091010190565b80358015158114610d58575f5ffd5b919050565b6001600160a01b038c811682528b166020820152610100604082018190525f90610d8a9083018b8d610d21565b89606084015288608084015282810360a0840152610da981888a610d21565b83810360c08501528581528691506020015f5b86811015610e0a578235825260208084013590830152610dde60408401610d49565b15156040830152610df160608401610d49565b1515606083015260809283019290910190600101610dbc565b5060e09390930193909352509b9a5050505050505050505050565b634e487b7160e01b5f52601160045260245ffd5b80820180821115610e4c57610e4c610e25565b92915050565b634e487b7160e01b5f52603260045260245ffd5b81810381811115610e4c57610e4c610e25565b5f81610e8757610e87610e25565b505f19019056fe608060405234801561000f575f5ffd5b5060405161453938038061453983398101604081905261002e916104b2565b60017f9b779b17422d0df92223018b32b4d1fa46e071723d6817e2486d003becc55f0055836100a45760405162461bcd60e51b815260206004820152601460248201527f446562652074656e65722070726567756e74617300000000000000000000000060448201526064015b60405180910390fd5b5f85116100e65760405162461bcd60e51b815260206004820152601060248201526f50756e74616a6520696e76616c69646f60801b604482015260640161009b565b838511156101365760405162461bcd60e51b815260206004820152601660248201527f50756e74616a65206d61796f7220616c20746f74616c00000000000000000000604482015260640161009b565b838251146101955760405162461bcd60e51b815260206004820152602660248201527f526f6e646173206e6f20636f696e636964656e20636f6e20746f74616c5175656044820152657374696f6e7360d01b606482015260840161009b565b5f80546001600160a01b03808b166001600160a01b03199283161790925560018054928a169290911691909117905560036101d08782610606565b506004859055600584905560076101e78482610606565b50600e8190555f5b825181101561027457600a83828151811061020c5761020c6106c0565b6020908102919091018101518254600180820185555f948552938390208251600390920201908155918101518284015560408101516002909201805460609092015161ffff1990921692151561ff0019169290921761010091151591909102179055016101ef565b5030604051610282906102de565b6001600160a01b039091168152602001604051809103905ff0801580156102ab573d5f5f3e3d5ffd5b50600280546001600160a01b0319166001600160a01b0392909216919091179055505042602055506106d4945050505050565b61159f80612f9a83390190565b80516001600160a01b0381168114610301575f5ffd5b919050565b634e487b7160e01b5f52604160045260245ffd5b604051608081016001600160401b038111828210171561033c5761033c610306565b60405290565b604051601f8201601f191681016001600160401b038111828210171561036a5761036a610306565b604052919050565b5f82601f830112610381575f5ffd5b81516001600160401b0381111561039a5761039a610306565b6103ad601f8201601f1916602001610342565b8181528460208386010111156103c1575f5ffd5b8160208501602083015e5f918101602001919091529392505050565b80518015158114610301575f5ffd5b5f82601f8301126103fb575f5ffd5b81516001600160401b0381111561041457610414610306565b61042360208260051b01610342565b8082825260208201915060208360071b860101925085831115610444575f5ffd5b602085015b838110156104a85760808188031215610460575f5ffd5b61046861031a565b8151815260208083015190820152610482604083016103dd565b6040820152610493606083016103dd565b60608201528352602090920191608001610449565b5095945050505050565b5f5f5f5f5f5f5f5f610100898b0312156104ca575f5ffd5b6104d3896102eb565b97506104e160208a016102eb565b60408a01519097506001600160401b038111156104fc575f5ffd5b6105088b828c01610372565b60608b015160808c015160a08d0151929950909750955090506001600160401b03811115610534575f5ffd5b6105408b828c01610372565b60c08b015190945090506001600160401b0381111561055d575f5ffd5b6105698b828c016103ec565b60e09a909a0151989b979a509598949793969295505050565b600181811c9082168061059657607f821691505b6020821081036105b457634e487b7160e01b5f52602260045260245ffd5b50919050565b601f82111561060157805f5260205f20601f840160051c810160208510156105df5750805b601f840160051c820191505b818110156105fe575f81556001016105eb565b50505b505050565b81516001600160401b0381111561061f5761061f610306565b6106338161062d8454610582565b846105ba565b6020601f821160018114610665575f831561064e5750848201515b5f19600385901b1c1916600184901b1784556105fe565b5f84815260208120601f198516915b828110156106945787850151825560209485019460019092019101610674565b50848210156106b157868401515f19600387901b60f8161c191681555b50505050600190811b01905550565b634e487b7160e01b5f52603260045260245ffd5b6128b9806106e15f395ff3fe608060405260043610610228575f3560e01c806376dd110f11610129578063bdf22ab4116100a8578063e3ccbd131161006d578063e3ccbd1314610682578063e91ac3bf146106a1578063ef6eedc1146106b5578063f60cdcf6146106d4578063ff9bf1de146106e9575f5ffd5b8063bdf22ab4146105f2578063bea5b91414610607578063c1661db11461061c578063c45a01551461065c578063d4f77b1c1461067a575f5ffd5b80638e7e9a3c116100ee5780638e7e9a3c1461054b57806395ee12211461055f5780639a297c0114610578578063b043b8c9146105bf578063b5545a3c146105de575f5ffd5b806376dd110f1461048e5780637b352962146104b95780637c7dd8ba146104d2578063877f4e12146104e7578063885d68a814610515575f5ffd5b8063381e47cd116101b55780635d132b911161017a5780635d132b911461040a57806366eb597a1461041e57806370740ac914610437578063719ce73e1461044b57806373b2e80e14610460575f5ffd5b8063381e47cd14610367578063473bc223146103865780634f263233146103a75780635113940d146103d2578063565b7995146103f1575f5ffd5b806313801538116101fb57806313801538146102b557806315da65a5146102f35780631a5e0f371461030857806324f1ce4e1461032957806333a3b9e214610348575f5ffd5b8063072ea61c1461022c578063085f0316146102545780630e3c5ccb14610269578063116380e31461027e575b5f5ffd5b348015610237575f5ffd5b50610241600e5481565b6040519081526020015b60405180910390f35b34801561025f575f5ffd5b5061024160205481565b348015610274575f5ffd5b50610241601d5481565b348015610289575f5ffd5b5060025461029d906001600160a01b031681565b6040516001600160a01b03909116815260200161024b565b3480156102c0575f5ffd5b506102e36102cf36600461212f565b601e6020525f908152604090205460ff1681565b604051901515815260200161024b565b3480156102fe575f5ffd5b5061024160065481565b348015610313575f5ffd5b5061032761032236600461214f565b6106fd565b005b348015610334575f5ffd5b506103276103433660046121bb565b610860565b348015610353575f5ffd5b5061032761036236600461221e565b610a8e565b348015610372575f5ffd5b5061024161038136600461214f565b610ce6565b348015610391575f5ffd5b5061039a610cfc565b60405161024b91906122ea565b3480156103b2575f5ffd5b506102416103c136600461214f565b60126020525f908152604090205481565b3480156103dd575f5ffd5b5060015461029d906001600160a01b031681565b3480156103fc575f5ffd5b506013546102e39060ff1681565b348015610415575f5ffd5b50610327610d88565b348015610429575f5ffd5b50601f546102e39060ff1681565b348015610442575f5ffd5b50610327610ed0565b348015610456575f5ffd5b50610241600f5481565b34801561046b575f5ffd5b506102e361047a36600461212f565b600d6020525f908152604090205460ff1681565b348015610499575f5ffd5b506102416104a836600461212f565b600c6020525f908152604090205481565b3480156104c4575f5ffd5b506009546102e39060ff1681565b3480156104dd575f5ffd5b5061024161a8c081565b3480156104f2575f5ffd5b506102e361050136600461212f565b60116020525f908152604090205460ff1681565b348015610520575f5ffd5b5061024161052f36600461231f565b600b60209081525f928352604080842090915290825290205481565b348015610556575f5ffd5b50610327611295565b34801561056a575f5ffd5b506021546102e39060ff1681565b348015610583575f5ffd5b5061059761059236600461214f565b61160f565b604080519485526020850193909352901515918301919091521515606082015260800161024b565b3480156105ca575f5ffd5b506103276105d9366004612349565b61164c565b3480156105e9575f5ffd5b50610327611977565b3480156105fd575f5ffd5b5061024160045481565b348015610612575f5ffd5b5061024160055481565b348015610627575f5ffd5b5061064a61063636600461214f565b60086020525f908152604090205460ff1681565b60405160ff909116815260200161024b565b348015610667575f5ffd5b505f5461029d906001600160a01b031681565b610327611c82565b34801561068d575f5ffd5b5061024161069c36600461214f565b611e96565b3480156106ac575f5ffd5b50610327611ea5565b3480156106c0575f5ffd5b506102416106cf36600461214f565b6120ae565b3480156106df575f5ffd5b5061024160105481565b3480156106f4575f5ffd5b5061039a6120bd565b335f9081526011602052604090205460ff166107345760405162461bcd60e51b815260040161072b906123e7565b60405180910390fd5b600654600a80548290811061074b5761074b61242a565b5f91825260209091206002600390920201015460ff166107a65760405162461bcd60e51b81526020600482015260166024820152754661736520646520636f6d6d6974206365727261646160501b604482015260640161072b565b816107df5760405162461bcd60e51b815260206004820152600960248201526848617368206e756c6f60b81b604482015260640161072b565b5f818152600b60209081526040808320338452909152902054156108455760405162461bcd60e51b815260206004820152601c60248201527f596120726573706f6e646973746520657374612070726567756e746100000000604482015260640161072b565b5f908152600b60209081526040808320338452909152902055565b6001546001600160a01b0316331461088a5760405162461bcd60e51b815260040161072b9061243e565b60215460ff16156108ad5760405162461bcd60e51b815260040161072b9061247f565b600654600a8054829081106108c4576108c461242a565b5f91825260209091206002600390920201015460ff166109265760405162461bcd60e51b815260206004820152601960248201527f4e6f206573746120656e206661736520646520636f6d6d697400000000000000604482015260640161072b565b5f8484843360405160200161093e94939291906124c5565b604051602081830303815290604052805190602001209050600a82815481106109695761096961242a565b905f5260205f2090600302016001015481146109c75760405162461bcd60e51b815260206004820152601c60248201527f486173682064652072657370756573746120696e636f72726563746f00000000604482015260640161072b565b5f828152600860205260408120805460ff191660ff8816179055600a8054849081106109f5576109f561242a565b905f5260205f2090600302016002015f6101000a81548160ff0219169083151502179055506001600a8381548110610a2f57610a2f61242a565b5f918252602080832060026003909302019190910180549315156101000261ff0019909416939093179092554290915560405183917f9f48cac694ad868cba9c30d5ff1dfdeb034062b2d87eb6d32e5318392faeb08f91a25050505050565b335f9081526011602052604090205460ff16610abc5760405162461bcd60e51b815260040161072b906123e7565b600a8381548110610acf57610acf61242a565b905f5260205f20906003020160020160019054906101000a900460ff16610b315760405162461bcd60e51b8152602060048201526016602482015275466173652064652072657665616c206365727261646160501b604482015260640161072b565b5f838152600b6020908152604080832033845290915290205480610ba25760405162461bcd60e51b815260206004820152602260248201527f4e6f206869636973746520636f6d6d697420656e20657374612070726567756e604482015261746160f01b606482015260840161072b565b5f838333604051602001610bb893929190612508565b604051602081830303815290604052805190602001209050818114610c295760405162461bcd60e51b815260206004820152602160248201527f456c2068617368206e6f20636f696e6369646520636f6e20747520636f6d6d696044820152601d60fa1b606482015260840161072b565b5f858152600b602090815260408083203384528252808320839055878352600890915290205460ff90811690851603610cdf57335f908152600c60209081526040808320548084526012909252822080549192600192610c8a908490612561565b90915550610c9b905081600161257a565b335f908152600c6020526040812091909155600190601290610cbd848461257a565b81526020019081526020015f205f828254610cd8919061257a565b9091555050505b5050505050565b601a8160038110610cf5575f80fd5b0154905081565b60038054610d099061258d565b80601f0160208091040260200160405190810160405280929190818152602001828054610d359061258d565b8015610d805780601f10610d5757610100808354040283529160200191610d80565b820191905f5260205f20905b815481529060010190602001808311610d6357829003601f168201915b505050505081565b6001546001600160a01b03163314610db25760405162461bcd60e51b815260040161072b9061243e565b60215460ff1615610dd55760405162461bcd60e51b815260040161072b9061247f565b600654600a805482908110610dec57610dec61242a565b905f5260205f20906003020160020160019054906101000a900460ff16610e5f5760405162461bcd60e51b815260206004820152602160248201527f5072696d65726f2068617920717565206162726972206c6f732072657665616c6044820152607360f81b606482015260840161072b565b5f600a8281548110610e7357610e7361242a565b905f5260205f20906003020160020160016101000a81548160ff021916908315150217905550600160065f828254610eab919061257a565b90915550504260205560055460065403610ecd576009805460ff191660011790555b50565b610ed86120ca565b60135460ff16610f3d5760405162461bcd60e51b815260206004820152602a60248201527f5072696d65726f2073652064656265206c6c616d617220612063616c63756c6160448201526974655072697a6573282960b01b606482015260840161072b565b6001545f906001600160a01b0316330361100b57601f5460ff1615610fa45760405162461bcd60e51b815260206004820152601f60248201527f456c2070726f6665736f722079612072657469726f207375207072656d696f00604482015260640161072b565b5f601d5411610ff55760405162461bcd60e51b815260206004820152601e60248201527f4e6f20686179207072656d696f207061726120656c2070726f6665736f720000604482015260640161072b565b50601f805460ff19166001179055601d546111b1565b335f9081526011602052604090205460ff166110695760405162461bcd60e51b815260206004820152601d60248201527f4e6f2070617274696369706173746520656e2065737465206a7565676f000000604482015260640161072b565b335f908152601e602052604090205460ff16156110c15760405162461bcd60e51b8152602060048201526016602482015275596120726574697261737465207475207072656d696f60501b604482015260640161072b565b335f908152600c6020526040812054905b60038160ff161015611146575f60178260ff16600381106110f5576110f561242a565b015411801561111a575060148160ff16600381106111155761111561242a565b015482145b1561113e57601a8160ff16600381106111355761113561242a565b01549250611146565b6001016110d2565b505f82116111965760405162461bcd60e51b815260206004820152601e60248201527f54752070756e74616a65206e6f206573746120656e20656c20746f7020330000604482015260640161072b565b50335f908152601e60205260409020805460ff191660011790555b6040515f90339083908381818185875af1925050503d805f81146111f0576040519150601f19603f3d011682016040523d82523d5f602084013e6111f5565b606091505b50509050806112465760405162461bcd60e51b815260206004820152601d60248201527f4c61207472616e73666572656e636961206465204554482066616c6c6f000000604482015260640161072b565b60405182815233907f95681e512bc0fe659e195e06c283eada494316f3d801213e48e7101af92bf7709060200160405180910390a2505061129360015f5160206128645f395f51905f5255565b565b60095460ff166112e25760405162461bcd60e51b8152602060048201526018602482015277456c206a7565676f206e6f206861207465726d696e61646f60401b604482015260640161072b565b60135460ff16156113355760405162461bcd60e51b815260206004820181905260248201527f4c6f73207072656d696f7320796120667565726f6e2063616c63756c61646f73604482015260640161072b565b5f600f54116113955760405162461bcd60e51b815260206004820152602660248201527f4e6f2068617920706f7a6f206465207072656d696f73207061726120646973746044820152653934b13ab4b960d11b606482015260840161072b565b6013805460ff19166001179055600f545f906064906113b590603c6125c5565b6113bf91906125dc565b90505f6064600f5460146113d391906125c5565b6113dd91906125dc565b90505f6064600f54600a6113f191906125c5565b6113fb91906125dc565b6005549091505f90819081905b6003841015611574575f818152601260205260409020548015611554575f61143186600161257a565b90505f61143e838861257a565b90505f60018311801590611453575060018210155b15611465576114628b8261257a565b90505b60028311158015611477575060028210155b15611489576114868a8261257a565b90505b6003831115801561149b575060038210155b156114ad576114aa898261257a565b90505b8015611544578460148860ff16600381106114ca576114ca61242a565b015583601760ff8916600381106114e3576114e361242a565b01556114ef84826125dc565b601a8860ff16600381106115055761150561242a565b015583601a60ff89166003811061151e5761151e61242a565b015461152a91906125c5565b611534908761257a565b955086611540816125fb565b9750505b61154e848961257a565b97505050505b815f036115615750611574565b8161156b81612619565b92505050611408565b5080600f546115839190612561565b601d557f3a15c38dc3a696664486bb89549cadff81d8efcdfd8baa3151f55f445d4ac46e600160ff841610156115b9575f6115bd565b6014545b60028460ff1610156115cf575f6115d3565b6015545b60038560ff1610156115e5575f6115e9565b6016545b6040805193845260208401929092529082015260600160405180910390a1505050505050565b600a818154811061161e575f80fd5b5f91825260209091206003909102018054600182015460029092015490925060ff8082169161010090041684565b6001546001600160a01b031633146116765760405162461bcd60e51b815260040161072b9061243e565b60215460ff16156116995760405162461bcd60e51b815260040161072b9061247f565b60095460ff16156116df5760405162461bcd60e51b815260206004820152601060248201526f456c206a7565676f207465726d696e6f60801b604482015260640161072b565b60065480156117ab57600a6116f5600183612561565b815481106117055761170561242a565b5f91825260209091206002600390920201015460ff1615801561175f5750600a611730600183612561565b815481106117405761174061242a565b905f5260205f20906003020160020160019054906101000a900460ff16155b6117ab5760405162461bcd60e51b815260206004820152601760248201527f48617920756e612070726567756e746120616374697661000000000000000000604482015260640161072b565b60055481106117f35760405162461bcd60e51b81526020600482015260146024820152734e6f20686179206d61732070726567756e74617360601b604482015260640161072b565b5f8686611800878061262e565b61180d60208a018a61262e565b61181a60408c018c61262e565b61182760608e018e61262e565b8d8d6040516020016118449c9b9a99989796959493929190612671565b604051602081830303815290604052805190602001209050600a828154811061186f5761186f61242a565b905f5260205f2090600302015f015481146118cc5760405162461bcd60e51b815260206004820152601960248201527f486173682064652070726567756e746120696e76616c69646f00000000000000604482015260640161072b565b6001600a83815481106118e1576118e161242a565b5f9182526020808320600392909202909101600201805460ff1916931515939093179092554290915560405183917fe1925ed1b18a09ca8c0798ae918409f2db5036dfd27b61f1f433d17fc68b9ab491a2817f396da80a66a431ebe4395ffecf7669105c6f1c07c69a99c25835e1b77d840dad888888604051611966939291906126ec565b60405180910390a250505050505050565b61197f6120ca565b335f9081526011602052604090205460ff166119dd5760405162461bcd60e51b815260206004820152601d60248201527f4e6f2070617274696369706173746520656e2065737465206a7565676f000000604482015260640161072b565b335f908152601e602052604090205460ff1615611a475760405162461bcd60e51b815260206004820152602260248201527f59612072657469726173746520756e207072656d696f206f207265656d626f6c604482015261736f60f01b606482015260840161072b565b61a8c0602054611a57919061257a565b421015611ab65760405162461bcd60e51b815260206004820152602760248201527f456c2074696d656f757420646520696e6163746976696461642061756e206e6f6044820152662076656e63696f60c81b606482015260840161072b565b60095460ff1615611b175760405162461bcd60e51b815260206004820152602560248201527f456c206a7565676f207961207465726d696e6f3b2075736120636c61696d5072604482015264697a65282960d81b606482015260840161072b565b335f908152601e60205260408120805460ff19166001179055600e54600f805491929091611b46908490612561565b909155505060215460ff16611b9d576021805460ff191660011790556040517f0eba9245670e53c48b16c055d88729ddb0dd01afe009fbcad1d4de13a0b9777a90611b949042815260200190565b60405180910390a15b600e546040515f9133918381818185875af1925050503d805f8114611bdd576040519150601f19603f3d011682016040523d82523d5f602084013e611be2565b606091505b5050905080611c335760405162461bcd60e51b815260206004820152601d60248201527f4c61207472616e73666572656e636961206465204554482066616c6c6f000000604482015260640161072b565b600e5460405190815233907f358fe4192934d3bf28ae181feda1f4bd08ca67f5e2fad55582cce5eb67304ae99060200160405180910390a25061129360015f5160206128645f395f51905f5255565b60215460ff1615611ca55760405162461bcd60e51b815260040161072b9061247f565b600654158015611cdb5750600a5f81548110611cc357611cc361242a565b5f91825260209091206002600390920201015460ff16155b611d275760405162461bcd60e51b815260206004820181905260248201527f456c206a7565676f20796120636f6d656e7a6f206f207961207465726d696e6f604482015260640161072b565b335f9081526011602052604090205460ff1615611d7e5760405162461bcd60e51b8152602060048201526015602482015274596120746520756e6973746520616c206a7565676f60581b604482015260640161072b565b600e543414611ddb5760405162461bcd60e51b8152602060048201526024808201527f446562657320656e76696172206578616374616d656e746520656c20656e74726044820152637946656560e01b606482015260840161072b565b335f908152601160205260408120805460ff19166001179055600f8054349290611e0690849061257a565b909155505060108054905f611e1a83612791565b90915550505f80805260126020527f7e7fa33969761a458e04f477e039a608702b4f924981d6653935a8319a08ad7b805460019290611e5a90849061257a565b909155505060405134815233907f3330a6773675f31f62070870f40379f8c6d42e3761410011a4dfc42b18043d2f9060200160405180910390a2565b60148160038110610cf5575f80fd5b60095460ff16611ef25760405162461bcd60e51b8152602060048201526018602482015277456c206a7565676f206e6f206861207465726d696e61646f60401b604482015260640161072b565b335f908152600d602052604090205460ff1615611f515760405162461bcd60e51b815260206004820152601860248201527f5961207265636c616d61737465207475206469706c6f6d610000000000000000604482015260640161072b565b600454335f908152600c60205260409020541015611fb15760405162461bcd60e51b815260206004820152601d60248201527f4e6f20616c63616e7a617320656c2070756e74616a65206d696e696d6f000000604482015260640161072b565b335f818152600d602052604090819020805460ff191660011790556002549051630361cd6d60e41b81526001600160a01b03919091169163361cd6d091611ffe91906007906004016127a9565b5f604051808303815f87803b158015612015575f5ffd5b505af1158015612027573d5f5f3e3d5ffd5b50505f54604051637cd813dd60e11b81523360048201526001600160a01b03909116925063f9b027ba91506024015f604051808303815f87803b15801561206c575f5ffd5b505af115801561207e573d5f5f3e3d5ffd5b50506040513392507f7eb95b23bdc14656738c72aeadbb1777cdb36ea43c622ddeb9b2c871935fb36e91505f90a2565b60178160038110610cf5575f80fd5b60078054610d099061258d565b6120d26120e5565b60025f5160206128645f395f51905f5255565b5f5160206128645f395f51905f525460020361129357604051633ee5aeb560e01b815260040160405180910390fd5b80356001600160a01b038116811461212a575f5ffd5b919050565b5f6020828403121561213f575f5ffd5b61214882612114565b9392505050565b5f6020828403121561215f575f5ffd5b5035919050565b803560ff8116811461212a575f5ffd5b5f5f83601f840112612186575f5ffd5b50813567ffffffffffffffff81111561219d575f5ffd5b6020830191508360208285010111156121b4575f5ffd5b9250929050565b5f5f5f604084860312156121cd575f5ffd5b6121d684612166565b9250602084013567ffffffffffffffff8111156121f1575f5ffd5b6121fd86828701612176565b9497909650939450505050565b634e487b7160e01b5f52604160045260245ffd5b5f5f5f60608486031215612230575f5ffd5b8335925061224060208501612166565b9150604084013567ffffffffffffffff81111561225b575f5ffd5b8401601f8101861361226b575f5ffd5b803567ffffffffffffffff8111156122855761228561220a565b604051601f8201601f19908116603f0116810167ffffffffffffffff811182821017156122b4576122b461220a565b6040528181528282016020018810156122cb575f5ffd5b816020840160208301375f602083830101528093505050509250925092565b602081525f82518060208401528060208501604085015e5f604082850101526040601f19601f83011684010191505092915050565b5f5f60408385031215612330575f5ffd5b8235915061234060208401612114565b90509250929050565b5f5f5f5f5f6060868803121561235d575f5ffd5b853567ffffffffffffffff811115612373575f5ffd5b61237f88828901612176565b909650945050602086013567ffffffffffffffff81111561239e575f5ffd5b8601608081018810156123af575f5ffd5b9250604086013567ffffffffffffffff8111156123ca575f5ffd5b6123d688828901612176565b969995985093965092949392505050565b60208082526023908201527f446562657320756e69727465207072696d65726f20636f6e206a6f696e47616d60408201526265282960e81b606082015260800190565b634e487b7160e01b5f52603260045260245ffd5b60208082526021908201527f536f6c6f20656c2070726f666520707565646520656a656375746172206573746040820152606f60f81b606082015260800190565b60208082526026908201527f456c206a7565676f206675652063616e63656c61646f20706f7220696e6163746040820152651a5d9a59185960d21b606082015260800190565b60f885901b6001600160f81b03191681528284600183013760609190911b6bffffffffffffffffffffffff19166001919092019081019190915260150192915050565b60ff60f81b8460f81b1681525f83518060208601600185015e60609390931b6bffffffffffffffffffffffff1916600192909301918201929092526015019392505050565b634e487b7160e01b5f52601160045260245ffd5b818103818111156125745761257461254d565b92915050565b808201808211156125745761257461254d565b600181811c908216806125a157607f821691505b6020821081036125bf57634e487b7160e01b5f52602260045260245ffd5b50919050565b80820281158282048414176125745761257461254d565b5f826125f657634e487b7160e01b5f52601260045260245ffd5b500490565b5f60ff821660ff81036126105761261061254d565b60010192915050565b5f816126275761262761254d565b505f190190565b5f5f8335601e19843603018112612643575f5ffd5b83018035915067ffffffffffffffff82111561265d575f5ffd5b6020019150368190038213156121b4575f5ffd5b8b8d82375f8c82015f81528b8d82375f908c01908152898b82375f908a01908152878982375f908801908152858782375f908601908152838582375f930192835250909c9b505050505050505050505050565b81835281816020850137505f828201602090810191909152601f909101601f19169091010190565b604081525f6126ff6040830185876126c4565b82810360208401528060808101855f36829003601e19015b60048210156127825785840385528235818112612732575f5ffd5b890160208101903567ffffffffffffffff81111561274e575f5ffd5b80360382131561275c575f5ffd5b6127678682846126c4565b95505050602083019250602085019450600182019150612717565b50919998505050505050505050565b5f600182016127a2576127a261254d565b5060010190565b6001600160a01b03831681526040602082015281545f908190600181811c908216806127d657607f821691505b6020821081036127f457634e487b7160e01b5f52602260045260245ffd5b6040860182905260608601818015612813576001811461282957612855565b60ff198516825283151560051b82019550612855565b5f898152602090205f5b8581101561284f57815484820152600190910190602001612833565b83019650505b50939897505050505050505056fe9b779b17422d0df92223018b32b4d1fa46e071723d6817e2486d003becc55f00a2646970667358221220a0dff89299d517881f9145ec34d9e1778fdfe4c2254501a5e09dca5ae61742a564736f6c634300081c003360a060405234801561000f575f5ffd5b5060405161159f38038061159f83398101604081905261002e916100d6565b6040518060400160405280601381526020017f4b61686f6f742057656233204469706c6f6d61000000000000000000000000008152506040518060400160405280600381526020016212d5d160ea1b815250815f908161008e919061019b565b50600161009b828261019b565b5050506001600160a01b0381166100c55760405163e6c4247b60e01b815260040160405180910390fd5b6001600160a01b0316608052610255565b5f602082840312156100e6575f5ffd5b81516001600160a01b03811681146100fc575f5ffd5b9392505050565b634e487b7160e01b5f52604160045260245ffd5b600181811c9082168061012b57607f821691505b60208210810361014957634e487b7160e01b5f52602260045260245ffd5b50919050565b601f82111561019657805f5260205f20601f840160051c810160208510156101745750805b601f840160051c820191505b81811015610193575f8155600101610180565b50505b505050565b81516001600160401b038111156101b4576101b4610103565b6101c8816101c28454610117565b8461014f565b6020601f8211600181146101fa575f83156101e35750848201515b5f19600385901b1c1916600184901b178455610193565b5f84815260208120601f198516915b828110156102295787850151825560209485019460019092019101610209565b508482101561024657868401515f19600387901b60f8161c191681555b50505050600190811b01905550565b60805161132b6102745f395f818161018901526103e1015261132b5ff3fe608060405234801561000f575f5ffd5b50600436106100f0575f3560e01c806342842e0e11610093578063a22cb46511610063578063a22cb4651461020d578063b88d4fde14610220578063c87b56dd14610233578063e985e9c514610246575f5ffd5b806342842e0e146101be5780636352211e146101d157806370a08231146101e457806395d89b4114610205575f5ffd5b8063095ea7b3116100ce578063095ea7b31461015c57806323b872dd146101715780632438fe3214610184578063361cd6d0146101ab575f5ffd5b806301ffc9a7146100f457806306fdde031461011c578063081812fc14610131575b5f5ffd5b610107610102366004610e46565b610259565b60405190151581526020015b60405180910390f35b610124610283565b6040516101139190610e8f565b61014461013f366004610ea1565b610312565b6040516001600160a01b039091168152602001610113565b61016f61016a366004610ed3565b610339565b005b61016f61017f366004610efb565b610348565b6101447f000000000000000000000000000000000000000000000000000000000000000081565b61016f6101b9366004610fc0565b6103d6565b61016f6101cc366004610efb565b610450565b6101446101df366004610ea1565b61046a565b6101f76101f236600461101e565b610474565b604051908152602001610113565b6101246104b9565b61016f61021b366004611037565b6104c8565b61016f61022e366004611070565b6104d3565b610124610241366004610ea1565b6104eb565b6101076102543660046110e7565b61056c565b5f6001600160e01b03198216632483248360e11b148061027d575061027d82610599565b92915050565b60605f805461029190611118565b80601f01602080910402602001604051908101604052809291908181526020018280546102bd90611118565b80156103085780601f106102df57610100808354040283529160200191610308565b820191905f5260205f20905b8154815290600101906020018083116102eb57829003601f168201915b5050505050905090565b5f61031c826105e8565b505f828152600460205260409020546001600160a01b031661027d565b610344828233610620565b5050565b6001600160a01b03821661037657604051633250574960e11b81525f60048201526024015b60405180910390fd5b5f61038283833361062d565b9050836001600160a01b0316816001600160a01b0316146103d0576040516364283d7b60e01b81526001600160a01b038086166004830152602482018490528216604482015260640161036d565b50505050565b336001600160a01b037f000000000000000000000000000000000000000000000000000000000000000016146104215760405163a91baf8160e01b815233600482015260240161036d565b600780545f918261043183611150565b919050559050610441838261071f565b61044b8183610738565b505050565b61044b83838360405180602001604052805f8152506104d3565b5f61027d826105e8565b5f6001600160a01b03821661049e576040516322718ad960e21b81525f600482015260240161036d565b506001600160a01b03165f9081526003602052604090205490565b60606001805461029190611118565b610344338383610787565b6104de848484610348565b6103d0338585858561084e565b60606104f6826105e8565b505f61050c60408051602081019091525f815290565b90505f61051884610976565b905081515f03610529579392505050565b80511561055b57818160405160200161054392919061118b565b60405160208183030381529060405292505050919050565b61056484610a15565b949350505050565b6001600160a01b039182165f90815260056020908152604080832093909416825291909152205460ff1690565b5f6001600160e01b031982166380ac58cd60e01b14806105c957506001600160e01b03198216635b5e139f60e01b145b8061027d57506301ffc9a760e01b6001600160e01b031983161461027d565b5f818152600260205260408120546001600160a01b03168061027d57604051637e27328960e01b81526004810184905260240161036d565b61044b8383836001610a86565b5f828152600260205260408120546001600160a01b039081169083161561065957610659818486610b8a565b6001600160a01b03811615610693576106745f855f5f610a86565b6001600160a01b0381165f90815260036020526040902080545f190190555b6001600160a01b038516156106c1576001600160a01b0385165f908152600360205260409020805460010190555b5f8481526002602052604080822080546001600160a01b0319166001600160a01b0389811691821790925591518793918516917fddf252ad1be2c89b69c2b068fc378daa952ba7f163c4a11628f55a4df523b3ef91a4949350505050565b610344828260405180602001604052805f815250610bee565b5f82815260066020526040902061074f82826111e3565b506040518281527ff8e1a15aba9398e019f0b49df1a4fde98ee17ae345cb5f6b5e2c27f5033e8ce79060200160405180910390a15050565b6001600160a01b0383166107b05760405163a9fbf51f60e01b81525f600482015260240161036d565b6001600160a01b0382166107e257604051630b61174360e31b81526001600160a01b038316600482015260240161036d565b6001600160a01b038381165f81815260056020908152604080832094871680845294825291829020805460ff191686151590811790915591519182527f17307eab39ab6107e8899845ad3d59bd9653f200f220920489ca2b5937696c31910160405180910390a3505050565b6001600160a01b0383163b1561096f57604051630a85bd0160e11b81526001600160a01b0384169063150b7a029061089090889088908790879060040161129e565b6020604051808303815f875af19250505080156108ca575060408051601f3d908101601f191682019092526108c7918101906112da565b60015b610931573d8080156108f7576040519150601f19603f3d011682016040523d82523d5f602084013e6108fc565b606091505b5080515f0361092957604051633250574960e11b81526001600160a01b038516600482015260240161036d565b805160208201fd5b6001600160e01b03198116630a85bd0160e11b1461096d57604051633250574960e11b81526001600160a01b038516600482015260240161036d565b505b5050505050565b5f81815260066020526040902080546060919061099290611118565b80601f01602080910402602001604051908101604052809291908181526020018280546109be90611118565b8015610a095780601f106109e057610100808354040283529160200191610a09565b820191905f5260205f20905b8154815290600101906020018083116109ec57829003601f168201915b50505050509050919050565b6060610a20826105e8565b505f610a3660408051602081019091525f815290565b90505f815111610a545760405180602001604052805f815250610a7f565b80610a5e84610c05565b604051602001610a6f92919061118b565b6040516020818303038152906040525b9392505050565b8080610a9a57506001600160a01b03821615155b15610b5b575f610aa9846105e8565b90506001600160a01b03831615801590610ad55750826001600160a01b0316816001600160a01b031614155b8015610ae85750610ae6818461056c565b155b15610b115760405163a9fbf51f60e01b81526001600160a01b038416600482015260240161036d565b8115610b595783856001600160a01b0316826001600160a01b03167f8c5be1e5ebec7d5bd14f71427d1e84f3dd0314c0f7b2291e5b200ac8c7c3b92560405160405180910390a45b505b50505f90815260046020526040902080546001600160a01b0319166001600160a01b0392909216919091179055565b610b95838383610c95565b61044b576001600160a01b038316610bc357604051637e27328960e01b81526004810182905260240161036d565b60405163177e802f60e01b81526001600160a01b03831660048201526024810182905260440161036d565b610bf88383610cf6565b61044b335f85858561084e565b60605f610c1183610d57565b60010190505f8167ffffffffffffffff811115610c3057610c30610f35565b6040519080825280601f01601f191660200182016040528015610c5a576020820181803683370190505b5090508181016020015b5f19016f181899199a1a9b1b9c1cb0b131b232b360811b600a86061a8153600a8504945084610c6457509392505050565b5f6001600160a01b038316158015906105645750826001600160a01b0316846001600160a01b03161480610cce5750610cce848461056c565b806105645750505f908152600460205260409020546001600160a01b03908116911614919050565b6001600160a01b038216610d1f57604051633250574960e11b81525f600482015260240161036d565b5f610d2b83835f61062d565b90506001600160a01b0381161561044b576040516339e3563760e11b81525f600482015260240161036d565b5f8072184f03e93ff9f4daa797ed6e38ed64bf6a1f0160401b8310610d955772184f03e93ff9f4daa797ed6e38ed64bf6a1f0160401b830492506040015b6d04ee2d6d415b85acef81000000008310610dc1576d04ee2d6d415b85acef8100000000830492506020015b662386f26fc100008310610ddf57662386f26fc10000830492506010015b6305f5e1008310610df7576305f5e100830492506008015b6127108310610e0b57612710830492506004015b60648310610e1d576064830492506002015b600a831061027d5760010192915050565b6001600160e01b031981168114610e43575f5ffd5b50565b5f60208284031215610e56575f5ffd5b8135610a7f81610e2e565b5f81518084528060208401602086015e5f602082860101526020601f19601f83011685010191505092915050565b602081525f610a7f6020830184610e61565b5f60208284031215610eb1575f5ffd5b5035919050565b80356001600160a01b0381168114610ece575f5ffd5b919050565b5f5f60408385031215610ee4575f5ffd5b610eed83610eb8565b946020939093013593505050565b5f5f5f60608486031215610f0d575f5ffd5b610f1684610eb8565b9250610f2460208501610eb8565b929592945050506040919091013590565b634e487b7160e01b5f52604160045260245ffd5b5f5f67ffffffffffffffff841115610f6357610f63610f35565b50604051601f19601f85018116603f0116810181811067ffffffffffffffff82111715610f9257610f92610f35565b604052838152905080828401851015610fa9575f5ffd5b838360208301375f60208583010152509392505050565b5f5f60408385031215610fd1575f5ffd5b610fda83610eb8565b9150602083013567ffffffffffffffff811115610ff5575f5ffd5b8301601f81018513611005575f5ffd5b61101485823560208401610f49565b9150509250929050565b5f6020828403121561102e575f5ffd5b610a7f82610eb8565b5f5f60408385031215611048575f5ffd5b61105183610eb8565b915060208301358015158114611065575f5ffd5b809150509250929050565b5f5f5f5f60808587031215611083575f5ffd5b61108c85610eb8565b935061109a60208601610eb8565b925060408501359150606085013567ffffffffffffffff8111156110bc575f5ffd5b8501601f810187136110cc575f5ffd5b6110db87823560208401610f49565b91505092959194509250565b5f5f604083850312156110f8575f5ffd5b61110183610eb8565b915061110f60208401610eb8565b90509250929050565b600181811c9082168061112c57607f821691505b60208210810361114a57634e487b7160e01b5f52602260045260245ffd5b50919050565b5f6001820161116d57634e487b7160e01b5f52601160045260245ffd5b5060010190565b5f81518060208401855e5f93019283525090919050565b5f6105646111998386611174565b84611174565b601f82111561044b57805f5260205f20601f840160051c810160208510156111c45750805b601f840160051c820191505b8181101561096f575f81556001016111d0565b815167ffffffffffffffff8111156111fd576111fd610f35565b6112118161120b8454611118565b8461119f565b6020601f821160018114611243575f831561122c5750848201515b5f19600385901b1c1916600184901b17845561096f565b5f84815260208120601f198516915b828110156112725787850151825560209485019460019092019101611252565b508482101561128f57868401515f19600387901b60f8161c191681555b50505050600190811b01905550565b6001600160a01b03858116825284166020820152604081018390526080606082018190525f906112d090830184610e61565b9695505050505050565b5f602082840312156112ea575f5ffd5b8151610a7f81610e2e56fea26469706673582212209f3436f819001bd78d3edb7411fb72021170c6e27815ebc40653101dffbe8cd364736f6c634300081c0033a2646970667358221220eac0d59ea01f7f42073f4411f309798dfdd309700fcd712dbcaa51624e10eb2e64736f6c634300081c0033",
  "linkReferences": {},
  "deployedLinkReferences": {},
  "immutableReferences": {},
  "inputSourceName": "project/contracts/KahootFactory.sol",
  "buildInfoId": "solc-0_8_28-fae0f2ffa8d8ef633a75e117688992c39c0ea93c"
}