{
  "_format": "hh3-artifact-1",
  "contractName": "KahootGame",
  "sourceName": "contracts/KahootGame.sol",
  "abi": [
    {
      "inputs": [
        {
          "internalType": "address",
          "name": "_factory",
          "type": "address"
        },
        {
          "internalType": "address",
          "name": "_professor",
          "type": "address"
        },
        {
          "internalType": "string",
          "name": "_gameName",
          "type": "string"
        },
        {
          "internalType": "uint256",
          "name": "_passingScore",
          "type": "uint256"
        },
        {
          "internalType": "uint256",
          "name": "_totalQuestions",
          "type": "uint256"
        },
        {
          "internalType": "string",
          "name": "_diplomaTokenURI",
          "type": "string"
        },
        {
          "components": [
            {
              "internalType": "bytes32",
              "name": "hashVerificacionPregunta",
              "type": "bytes32"
            },
            {
              "internalType": "bytes32",
              "name": "hashRespuestaCorrecta",
              "type": "bytes32"
            },
            {
              "internalType": "bool",
              "name": "commitPhaseOpen",
              "type": "bool"
            },
            {
              "internalType": "bool",
              "name": "revealPhaseOpen",
              "type": "bool"
            }
          ],
          "internalType": "struct KahootGame.RondaOculta[]",
          "name": "_rondas",
          "type": "tuple[]"
        },
        {
          "internalType": "uint256",
          "name": "_entryFee",
          "type": "uint256"
        }
      ],
      "stateMutability": "nonpayable",
      "type": "constructor"
    },
    {
      "inputs": [],
      "name": "ReentrancyGuardReentrantCall",
      "type": "error"
    },
    {
      "anonymous": false,
      "inputs": [
        {
          "indexed": true,
          "internalType": "address",
          "name": "student",
          "type": "address"
        }
      ],
      "name": "DiplomaClaimed",
      "type": "event"
    },
    {
      "anonymous": false,
      "inputs": [
        {
          "indexed": false,
          "internalType": "uint256",
          "name": "triggeredAt",
          "type": "uint256"
        }
      ],
      "name": "GameCancelledByInactivity",
      "type": "event"
    },
    {
      "anonymous": false,
      "inputs": [
        {
          "indexed": true,
          "internalType": "address",
          "name": "player",
          "type": "address"
        },
        {
          "indexed": false,
          "internalType": "uint256",
          "name": "feePaid",
          "type": "uint256"
        }
      ],
      "name": "PlayerJoined",
      "type": "event"
    },
    {
      "anonymous": false,
      "inputs": [
        {
          "indexed": true,
          "internalType": "address",
          "name": "recipient",
          "type": "address"
        },
        {
          "indexed": false,
          "internalType": "uint256",
          "name": "amount",
          "type": "uint256"
        }
      ],
      "name": "PrizeClaimed",
      "type": "event"
    },
    {
      "anonymous": false,
      "inputs": [
        {
          "indexed": false,
          "internalType": "uint256",
          "name": "rank1Score",
          "type": "uint256"
        },
        {
          "indexed": false,
          "internalType": "uint256",
          "name": "rank2Score",
          "type": "uint256"
        },
        {
          "indexed": false,
          "internalType": "uint256",
          "name": "rank3Score",
          "type": "uint256"
        }
      ],
      "name": "PrizesCalculated",
      "type": "event"
    },
    {
      "anonymous": false,
      "inputs": [
        {
          "indexed": true,
          "internalType": "uint256",
          "name": "questionId",
          "type": "uint256"
        }
      ],
      "name": "QuestionOpened",
      "type": "event"
    },
    {
      "anonymous": false,
      "inputs": [
        {
          "indexed": true,
          "internalType": "uint256",
          "name": "questionId",
          "type": "uint256"
        },
        {
          "indexed": false,
          "internalType": "string",
          "name": "enunciado",
          "type": "string"
        },
        {
          "indexed": false,
          "internalType": "string[4]",
          "name": "opciones",
          "type": "string[4]"
        }
      ],
      "name": "QuestionRevealed",
      "type": "event"
    },
    {
      "anonymous": false,
      "inputs": [
        {
          "indexed": true,
          "internalType": "address",
          "name": "player",
          "type": "address"
        },
        {
          "indexed": false,
          "internalType": "uint256",
          "name": "amount",
          "type": "uint256"
        }
      ],
      "name": "RefundClaimed",
      "type": "event"
    },
    {
      "anonymous": false,
      "inputs": [
        {
          "indexed": true,
          "internalType": "uint256",
          "name": "questionId",
          "type": "uint256"
        }
      ],
      "name": "RevealPhaseStarted",
      "type": "event"
    },
    {
      "inputs": [],
      "name": "INACTIVITY_TIMEOUT",
      "outputs": [
        {
          "internalType": "uint256",
          "name": "",
          "type": "uint256"
        }
      ],
      "stateMutability": "view",
      "type": "function"
    },
    {
      "inputs": [],
      "name": "advanceToNextQuestion",
      "outputs": [],
      "stateMutability": "nonpayable",
      "type": "function"
    },
    {
      "inputs": [
        {
          "internalType": "uint256[]",
          "name": "_questionIds",
          "type": "uint256[]"
        },
        {
          "internalType": "uint8[]",
          "name": "_options",
          "type": "uint8[]"
        },
        {
          "internalType": "string[]",
          "name": "_salts",
          "type": "string[]"
        }
      ],
      "name": "batchRevealAnswers",
      "outputs": [],
      "stateMutability": "nonpayable",
      "type": "function"
    },
    {
      "inputs": [],
      "name": "calculatePrizes",
      "outputs": [],
      "stateMutability": "nonpayable",
      "type": "function"
    },
    {
      "inputs": [],
      "name": "claimDiploma",
      "outputs": [],
      "stateMutability": "nonpayable",
      "type": "function"
    },
    {
      "inputs": [],
      "name": "claimPrize",
      "outputs": [],
      "stateMutability": "nonpayable",
      "type": "function"
    },
    {
      "inputs": [],
      "name": "claimRefund",
      "outputs": [],
      "stateMutability": "nonpayable",
      "type": "function"
    },
    {
      "inputs": [
        {
          "internalType": "uint8",
          "name": "_correctOption",
          "type": "uint8"
        },
        {
          "internalType": "string",
          "name": "_saltRespuesta",
          "type": "string"
        },
        {
          "internalType": "string",
          "name": "_nextEnunciado",
          "type": "string"
        },
        {
          "internalType": "string[4]",
          "name": "_nextOpciones",
          "type": "string[4]"
        },
        {
          "internalType": "string",
          "name": "_nextSaltProfesor",
          "type": "string"
        }
      ],
      "name": "closeCurrentAndOpenNext",
      "outputs": [],
      "stateMutability": "nonpayable",
      "type": "function"
    },
    {
      "inputs": [
        {
          "internalType": "uint8",
          "name": "_correctOption",
          "type": "uint8"
        },
        {
          "internalType": "string",
          "name": "_saltRespuesta",
          "type": "string"
        }
      ],
      "name": "closeQuestionAndStartReveal",
      "outputs": [],
      "stateMutability": "nonpayable",
      "type": "function"
    },
    {
      "inputs": [
        {
          "internalType": "bytes32",
          "name": "_commitHash",
          "type": "bytes32"
        }
      ],
      "name": "commitAnswer",
      "outputs": [],
      "stateMutability": "nonpayable",
      "type": "function"
    },
    {
      "inputs": [
        {
          "internalType": "uint256",
          "name": "",
          "type": "uint256"
        },
        {
          "internalType": "address",
          "name": "",
          "type": "address"
        }
      ],
      "name": "commits",
      "outputs": [
        {
          "internalType": "bytes32",
          "name": "",
          "type": "bytes32"
        }
      ],
      "stateMutability": "view",
      "type": "function"
    },
    {
      "inputs": [],
      "name": "currentQuestionId",
      "outputs": [
        {
          "internalType": "uint256",
          "name": "",
          "type": "uint256"
        }
      ],
      "stateMutability": "view",
      "type": "function"
    },
    {
      "inputs": [],
      "name": "diplomaContract",
      "outputs": [
        {
          "internalType": "contract DiplomaNFT",
          "name": "",
          "type": "address"
        }
      ],
      "stateMutability": "view",
      "type": "function"
    },
    {
      "inputs": [],
      "name": "entryFee",
      "outputs": [
        {
          "internalType": "uint256",
          "name": "",
          "type": "uint256"
        }
      ],
      "stateMutability": "view",
      "type": "function"
    },
    {
      "inputs": [],
      "name": "factory",
      "outputs": [
        {
          "internalType": "address",
          "name": "",
          "type": "address"
        }
      ],
      "stateMutability": "view",
      "type": "function"
    },
    {
      "inputs": [],
      "name": "gameName",
      "outputs": [
        {
          "internalType": "string",
          "name": "",
          "type": "string"
        }
      ],
      "stateMutability": "view",
      "type": "function"
    },
    {
      "inputs": [
        {
          "internalType": "address",
          "name": "",
          "type": "address"
        }
      ],
      "name": "hasClaimed",
      "outputs": [
        {
          "internalType": "bool",
          "name": "",
          "type": "bool"
        }
      ],
      "stateMutability": "view",
      "type": "function"
    },
    {
      "inputs": [
        {
          "internalType": "address",
          "name": "",
          "type": "address"
        }
      ],
      "name": "hasJoined",
      "outputs": [
        {
          "internalType": "bool",
          "name": "",
          "type": "bool"
        }
      ],
      "stateMutability": "view",
      "type": "function"
    },
    {
      "inputs": [
        {
          "internalType": "address",
          "name": "",
          "type": "address"
        }
      ],
      "name": "hasPrizeClaimed",
      "outputs": [
        {
          "internalType": "bool",
          "name": "",
          "type": "bool"
        }
      ],
      "stateMutability": "view",
      "type": "function"
    },
    {
      "inputs": [],
      "name": "isCancelled",
      "outputs": [
        {
          "internalType": "bool",
          "name": "",
          "type": "bool"
        }
      ],
      "stateMutability": "view",
      "type": "function"
    },
    {
      "inputs": [],
      "name": "isFinished",
      "outputs": [
        {
          "internalType": "bool",
          "name": "",
          "type": "bool"
        }
      ],
      "stateMutability": "view",
      "type": "function"
    },
    {
      "inputs": [],
      "name": "joinGame",
      "outputs": [],
      "stateMutability": "payable",
      "type": "function"
    },
    {
      "inputs": [],
      "name": "lastActionTime",
      "outputs": [
        {
          "internalType": "uint256",
          "name": "",
          "type": "uint256"
        }
      ],
      "stateMutability": "view",
      "type": "function"
    },
    {
      "inputs": [
        {
          "internalType": "uint256",
          "name": "",
          "type": "uint256"
        }
      ],
      "name": "listaDeRondas",
      "outputs": [
        {
          "internalType": "bytes32",
          "name": "hashVerificacionPregunta",
          "type": "bytes32"
        },
        {
          "internalType": "bytes32",
          "name": "hashRespuestaCorrecta",
          "type": "bytes32"
        },
        {
          "internalType": "bool",
          "name": "commitPhaseOpen",
          "type": "bool"
        },
        {
          "internalType": "bool",
          "name": "revealPhaseOpen",
          "type": "bool"
        }
      ],
      "stateMutability": "view",
      "type": "function"
    },
    {
      "inputs": [],
      "name": "passingScore",
      "outputs": [
        {
          "internalType": "uint256",
          "name": "",
          "type": "uint256"
        }
      ],
      "stateMutability": "view",
      "type": "function"
    },
    {
      "inputs": [
        {
          "internalType": "uint256",
          "name": "",
          "type": "uint256"
        }
      ],
      "name": "prizePerPlayerAtRank",
      "outputs": [
        {
          "internalType": "uint256",
          "name": "",
          "type": "uint256"
        }
      ],
      "stateMutability": "view",
      "type": "function"
    },
    {
      "inputs": [],
      "name": "prizePool",
      "outputs": [
        {
          "internalType": "uint256",
          "name": "",
          "type": "uint256"
        }
      ],
      "stateMutability": "view",
      "type": "function"
    },
    {
      "inputs": [],
      "name": "prizesCalculated",
      "outputs": [
        {
          "internalType": "bool",
          "name": "",
          "type": "bool"
        }
      ],
      "stateMutability": "view",
      "type": "function"
    },
    {
      "inputs": [],
      "name": "professor",
      "outputs": [
        {
          "internalType": "address",
          "name": "",
          "type": "address"
        }
      ],
      "stateMutability": "view",
      "type": "function"
    },
    {
      "inputs": [],
      "name": "professorPrize",
      "outputs": [
        {
          "internalType": "uint256",
          "name": "",
          "type": "uint256"
        }
      ],
      "stateMutability": "view",
      "type": "function"
    },
    {
      "inputs": [],
      "name": "professorPrizeClaimed",
      "outputs": [
        {
          "internalType": "bool",
          "name": "",
          "type": "bool"
        }
      ],
      "stateMutability": "view",
      "type": "function"
    },
    {
      "inputs": [
        {
          "internalType": "uint256",
          "name": "_questionId",
          "type": "uint256"
        },
        {
          "internalType": "uint8",
          "name": "_option",
          "type": "uint8"
        },
        {
          "internalType": "string",
          "name": "_salt",
          "type": "string"
        }
      ],
      "name": "revealAnswer",
      "outputs": [],
      "stateMutability": "nonpayable",
      "type": "function"
    },
    {
      "inputs": [
        {
          "internalType": "uint256",
          "name": "",
          "type": "uint256"
        }
      ],
      "name": "revealedAnswers",
      "outputs": [
        {
          "internalType": "uint8",
          "name": "",
          "type": "uint8"
        }
      ],
      "stateMutability": "view",
      "type": "function"
    },
    {
      "inputs": [
        {
          "internalType": "uint256",
          "name": "",
          "type": "uint256"
        }
      ],
      "name": "scoreFrequency",
      "outputs": [
        {
          "internalType": "uint256",
          "name": "",
          "type": "uint256"
        }
      ],
      "stateMutability": "view",
      "type": "function"
    },
    {
      "inputs": [
        {
          "internalType": "address",
          "name": "",
          "type": "address"
        }
      ],
      "name": "scores",
      "outputs": [
        {
          "internalType": "uint256",
          "name": "",
          "type": "uint256"
        }
      ],
      "stateMutability": "view",
      "type": "function"
    },
    {
      "inputs": [
        {
          "internalType": "string",
          "name": "_enunciado",
          "type": "string"
        },
        {
          "internalType": "string[4]",
          "name": "_opciones",
          "type": "string[4]"
        },
        {
          "internalType": "string",
          "name": "_saltPregunta",
          "type": "string"
        }
      ],
      "name": "startNextQuestion",
      "outputs": [],
      "stateMutability": "nonpayable",
      "type": "function"
    },
    {
      "inputs": [
        {
          "internalType": "uint256",
          "name": "",
          "type": "uint256"
        }
      ],
      "name": "topScoreCounts",
      "outputs": [
        {
          "internalType": "uint256",
          "name": "",
          "type": "uint256"
        }
      ],
      "stateMutability": "view",
      "type": "function"
    },
    {
      "inputs": [
        {
          "internalType": "uint256",
          "name": "",
          "type": "uint256"
        }
      ],
      "name": "topScoreValues",
      "outputs": [
        {
          "internalType": "uint256",
          "name": "",
          "type": "uint256"
        }
      ],
      "stateMutability": "view",
      "type": "function"
    },
    {
      "inputs": [],
      "name": "totalQuestions",
      "outputs": [
        {
          "internalType": "uint256",
          "name": "",
          "type": "uint256"
        }
      ],
      "stateMutability": "view",
      "type": "function"
    }
  ],
  "bytecode": "0x608060405234801561000f575f5ffd5b506040516149cf3803806149cf83398101604081905261002e916104a1565b60017f9b779b17422d0df92223018b32b4d1fa46e071723d6817e2486d003becc55f0055836100a45760405162461bcd60e51b815260206004820152601460248201527f446562652074656e65722070726567756e74617300000000000000000000000060448201526064015b60405180910390fd5b5f85116100e65760405162461bcd60e51b815260206004820152601060248201526f50756e74616a6520696e76616c69646f60801b604482015260640161009b565b838511156101365760405162461bcd60e51b815260206004820152601660248201527f50756e74616a65206d61796f7220616c20746f74616c00000000000000000000604482015260640161009b565b838251146101955760405162461bcd60e51b815260206004820152602660248201527f526f6e646173206e6f20636f696e636964656e20636f6e20746f74616c5175656044820152657374696f6e7360d01b606482015260840161009b565b5f80546001600160a01b03808b166001600160a01b03199283161790925560018054928a169290911691909117905560026101d087826105f5565b5060048590556005849055600d8190555f5b82518110156102675760098382815181106101ff576101ff6106af565b6020908102919091018101518254600180820185555f948552938390208251600390920201908155918101518284015560408101516002909201805460609092015161ffff1990921692151561ff0019169290921761010091151591909102179055016101e2565b503083604051610276906102cd565b6102819291906106c3565b604051809103905ff08015801561029a573d5f5f3e3d5ffd5b50600380546001600160a01b0319166001600160a01b0392909216919091179055505042601e5550610707945050505050565b6112848061374b83390190565b80516001600160a01b03811681146102f0575f5ffd5b919050565b634e487b7160e01b5f52604160045260245ffd5b604051608081016001600160401b038111828210171561032b5761032b6102f5565b60405290565b604051601f8201601f191681016001600160401b0381118282101715610359576103596102f5565b604052919050565b5f82601f830112610370575f5ffd5b81516001600160401b03811115610389576103896102f5565b61039c601f8201601f1916602001610331565b8181528460208386010111156103b0575f5ffd5b8160208501602083015e5f918101602001919091529392505050565b805180151581146102f0575f5ffd5b5f82601f8301126103ea575f5ffd5b81516001600160401b03811115610403576104036102f5565b61041260208260051b01610331565b8082825260208201915060208360071b860101925085831115610433575f5ffd5b602085015b83811015610497576080818803121561044f575f5ffd5b610457610309565b8151815260208083015190820152610471604083016103cc565b6040820152610482606083016103cc565b60608201528352602090920191608001610438565b5095945050505050565b5f5f5f5f5f5f5f5f610100898b0312156104b9575f5ffd5b6104c2896102da565b97506104d060208a016102da565b60408a01519097506001600160401b038111156104eb575f5ffd5b6104f78b828c01610361565b60608b015160808c015160a08d0151929950909750955090506001600160401b03811115610523575f5ffd5b61052f8b828c01610361565b60c08b015190945090506001600160401b0381111561054c575f5ffd5b6105588b828c016103db565b60e09a909a0151989b979a509598949793969295505050565b600181811c9082168061058557607f821691505b6020821081036105a357634e487b7160e01b5f52602260045260245ffd5b50919050565b601f8211156105f057805f5260205f20601f840160051c810160208510156105ce5750805b601f840160051c820191505b818110156105ed575f81556001016105da565b50505b505050565b81516001600160401b0381111561060e5761060e6102f5565b6106228161061c8454610571565b846105a9565b6020601f821160018114610654575f831561063d5750848201515b5f19600385901b1c1916600184901b1784556105ed565b5f84815260208120601f198516915b828110156106835787850151825560209485019460019092019101610663565b50848210156106a057868401515f19600387901b60f8161c191681555b50505050600190811b01905550565b634e487b7160e01b5f52603260045260245ffd5b60018060a01b0383168152604060208201525f82518060408401528060208501606085015e5f606082850101526060601f19601f8301168401019150509392505050565b613037806107145f395ff3fe608060405260043610610228575f3560e01c806376dd110f11610129578063b043b8c9116100a8578063c45a01551161006d578063c45a01551461069a578063d4f77b1c146106b8578063e3ccbd13146106c0578063e91ac3bf146106df578063ef6eedc1146106f3575f5ffd5b8063b043b8c9146105fd578063b5545a3c1461061c578063bdf22ab414610630578063bea5b91414610645578063c1661db11461065a575f5ffd5b8063877f4e12116100ee578063877f4e1214610525578063885d68a8146105535780638e7e9a3c1461058957806395ee12211461059d5780639a297c01146105b6575f5ffd5b806376dd110f1461048e5780637a82513a146104b95780637b352962146104d85780637b3e3212146104f15780637c7dd8ba14610510575f5ffd5b8063381e47cd116101b55780635d132b911161017a5780635d132b911461040a57806366eb597a1461041e57806370740ac914610437578063719ce73e1461044b57806373b2e80e14610460575f5ffd5b8063381e47cd14610367578063473bc223146103865780634f263233146103a75780635113940d146103d2578063565b7995146103f1575f5ffd5b806313801538116101fb57806313801538146102b557806315da65a5146102f35780631a5e0f371461030857806324f1ce4e1461032957806333a3b9e214610348575f5ffd5b8063072ea61c1461022c578063085f0316146102545780630e3c5ccb14610269578063116380e31461027e575b5f5ffd5b348015610237575f5ffd5b50610241600d5481565b6040519081526020015b60405180910390f35b34801561025f575f5ffd5b50610241601e5481565b348015610274575f5ffd5b50610241601b5481565b348015610289575f5ffd5b5060035461029d906001600160a01b031681565b6040516001600160a01b03909116815260200161024b565b3480156102c0575f5ffd5b506102e36102cf366004612772565b601c6020525f908152604090205460ff1681565b604051901515815260200161024b565b3480156102fe575f5ffd5b5061024160065481565b348015610313575f5ffd5b50610327610322366004612792565b610712565b005b348015610334575f5ffd5b506103276103433660046127fd565b610875565b348015610353575f5ffd5b5061032761036236600461285f565b610a9b565b348015610372575f5ffd5b50610241610381366004612792565b610cb9565b348015610391575f5ffd5b5061039a610ccf565b60405161024b9190612928565b3480156103b2575f5ffd5b506102416103c1366004612792565b60106020525f908152604090205481565b3480156103dd575f5ffd5b5060015461029d906001600160a01b031681565b3480156103fc575f5ffd5b506011546102e39060ff1681565b348015610415575f5ffd5b50610327610d5b565b348015610429575f5ffd5b50601d546102e39060ff1681565b348015610442575f5ffd5b50610327610ea3565b348015610456575f5ffd5b50610241600e5481565b34801561046b575f5ffd5b506102e361047a366004612772565b600c6020525f908152604090205460ff1681565b348015610499575f5ffd5b506102416104a8366004612772565b600b6020525f908152604090205481565b3480156104c4575f5ffd5b506103276104d336600461299d565b611268565b3480156104e3575f5ffd5b506008546102e39060ff1681565b3480156104fc575f5ffd5b5061032761050b366004612a4f565b61155e565b34801561051b575f5ffd5b5061024161a8c081565b348015610530575f5ffd5b506102e361053f366004612772565b600f6020525f908152604090205460ff1681565b34801561055e575f5ffd5b5061024161056d366004612b24565b600a60209081525f928352604080842090915290825290205481565b348015610594575f5ffd5b5061032761195f565b3480156105a8575f5ffd5b50601f546102e39060ff1681565b3480156105c1575f5ffd5b506105d56105d0366004612792565b611cd9565b604080519485526020850193909352901515918301919091521515606082015260800161024b565b348015610608575f5ffd5b50610327610617366004612b4e565b611d16565b348015610627575f5ffd5b5061032761203a565b34801561063b575f5ffd5b5061024160045481565b348015610650575f5ffd5b5061024160055481565b348015610665575f5ffd5b50610688610674366004612792565b60076020525f908152604090205460ff1681565b60405160ff909116815260200161024b565b3480156106a5575f5ffd5b505f5461029d906001600160a01b031681565b610327612345565b3480156106cb575f5ffd5b506102416106da366004612792565b612545565b3480156106ea575f5ffd5b50610327612554565b3480156106fe575f5ffd5b5061024161070d366004612792565b6126fe565b335f908152600f602052604090205460ff166107495760405162461bcd60e51b815260040161074090612be5565b60405180910390fd5b600654600980548290811061076057610760612c28565b5f91825260209091206002600390920201015460ff166107bb5760405162461bcd60e51b81526020600482015260166024820152754661736520646520636f6d6d6974206365727261646160501b6044820152606401610740565b816107f45760405162461bcd60e51b815260206004820152600960248201526848617368206e756c6f60b81b6044820152606401610740565b5f818152600a602090815260408083203384529091529020541561085a5760405162461bcd60e51b815260206004820152601c60248201527f596120726573706f6e646973746520657374612070726567756e7461000000006044820152606401610740565b5f908152600a60209081526040808320338452909152902055565b6001546001600160a01b0316331461089f5760405162461bcd60e51b815260040161074090612c3c565b601f5460ff16156108c25760405162461bcd60e51b815260040161074090612c7d565b60065460098054829081106108d9576108d9612c28565b5f91825260209091206002600390920201015460ff166109375760405162461bcd60e51b8152602060048201526019602482015278139bc8195cdd1848195b8819985cd94819194818dbdb5b5a5d603a1b6044820152606401610740565b5f8484843360405160200161094f9493929190612cc3565b6040516020818303038152906040528051906020012090506009828154811061097a5761097a612c28565b905f5260205f2090600302016001015481146109d85760405162461bcd60e51b815260206004820152601c60248201527f486173682064652072657370756573746120696e636f72726563746f000000006044820152606401610740565b5f828152600760205260408120805460ff191660ff88161790556009805484908110610a0657610a06612c28565b905f5260205f2090600302016002015f6101000a81548160ff021916908315150217905550600160098381548110610a4057610a40612c28565b5f9182526020822060026003909202010180549215156101000261ff00199093169290921790915542601e5560405183917f9f48cac694ad868cba9c30d5ff1dfdeb034062b2d87eb6d32e5318392faeb08f91a25050505050565b335f908152600f602052604090205460ff16610ac95760405162461bcd60e51b815260040161074090612be5565b60098381548110610adc57610adc612c28565b905f5260205f20906003020160020160019054906101000a900460ff16610b3e5760405162461bcd60e51b8152602060048201526016602482015275466173652064652072657665616c206365727261646160501b6044820152606401610740565b5f838152600a6020908152604080832033845290915290205480610baf5760405162461bcd60e51b815260206004820152602260248201527f4e6f206869636973746520636f6d6d697420656e20657374612070726567756e604482015261746160f01b6064820152608401610740565b5f838333604051602001610bc593929190612d06565b604051602081830303815290604052805190602001209050818114610bfc5760405162461bcd60e51b815260040161074090612d4b565b5f858152600a602090815260408083203384528252808320839055878352600790915290205460ff90811690851603610cb257335f908152600b60209081526040808320548084526010909252822080549192600192610c5d908490612da0565b90915550610c6e9050816001612db3565b335f908152600b6020526040812091909155600190601090610c908484612db3565b81526020019081526020015f205f828254610cab9190612db3565b9091555050505b5050505050565b60188160038110610cc8575f80fd5b0154905081565b60028054610cdc90612dc6565b80601f0160208091040260200160405190810160405280929190818152602001828054610d0890612dc6565b8015610d535780601f10610d2a57610100808354040283529160200191610d53565b820191905f5260205f20905b815481529060010190602001808311610d3657829003601f168201915b505050505081565b6001546001600160a01b03163314610d855760405162461bcd60e51b815260040161074090612c3c565b601f5460ff1615610da85760405162461bcd60e51b815260040161074090612c7d565b6006546009805482908110610dbf57610dbf612c28565b905f5260205f20906003020160020160019054906101000a900460ff16610e325760405162461bcd60e51b815260206004820152602160248201527f5072696d65726f2068617920717565206162726972206c6f732072657665616c6044820152607360f81b6064820152608401610740565b5f60098281548110610e4657610e46612c28565b905f5260205f20906003020160020160016101000a81548160ff021916908315150217905550600160065f828254610e7e9190612db3565b909155505042601e5560055460065403610ea0576008805460ff191660011790555b50565b610eab61270d565b60115460ff16610f105760405162461bcd60e51b815260206004820152602a60248201527f5072696d65726f2073652064656265206c6c616d617220612063616c63756c6160448201526974655072697a6573282960b01b6064820152608401610740565b6001545f906001600160a01b03163303610fde57601d5460ff1615610f775760405162461bcd60e51b815260206004820152601f60248201527f456c2070726f6665736f722079612072657469726f207375207072656d696f006044820152606401610740565b5f601b5411610fc85760405162461bcd60e51b815260206004820152601e60248201527f4e6f20686179207072656d696f207061726120656c2070726f6665736f7200006044820152606401610740565b50601d805460ff19166001179055601b54611184565b335f908152600f602052604090205460ff1661103c5760405162461bcd60e51b815260206004820152601d60248201527f4e6f2070617274696369706173746520656e2065737465206a7565676f0000006044820152606401610740565b335f908152601c602052604090205460ff16156110945760405162461bcd60e51b8152602060048201526016602482015275596120726574697261737465207475207072656d696f60501b6044820152606401610740565b335f908152600b6020526040812054905b60038160ff161015611119575f60158260ff16600381106110c8576110c8612c28565b01541180156110ed575060128160ff16600381106110e8576110e8612c28565b015482145b156111115760188160ff166003811061110857611108612c28565b01549250611119565b6001016110a5565b505f82116111695760405162461bcd60e51b815260206004820152601e60248201527f54752070756e74616a65206e6f206573746120656e20656c20746f70203300006044820152606401610740565b50335f908152601c60205260409020805460ff191660011790555b6040515f90339083908381818185875af1925050503d805f81146111c3576040519150601f19603f3d011682016040523d82523d5f602084013e6111c8565b606091505b50509050806112195760405162461bcd60e51b815260206004820152601d60248201527f4c61207472616e73666572656e636961206465204554482066616c6c6f0000006044820152606401610740565b60405182815233907f95681e512bc0fe659e195e06c283eada494316f3d801213e48e7101af92bf7709060200160405180910390a2505061126660015f516020612fe25f395f51905f5255565b565b335f908152600f602052604090205460ff166112965760405162461bcd60e51b815260040161074090612be5565b84831480156112a457508281145b6112e55760405162461bcd60e51b81526020600482015260126024820152714d69736d617463686564206c656e6774687360701b6044820152606401610740565b5f5b85811015611555575f87878381811061130257611302612c28565b9050602002013590506009818154811061131e5761131e612c28565b905f5260205f20906003020160020160019054906101000a900460ff1680611347575060065481105b80611354575060085460ff165b6113b25760405162461bcd60e51b815260206004820152602960248201527f466173652064652072657665616c2063657272616461206f206e6f20657320656044820152686c206d6f6d656e746f60b81b6064820152608401610740565b5f818152600a60209081526040808320338452909152902054806113d757505061154d565b5f8787858181106113ea576113ea612c28565b90506020020160208101906113ff9190612dfe565b86868681811061141157611411612c28565b90506020028101906114239190612e17565b336040516020016114379493929190612cc3565b60405160208183030381529060405280519060200120905081811461146e5760405162461bcd60e51b815260040161074090612d4b565b5f838152600a602090815260408083203384528252808320839055858352600790915290205460ff168888868181106114a9576114a9612c28565b90506020020160208101906114be9190612dfe565b60ff160361154957335f908152600b602090815260408083205480845260109092528220805491926001926114f4908490612da0565b909155506115059050816001612db3565b335f908152600b60205260408120919091556001906010906115278484612db3565b81526020019081526020015f205f8282546115429190612db3565b9091555050505b5050505b6001016112e7565b50505050505050565b6001546001600160a01b031633146115885760405162461bcd60e51b815260040161074090612c3c565b601f5460ff16156115ab5760405162461bcd60e51b815260040161074090612c7d565b60065460098054829081106115c2576115c2612c28565b5f91825260209091206002600390920201015460ff166116205760405162461bcd60e51b8152602060048201526019602482015278139bc8195cdd1848195b8819985cd94819194818dbdb5b5a5d603a1b6044820152606401610740565b5f898989336040516020016116389493929190612cc3565b6040516020818303038152906040528051906020012090506009828154811061166357611663612c28565b905f5260205f2090600302016001015481146116c15760405162461bcd60e51b815260206004820152601c60248201527f486173682064652072657370756573746120696e636f72726563746f000000006044820152606401610740565b5f828152600760205260408120805460ff191660ff8d1617905560098054849081106116ef576116ef612c28565b5f9182526020822060039190910201600201805460ff191692151592909217909155600980548490811061172557611725612c28565b5f9182526020822060026003909202010180549215156101000261ff00199093169290921790915560405183917f9f48cac694ad868cba9c30d5ff1dfdeb034062b2d87eb6d32e5318392faeb08f91a2600160065f8282546117879190612db3565b909155505060065460055481106117d75760405162461bcd60e51b81526020600482015260146024820152734e6f20686179206d61732070726567756e74617360601b6044820152606401610740565b5f88886117e48980612e17565b6117f160208c018c612e17565b6117fe60408e018e612e17565b8e60036020028101906118119190612e17565b8f8f60405160200161182e9c9b9a99989796959493929190612e59565b6040516020818303038152906040528051906020012090506009828154811061185957611859612c28565b905f5260205f2090600302015f015481146118b25760405162461bcd60e51b8152602060048201526019602482015278486173682064652070726567756e746120696e76616c69646f60381b6044820152606401610740565b6001600983815481106118c7576118c7612c28565b5f9182526020822060039190910201600201805460ff19169215159290921790915542601e5560405183917fe1925ed1b18a09ca8c0798ae918409f2db5036dfd27b61f1f433d17fc68b9ab491a2817f396da80a66a431ebe4395ffecf7669105c6f1c07c69a99c25835e1b77d840dad8a8a8a60405161194993929190612ed4565b60405180910390a2505050505050505050505050565b60085460ff166119ac5760405162461bcd60e51b8152602060048201526018602482015277456c206a7565676f206e6f206861207465726d696e61646f60401b6044820152606401610740565b60115460ff16156119ff5760405162461bcd60e51b815260206004820181905260248201527f4c6f73207072656d696f7320796120667565726f6e2063616c63756c61646f736044820152606401610740565b5f600e5411611a5f5760405162461bcd60e51b815260206004820152602660248201527f4e6f2068617920706f7a6f206465207072656d696f73207061726120646973746044820152653934b13ab4b960d11b6064820152608401610740565b6011805460ff19166001179055600e545f90606490611a7f90603c612f78565b611a899190612f8f565b90505f6064600e546014611a9d9190612f78565b611aa79190612f8f565b90505f6064600e54600a611abb9190612f78565b611ac59190612f8f565b6005549091505f90819081905b6003841015611c3e575f818152601060205260409020548015611c1e575f611afb866001612db3565b90505f611b088388612db3565b90505f60018311801590611b1d575060018210155b15611b2f57611b2c8b82612db3565b90505b60028311158015611b41575060028210155b15611b5357611b508a82612db3565b90505b60038311158015611b65575060038210155b15611b7757611b748982612db3565b90505b8015611c0e578460128860ff1660038110611b9457611b94612c28565b015583601560ff891660038110611bad57611bad612c28565b0155611bb98482612f8f565b60188860ff1660038110611bcf57611bcf612c28565b015583601860ff891660038110611be857611be8612c28565b0154611bf49190612f78565b611bfe9087612db3565b955086611c0a81612fae565b9750505b611c188489612db3565b97505050505b815f03611c2b5750611c3e565b81611c3581612fcc565b92505050611ad2565b5080600e54611c4d9190612da0565b601b557f3a15c38dc3a696664486bb89549cadff81d8efcdfd8baa3151f55f445d4ac46e600160ff84161015611c83575f611c87565b6012545b60028460ff161015611c99575f611c9d565b6013545b60038560ff161015611caf575f611cb3565b6014545b6040805193845260208401929092529082015260600160405180910390a1505050505050565b60098181548110611ce8575f80fd5b5f91825260209091206003909102018054600182015460029092015490925060ff8082169161010090041684565b6001546001600160a01b03163314611d405760405162461bcd60e51b815260040161074090612c3c565b601f5460ff1615611d635760405162461bcd60e51b815260040161074090612c7d565b60085460ff1615611da95760405162461bcd60e51b815260206004820152601060248201526f456c206a7565676f207465726d696e6f60801b6044820152606401610740565b6006548015611e75576009611dbf600183612da0565b81548110611dcf57611dcf612c28565b5f91825260209091206002600390920201015460ff16158015611e2957506009611dfa600183612da0565b81548110611e0a57611e0a612c28565b905f5260205f20906003020160020160019054906101000a900460ff16155b611e755760405162461bcd60e51b815260206004820152601760248201527f48617920756e612070726567756e7461206163746976610000000000000000006044820152606401610740565b6005548110611ebd5760405162461bcd60e51b81526020600482015260146024820152734e6f20686179206d61732070726567756e74617360601b6044820152606401610740565b5f8686611eca8780612e17565b611ed760208a018a612e17565b611ee460408c018c612e17565b611ef160608e018e612e17565b8d8d604051602001611f0e9c9b9a99989796959493929190612e59565b60405160208183030381529060405280519060200120905060098281548110611f3957611f39612c28565b905f5260205f2090600302015f01548114611f925760405162461bcd60e51b8152602060048201526019602482015278486173682064652070726567756e746120696e76616c69646f60381b6044820152606401610740565b600160098381548110611fa757611fa7612c28565b5f9182526020822060039190910201600201805460ff19169215159290921790915542601e5560405183917fe1925ed1b18a09ca8c0798ae918409f2db5036dfd27b61f1f433d17fc68b9ab491a2817f396da80a66a431ebe4395ffecf7669105c6f1c07c69a99c25835e1b77d840dad88888860405161202993929190612ed4565b60405180910390a250505050505050565b61204261270d565b335f908152600f602052604090205460ff166120a05760405162461bcd60e51b815260206004820152601d60248201527f4e6f2070617274696369706173746520656e2065737465206a7565676f0000006044820152606401610740565b335f908152601c602052604090205460ff161561210a5760405162461bcd60e51b815260206004820152602260248201527f59612072657469726173746520756e207072656d696f206f207265656d626f6c604482015261736f60f01b6064820152608401610740565b61a8c0601e5461211a9190612db3565b4210156121795760405162461bcd60e51b815260206004820152602760248201527f456c2074696d656f757420646520696e6163746976696461642061756e206e6f6044820152662076656e63696f60c81b6064820152608401610740565b60085460ff16156121da5760405162461bcd60e51b815260206004820152602560248201527f456c206a7565676f207961207465726d696e6f3b2075736120636c61696d5072604482015264697a65282960d81b6064820152608401610740565b335f908152601c60205260408120805460ff19166001179055600d54600e805491929091612209908490612da0565b9091555050601f5460ff1661226057601f805460ff191660011790556040517f0eba9245670e53c48b16c055d88729ddb0dd01afe009fbcad1d4de13a0b9777a906122579042815260200190565b60405180910390a15b600d546040515f9133918381818185875af1925050503d805f81146122a0576040519150601f19603f3d011682016040523d82523d5f602084013e6122a5565b606091505b50509050806122f65760405162461bcd60e51b815260206004820152601d60248201527f4c61207472616e73666572656e636961206465204554482066616c6c6f0000006044820152606401610740565b600d5460405190815233907f358fe4192934d3bf28ae181feda1f4bd08ca67f5e2fad55582cce5eb67304ae99060200160405180910390a25061126660015f516020612fe25f395f51905f5255565b601f5460ff16156123685760405162461bcd60e51b815260040161074090612c7d565b60065415801561239e575060095f8154811061238657612386612c28565b5f91825260209091206002600390920201015460ff16155b6123ea5760405162461bcd60e51b815260206004820181905260248201527f456c206a7565676f20796120636f6d656e7a6f206f207961207465726d696e6f6044820152606401610740565b335f908152600f602052604090205460ff16156124415760405162461bcd60e51b8152602060048201526015602482015274596120746520756e6973746520616c206a7565676f60581b6044820152606401610740565b600d54341461249e5760405162461bcd60e51b8152602060048201526024808201527f446562657320656e76696172206578616374616d656e746520656c20656e74726044820152637946656560e01b6064820152608401610740565b335f908152600f60205260408120805460ff19166001179055600e80543492906124c9908490612db3565b90915550505f80805260106020527f6e0956cda88cad152e89927e53611735b61a5c762d1428573c6931b0a5efcb01805460019290612509908490612db3565b909155505060405134815233907f3330a6773675f31f62070870f40379f8c6d42e3761410011a4dfc42b18043d2f9060200160405180910390a2565b60128160038110610cc8575f80fd5b60085460ff166125a15760405162461bcd60e51b8152602060048201526018602482015277456c206a7565676f206e6f206861207465726d696e61646f60401b6044820152606401610740565b335f908152600c602052604090205460ff16156126005760405162461bcd60e51b815260206004820152601860248201527f5961207265636c616d61737465207475206469706c6f6d6100000000000000006044820152606401610740565b600454335f908152600b602052604090205410156126605760405162461bcd60e51b815260206004820152601d60248201527f4e6f20616c63616e7a617320656c2070756e74616a65206d696e696d6f0000006044820152606401610740565b335f818152600c602052604090819020805460ff19166001179055600354905163af05ad1160e01b815260048101929092526001600160a01b03169063af05ad11906024015f604051808303815f87803b1580156126bc575f5ffd5b505af11580156126ce573d5f5f3e3d5ffd5b50506040513392507f7eb95b23bdc14656738c72aeadbb1777cdb36ea43c622ddeb9b2c871935fb36e91505f90a2565b60158160038110610cc8575f80fd5b612715612728565b60025f516020612fe25f395f51905f5255565b5f516020612fe25f395f51905f525460020361126657604051633ee5aeb560e01b815260040160405180910390fd5b80356001600160a01b038116811461276d575f5ffd5b919050565b5f60208284031215612782575f5ffd5b61278b82612757565b9392505050565b5f602082840312156127a2575f5ffd5b5035919050565b803560ff8116811461276d575f5ffd5b5f5f83601f8401126127c9575f5ffd5b5081356001600160401b038111156127df575f5ffd5b6020830191508360208285010111156127f6575f5ffd5b9250929050565b5f5f5f6040848603121561280f575f5ffd5b612818846127a9565b925060208401356001600160401b03811115612832575f5ffd5b61283e868287016127b9565b9497909650939450505050565b634e487b7160e01b5f52604160045260245ffd5b5f5f5f60608486031215612871575f5ffd5b83359250612881602085016127a9565b915060408401356001600160401b0381111561289b575f5ffd5b8401601f810186136128ab575f5ffd5b80356001600160401b038111156128c4576128c461284b565b604051601f8201601f19908116603f011681016001600160401b03811182821017156128f2576128f261284b565b604052818152828201602001881015612909575f5ffd5b816020840160208301375f602083830101528093505050509250925092565b602081525f82518060208401528060208501604085015e5f604082850101526040601f19601f83011684010191505092915050565b5f5f83601f84011261296d575f5ffd5b5081356001600160401b03811115612983575f5ffd5b6020830191508360208260051b85010111156127f6575f5ffd5b5f5f5f5f5f5f606087890312156129b2575f5ffd5b86356001600160401b038111156129c7575f5ffd5b6129d389828a0161295d565b90975095505060208701356001600160401b038111156129f1575f5ffd5b6129fd89828a0161295d565b90955093505060408701356001600160401b03811115612a1b575f5ffd5b612a2789828a0161295d565b979a9699509497509295939492505050565b8060808101831015612a49575f5ffd5b92915050565b5f5f5f5f5f5f5f5f60a0898b031215612a66575f5ffd5b612a6f896127a9565b975060208901356001600160401b03811115612a89575f5ffd5b612a958b828c016127b9565b90985096505060408901356001600160401b03811115612ab3575f5ffd5b612abf8b828c016127b9565b90965094505060608901356001600160401b03811115612add575f5ffd5b612ae98b828c01612a39565b93505060808901356001600160401b03811115612b04575f5ffd5b612b108b828c016127b9565b999c989b5096995094979396929594505050565b5f5f60408385031215612b35575f5ffd5b82359150612b4560208401612757565b90509250929050565b5f5f5f5f5f60608688031215612b62575f5ffd5b85356001600160401b03811115612b77575f5ffd5b612b83888289016127b9565b90965094505060208601356001600160401b03811115612ba1575f5ffd5b612bad88828901612a39565b93505060408601356001600160401b03811115612bc8575f5ffd5b612bd4888289016127b9565b969995985093965092949392505050565b60208082526023908201527f446562657320756e69727465207072696d65726f20636f6e206a6f696e47616d60408201526265282960e81b606082015260800190565b634e487b7160e01b5f52603260045260245ffd5b60208082526021908201527f536f6c6f20656c2070726f666520707565646520656a656375746172206573746040820152606f60f81b606082015260800190565b60208082526026908201527f456c206a7565676f206675652063616e63656c61646f20706f7220696e6163746040820152651a5d9a59185960d21b606082015260800190565b60f885901b6001600160f81b03191681528284600183013760609190911b6bffffffffffffffffffffffff19166001919092019081019190915260150192915050565b60ff60f81b8460f81b1681525f83518060208601600185015e60609390931b6bffffffffffffffffffffffff1916600192909301918201929092526015019392505050565b60208082526021908201527f456c2068617368206e6f20636f696e6369646520636f6e20747520636f6d6d696040820152601d60fa1b606082015260800190565b634e487b7160e01b5f52601160045260245ffd5b81810381811115612a4957612a49612d8c565b80820180821115612a4957612a49612d8c565b600181811c90821680612dda57607f821691505b602082108103612df857634e487b7160e01b5f52602260045260245ffd5b50919050565b5f60208284031215612e0e575f5ffd5b61278b826127a9565b5f5f8335601e19843603018112612e2c575f5ffd5b8301803591506001600160401b03821115612e45575f5ffd5b6020019150368190038213156127f6575f5ffd5b8b8d82375f8c82015f81528b8d82375f908c01908152898b82375f908a01908152878982375f908801908152858782375f908601908152838582375f930192835250909c9b505050505050505050505050565b81835281816020850137505f828201602090810191909152601f909101601f19169091010190565b604081525f612ee7604083018587612eac565b82810360208401528060808101855f36829003601e19015b6004821015612f695785840385528235818112612f1a575f5ffd5b89016020810190356001600160401b03811115612f35575f5ffd5b803603821315612f43575f5ffd5b612f4e868284612eac565b95505050602083019250602085019450600182019150612eff565b50919998505050505050505050565b8082028115828204841417612a4957612a49612d8c565b5f82612fa957634e487b7160e01b5f52601260045260245ffd5b500490565b5f60ff821660ff8103612fc357612fc3612d8c565b60010192915050565b5f81612fda57612fda612d8c565b505f19019056fe9b779b17422d0df92223018b32b4d1fa46e071723d6817e2486d003becc55f00a2646970667358221220c4886ad4a99e707e159d3fc8137269b503aaf52062a3d8c794c832184ea14fe164736f6c634300081c003360a060405234801561000f575f5ffd5b5060405161128438038061128483398101604081905261002e916100fa565b6040518060400160405280601381526020017f4b61686f6f742057656233204469706c6f6d61000000000000000000000000008152506040518060400160405280600381526020016212d5d160ea1b815250815f908161008e919061024d565b50600161009b828261024d565b5050506001600160a01b0382166100c55760405163e6c4247b60e01b815260040160405180910390fd5b6001600160a01b03821660805260076100de828261024d565b505050610307565b634e487b7160e01b5f52604160045260245ffd5b5f5f6040838503121561010b575f5ffd5b82516001600160a01b0381168114610121575f5ffd5b60208401519092506001600160401b0381111561013c575f5ffd5b8301601f8101851361014c575f5ffd5b80516001600160401b03811115610165576101656100e6565b604051601f8201601f19908116603f011681016001600160401b0381118282101715610193576101936100e6565b6040528181528282016020018710156101aa575f5ffd5b8160208401602083015e5f602083830101528093505050509250929050565b600181811c908216806101dd57607f821691505b6020821081036101fb57634e487b7160e01b5f52602260045260245ffd5b50919050565b601f82111561024857805f5260205f20601f840160051c810160208510156102265750805b601f840160051c820191505b81811015610245575f8155600101610232565b50505b505050565b81516001600160401b03811115610266576102666100e6565b61027a8161027484546101c9565b84610201565b6020601f8211600181146102ac575f83156102955750848201515b5f19600385901b1c1916600184901b178455610245565b5f84815260208120601f198516915b828110156102db57878501518255602094850194600190920191016102bb565b50848210156102f857868401515f19600387901b60f8161c191681555b50505050600190811b01905550565b608051610f5e6103265f395f818161019401526104a30152610f5e5ff3fe608060405234801561000f575f5ffd5b50600436106100fb575f3560e01c806370a0823111610093578063b88d4fde11610063578063b88d4fde1461022b578063c87b56dd1461023e578063e985e9c514610251578063fc154ff214610264575f5ffd5b806370a08231146101dc57806395d89b41146101fd578063a22cb46514610205578063af05ad1114610218575f5ffd5b806323b872dd116100ce57806323b872dd1461017c5780632438fe321461018f57806342842e0e146101b65780636352211e146101c9575f5ffd5b806301ffc9a7146100ff57806306fdde0314610127578063081812fc1461013c578063095ea7b314610167575b5f5ffd5b61011261010d366004610c0b565b61026c565b60405190151581526020015b60405180910390f35b61012f6102bd565b60405161011e9190610c5b565b61014f61014a366004610c6d565b61034c565b6040516001600160a01b03909116815260200161011e565b61017a610175366004610c9f565b610373565b005b61017a61018a366004610cc7565b610382565b61014f7f000000000000000000000000000000000000000000000000000000000000000081565b61017a6101c4366004610cc7565b610410565b61014f6101d7366004610c6d565b61042f565b6101ef6101ea366004610d01565b610439565b60405190815260200161011e565b61012f61047e565b61017a610213366004610d1a565b61048d565b61017a610226366004610d01565b610498565b61017a610239366004610d67565b610503565b61012f61024c366004610c6d565b61051b565b61011261025f366004610e44565b6105b7565b61012f6105e4565b5f6001600160e01b031982166380ac58cd60e01b148061029c57506001600160e01b03198216635b5e139f60e01b145b806102b757506301ffc9a760e01b6001600160e01b03198316145b92915050565b60605f80546102cb90610e75565b80601f01602080910402602001604051908101604052809291908181526020018280546102f790610e75565b80156103425780601f1061031957610100808354040283529160200191610342565b820191905f5260205f20905b81548152906001019060200180831161032557829003601f168201915b5050505050905090565b5f61035682610670565b505f828152600460205260409020546001600160a01b03166102b7565b61037e8282336106a8565b5050565b6001600160a01b0382166103b057604051633250574960e11b81525f60048201526024015b60405180910390fd5b5f6103bc8383336106b5565b9050836001600160a01b0316816001600160a01b03161461040a576040516364283d7b60e01b81526001600160a01b03808616600483015260248201849052821660448201526064016103a7565b50505050565b61042a83838360405180602001604052805f815250610503565b505050565b5f6102b782610670565b5f6001600160a01b038216610463576040516322718ad960e21b81525f60048201526024016103a7565b506001600160a01b03165f9081526003602052604090205490565b6060600180546102cb90610e75565b61037e3383836107a7565b336001600160a01b037f000000000000000000000000000000000000000000000000000000000000000016146104e35760405163a91baf8160e01b81523360048201526024016103a7565b600680545f91826104f383610ead565b91905055905061037e828261086e565b61050e848484610382565b61040a3385858585610887565b606061052682610670565b506007805461053490610e75565b80601f016020809104026020016040519081016040528092919081815260200182805461056090610e75565b80156105ab5780601f10610582576101008083540402835291602001916105ab565b820191905f5260205f20905b81548152906001019060200180831161058e57829003601f168201915b50505050509050919050565b6001600160a01b039182165f90815260056020908152604080832093909416825291909152205460ff1690565b600780546105f190610e75565b80601f016020809104026020016040519081016040528092919081815260200182805461061d90610e75565b80156106685780601f1061063f57610100808354040283529160200191610668565b820191905f5260205f20905b81548152906001019060200180831161064b57829003601f168201915b505050505081565b5f818152600260205260408120546001600160a01b0316806102b757604051637e27328960e01b8152600481018490526024016103a7565b61042a83838360016109af565b5f828152600260205260408120546001600160a01b03908116908316156106e1576106e1818486610ab3565b6001600160a01b0381161561071b576106fc5f855f5f6109af565b6001600160a01b0381165f90815260036020526040902080545f190190555b6001600160a01b03851615610749576001600160a01b0385165f908152600360205260409020805460010190555b5f8481526002602052604080822080546001600160a01b0319166001600160a01b0389811691821790925591518793918516917fddf252ad1be2c89b69c2b068fc378daa952ba7f163c4a11628f55a4df523b3ef91a4949350505050565b6001600160a01b0383166107d05760405163a9fbf51f60e01b81525f60048201526024016103a7565b6001600160a01b03821661080257604051630b61174360e31b81526001600160a01b03831660048201526024016103a7565b6001600160a01b038381165f81815260056020908152604080832094871680845294825291829020805460ff191686151590811790915591519182527f17307eab39ab6107e8899845ad3d59bd9653f200f220920489ca2b5937696c31910160405180910390a3505050565b61037e828260405180602001604052805f815250610b17565b6001600160a01b0383163b156109a857604051630a85bd0160e11b81526001600160a01b0384169063150b7a02906108c9908890889087908790600401610ed1565b6020604051808303815f875af1925050508015610903575060408051601f3d908101601f1916820190925261090091810190610f0d565b60015b61096a573d808015610930576040519150601f19603f3d011682016040523d82523d5f602084013e610935565b606091505b5080515f0361096257604051633250574960e11b81526001600160a01b03851660048201526024016103a7565b805160208201fd5b6001600160e01b03198116630a85bd0160e11b146109a657604051633250574960e11b81526001600160a01b03851660048201526024016103a7565b505b5050505050565b80806109c357506001600160a01b03821615155b15610a84575f6109d284610670565b90506001600160a01b038316158015906109fe5750826001600160a01b0316816001600160a01b031614155b8015610a115750610a0f81846105b7565b155b15610a3a5760405163a9fbf51f60e01b81526001600160a01b03841660048201526024016103a7565b8115610a825783856001600160a01b0316826001600160a01b03167f8c5be1e5ebec7d5bd14f71427d1e84f3dd0314c0f7b2291e5b200ac8c7c3b92560405160405180910390a45b505b50505f90815260046020526040902080546001600160a01b0319166001600160a01b0392909216919091179055565b610abe838383610b2e565b61042a576001600160a01b038316610aec57604051637e27328960e01b8152600481018290526024016103a7565b60405163177e802f60e01b81526001600160a01b0383166004820152602481018290526044016103a7565b610b218383610b92565b61042a335f858585610887565b5f6001600160a01b03831615801590610b8a5750826001600160a01b0316846001600160a01b03161480610b675750610b6784846105b7565b80610b8a57505f828152600460205260409020546001600160a01b038481169116145b949350505050565b6001600160a01b038216610bbb57604051633250574960e11b81525f60048201526024016103a7565b5f610bc783835f6106b5565b90506001600160a01b0381161561042a576040516339e3563760e11b81525f60048201526024016103a7565b6001600160e01b031981168114610c08575f5ffd5b50565b5f60208284031215610c1b575f5ffd5b8135610c2681610bf3565b9392505050565b5f81518084528060208401602086015e5f602082860101526020601f19601f83011685010191505092915050565b602081525f610c266020830184610c2d565b5f60208284031215610c7d575f5ffd5b5035919050565b80356001600160a01b0381168114610c9a575f5ffd5b919050565b5f5f60408385031215610cb0575f5ffd5b610cb983610c84565b946020939093013593505050565b5f5f5f60608486031215610cd9575f5ffd5b610ce284610c84565b9250610cf060208501610c84565b929592945050506040919091013590565b5f60208284031215610d11575f5ffd5b610c2682610c84565b5f5f60408385031215610d2b575f5ffd5b610d3483610c84565b915060208301358015158114610d48575f5ffd5b809150509250929050565b634e487b7160e01b5f52604160045260245ffd5b5f5f5f5f60808587031215610d7a575f5ffd5b610d8385610c84565b9350610d9160208601610c84565b925060408501359150606085013567ffffffffffffffff811115610db3575f5ffd5b8501601f81018713610dc3575f5ffd5b803567ffffffffffffffff811115610ddd57610ddd610d53565b604051601f8201601f19908116603f0116810167ffffffffffffffff81118282101715610e0c57610e0c610d53565b604052818152828201602001891015610e23575f5ffd5b816020840160208301375f6020838301015280935050505092959194509250565b5f5f60408385031215610e55575f5ffd5b610e5e83610c84565b9150610e6c60208401610c84565b90509250929050565b600181811c90821680610e8957607f821691505b602082108103610ea757634e487b7160e01b5f52602260045260245ffd5b50919050565b5f60018201610eca57634e487b7160e01b5f52601160045260245ffd5b5060010190565b6001600160a01b03858116825284166020820152604081018390526080606082018190525f90610f0390830184610c2d565b9695505050505050565b5f60208284031215610f1d575f5ffd5b8151610c2681610bf356fea26469706673582212208d40bf6584eff4b540bf10d4627c768999ef09b33d86e2baf3888996bcb7c27f64736f6c634300081c0033",
  "linkReferences": {},
  "deployedLinkReferences": {},
  "immutableReferences": {},
  "inputSourceName": "project/contracts/KahootGame.sol",
  "buildInfoId": "solc-0_8_28-2c90937823d5553328569b333bb1bdf16ba91f66"
}